:100000000C9497000C94B6000C94B6000C94B600B7
:100010000C94B6000C94B6000C94B6000C94B60088
:100020000C94B6000C94B6000C94B6000C94B60078
:100030000C94B6000C94B6000C94B6000C94B60068
:100040000C94B6000C94B6000C94B6000C94B60058
:100050000C94B6000C941A030C94B5020C94B600E0
:100060000C94B6000C94B6000C94B6000C94B60038
:100070000C94B6000C94B6000C94B6000C94B60028
:100080000C94B6000C94B6000C94B6000C94B60018
:100090000C94B60007634236B79BD8A71A39685646
:1000A00018AEBAAB558C1D3CB7CC5763BD6DEDFD9A
:1000B000753EF6177231BF000000803F0800000057
:1000C000BE922449123EABAAAA2ABECDCCCC4C3E4D
:1000D00000000080BEABAAAAAA3E00000000BF003C
:1000E0000000803F0000000000084178D3BB438738
:1000F000D1133D190E3CC3BD4282AD2B3E68EC824C
:1001000076BED98FE1A93E4C80EFFFBE01C4FF7FD0
:100110003F000000000004B6E704B6D304B6C704ED
:10012000B6C302900703AC8103AC80029000112497
:100130001FBECFEFD0E1DEBFCDBF11E0A0E0B1E048
:10014000E6E3FCE100E00BBF02C007900D92A03196
:10015000B107D9F711E0A0E1B1E001C01D92A03EC6
:10016000B107E1F70E94BD090C94190E0C94000030
:100170001F93DF93CF930F92CDB7DEB7182F2C9834
:1001800082E069830E94AF02812F0E94AF026981E1
:10019000862F0E94AF022C9A0F90CF91DF911F9172
:1001A00008951F93182F2C9883E00E94AF02812F8F
:1001B0000E94AF028FEF0E94AF022C9A1F91089508
:1001C0001F93DF93CF9300D0CDB7DEB7182F2C98B5
:1001D00085E04A8369830E94AF02812F0E94AF02AB
:1001E0006981862F0E94AF024A81842F0E94AF024C
:1001F0002C9A0F900F90CF91DF911F9108952C981A
:100200000E94AF028FEF0E94AF022C9A0895EF92E6
:10021000FF920F931F93DF93CF930F92CDB7DEB76B
:10022000182F883008F058C02C9A249A2F982D98AF
:100230002E98279A259A26980E94AA022C9880EC3C
:100240000E94AF0286E69EE00197F1F700002C9A2B
:10025000EFEFFFE83197F1F700C000002C9882E043
:100260000E94AF0288E20E94AF0283E0189F7001F3
:10027000112487010A5E1E4F90E0F8018491998352
:100280000E94AF0299819F5F0F5F1F4F9330A9F7C4
:1002900083E00E94AF022C9A8DE060E00E94B800DB
:1002A00022982A9A8CE060E00E94B80089E20E94BD
:1002B000D100182FC701895E9E4FFC0104918FE089
:1002C00060E00E94B800101739F48EE00E94D1005F
:1002D000807ED9F781E001C080E00F90CF91DF915F
:1002E0001F910F91FF90EF90089581E01A9980E09F
:1002F000089580EA0E94FF00982F947581E094355C
:1003000009F480E00895DF92EF92FF920F931F931C
:10031000CF93DF93EC0180EB0E94FF00D82E082FD3
:1003200010E080E4E82EF12CE022F122D6FC04C09B
:10033000D7FE3FC084E901C080E92C980E94AF023B
:10034000CE010E94700280FF0DC02C9AE114F104CE
:1003500019F08CE261E002C08CE262E040E00E94B1
:10036000E00027C08FEF0E94AF0221E003FF20E0F2
:100370009A819E7F922B9A83182F1F701B8324963D
:1003800000E005C08FEF0E94AF0289930F5F011755
:10039000C8F32C9AE114F10419F08CE261E002C078
:1003A0008CE262E040E00E94E0008D2D87708F5F5C
:1003B00001C080E0DF91CF911F910F91FF90EF90EE
:1003C000DF900895EF92FF920F931F93CF93DF93E7
:1003D000F82EEB018EE00E94D100E82E8F2D8630A2
:1003E00008F05CC08FE060EE40E80E94E00000E8AA
:1003F00010E08EE00E94D100282F30E0207E307087
:1004000020173107B1F7FF2031F480E660E20E9447
:10041000B80000E208C08F2D8230A1F480E760E2CE
:100420000E94B80004E22C9882E00E94AF02802F64
:100430000E94AF02CE0102960E9456022C9A85E0DD
:100440008A95F1F78F2D833020F08DEFF80E00E1C3
:1004500001C000E02C9882E00E94AF028F2D880F2F
:10046000880F802B0E94AF02CE010E9456022C9A68
:1004700085E08A95F1F78FE060EE4E2D0E94E00056
:10048000CE2DD0E08EE00E94D10090E08C279D27F9
:10049000807E90700097B1F781E001C080E0DF912D
:1004A000CF911F910F91FF90EF900895FC01208153
:1004B000318183E0369527958A95E1F72EBD8081BD
:1004C0008295880F807E0DB407FEFDCF9EB50E94F9
:1004D000AF0280E00E94AF0280E00E94AF02089568
:1004E0001F93CF93DF93EC018FEF0E94AF02182F81
:1004F0008FEF0E94AF02482F83FF08C08FEF0E944A
:10050000AF028FEF0E94AF0281E020C09FEF9EBD3F
:10051000212F30E093E0220F331F9A95E1F73983C2
:1005200028830DB407FEFDCF9EB59FEF9EBD82953B
:10053000869587709881982B98830DB407FEFDCF20
:100540008EB544FF02C082E001C080E0DF91CF9110
:100550001F91089581E58CBD81E08DBD08958EBD0C
:100560000DB407FEFDCF8EB508951F920F92009037
:100570005F000F92112400905B000F9210925B00BD
:100580002F933F934F938F939F93EF93FF93CF932B
:10059000DF93CDB7DEB7209176013091770180915E
:1005A00074019091750141E02817390709F040E086
:1005B000442351F081EC90E021EC30E0F9012081FE
:1005C0002F7DFC01208324C086EC90E020917601F1
:1005D00030917701205F3E4FF9012081FC0120839B
:1005E00080917601909177010196909377018093A5
:1005F0007601809176019091770121E08436910512
:100600000CF420E0222321F0109277011092760161
:10061000DF91CF91FF91EF919F918F914F913F91FA
:100620002F910F9000925B000F9000925F000F904F
:100630001F9018951F920F9200905F000F92112447
:1006400000905B000F9210925B002F933F938F936B
:100650009F93EF93FF93CF93DF93CDB7DEB7809156
:10066000DC019091DD019C012F5F3F4F8091DE0105
:100670009091DF012817390769F08091DE01909190
:10068000DF01009749F48091DC019091DD01833610
:10069000910511F481E001C080E0882329F086EC07
:1006A00090E0FC01808124C08091DC019091DD010B
:1006B00026EC30E0F901208188589E4FFC01208310
:1006C0008091DC019091DD0101969093DD01809392
:1006D000DC018091DC019091DD0121E084369105FF
:1006E0000CF420E0222321F01092DD011092DC01B5
:1006F000DF91CF91FF91EF919F918F913F912F913A
:100700000F9000925B000F9000925F000F901F907F
:100710001895CF93DF9300D000D000D0CDB7DEB7CF
:100720006B837C838D839E8381EC90E021EC30E0B1
:10073000F90120812860FC01208381EC90E021EC0C
:1007400030E0F90120812061FC0120838B819C81B4
:10075000AD81BE81880F991FAA1FBB1F880F991FEB
:10076000AA1FBB1F880F991FAA1FBB1F880F991FA5
:10077000AA1FBB1F9C01AD0180E094E2A4EFB0E092
:10078000BC01CD010E94C40ADA01C90101979A8314
:10079000898385EC90E029813A81232F330F330B35
:1007A000FC01208384EC90E02981FC012083789473
:1007B00081EC90E021EC30E0F90120812068FC011F
:1007C0002083109277011092760110927501109299
:1007D00074011092DF011092DE011092DD0110927F
:1007E000DC0126960FB6F894DEBF0FBECDBFDF91B9
:1007F000CF910895CF93DF931F92CDB7DEB7898352
:1008000080917401909175019C012F5F3F4F809101
:100810007601909177012817390769F08091760168
:1008200090917701009749F480917401909175013E
:100830008336910511F481E001C080E0882311F036
:1008400081E02BC08091740190917501805F9E4F73
:100850002981FC012083809174019091750101969A
:10086000909375018093740180917401909175014A
:1008700021E0843691050CF420E0222321F010922F
:1008800075011092740181EC90E021EC30E0F901E7
:1008900020812062FC01208380E00F90DF91CF91C6
:1008A0000895CF93DF931F92CDB7DEB72091DE017D
:1008B0003091DF018091DC019091DD0141E028174A
:1008C000390709F040E0442311F080E022C0809114
:1008D000DE019091DF0188589E4FFC018081898361
:1008E0008091DE019091DF0101969093DF0180936A
:1008F000DE018091DE019091DF0121E084369105D7
:100900000CF420E0222321F01092DF011092DE018E
:1009100089810F90DF91CF910895CF93DF9300D01D
:1009200000D0CDB7DEB79C838B831A82198218C0A2
:100930002B813C8189819A81820F931FFC018081E8
:100940000E94FA03982F81E0992309F480E088231C
:1009500011F081E014C089819A8101969A8389837C
:100960002B813C8189819A81820F931FFC019081A8
:1009700081E0992309F480E08823D1F680E00F908C
:100980000F900F900F90DF91CF910895CF93DF9349
:10099000CDB7DEB72091DE013091DF018091DC011F
:1009A0009091DD0141E02817390709F040E0442328
:1009B00011F080E001C081E0DF91CF910895CF93E5
:1009C000DF93CDB7DEB727970FB6F894DEBF0FBE23
:1009D000CDBF9D838C837F836E831A82198240C032
:1009E0002091DE013091DF018091DC019091DD01E9
:1009F00041E02817390709F040E0442311F081E075
:100A00003CC08091DE019091DF0188589E4FFC012F
:100A100080818B838091DE019091DF01019690931C
:100A2000DF018093DE018091DE019091DF0121E002
:100A3000843691050CF420E0222321F01092DF018E
:100A40001092DE0189819A812C813D81820F931F52
:100A50002B81FC01208389819A8101969A83898365
:100A600041E029813A818E819F81281739070CF056
:100A700040E0442309F0B4CF80E027960FB6F89405
:100A8000DEBF0FBECDBFDF91CF910895CF93DF932F
:100A9000CDB7DEB72091DE013091DF018091DC011E
:100AA0009091DD0141E0821793070CF440E044236C
:100AB00069F02091DC013091DD018091DE0190919F
:100AC000DF01A901481B590BCA010EC08091DE014C
:100AD0009091DF0124E630E0281B390B8091DC0186
:100AE0009091DD01820F931FDF91CF910895CF92F6
:100AF000DF92EF92FF920F931F936B017C0120E036
:100B000030E040E05FE40E94520787FD0EC020E025
:100B100030E040E05FE4C701B6010E9422070E9476
:100B2000DD078B019C01305806C0C701B6010E9449
:100B3000DD078B019C01B801C9011F910F91FF9046
:100B4000EF90DF90CF900895A0E0B0E0EAEAF5E002
:100B50000C94EA0A3C01CB01EA01D3012C9122302A
:100B600008F43EC1FB013081323008F436C1243034
:100B700071F4343009F034C111962C918181281719
:100B800009F42EC1B8E06B2EB1E07B2E29C13430C0
:100B900009F423C1323091F4223009F021C128E058
:100BA000F301DA0101900D922A95E1F7DB0111962C
:100BB0008C91F30191818923898311C1223009F439
:100BC0000CC1D3011296ED91FC911397DB011296A3
:100BD0006D917C911397D30114960D911D912D91D8
:100BE0003C911797DC011496CD90DD90ED90FC9030
:100BF0001797AF01461B570BDA0157FF04C0AA270E
:100C0000BB27A41BB50BA032B1050CF065C01416B0
:100C100015067CF5B701A6010A2E04C076956795E6
:100C2000579547950A94D2F7812C912C54018394BF
:100C300004C0880C991CAA1CBB1CAA95D2F7B1E071
:100C40008B1A9108A108B1088C209D20AE20BF20EE
:100C5000C12CD12C7601C39481149104A104B10458
:100C600019F4C12CD12C7601C42AD52AE62AF72AF8
:100C70003EC0452BE1F1EA0FFB1FB901A8010A2E86
:100C800004C076956795579547950A94D2F7812CBD
:100C9000912C5401839404C0880C991CAA1CBB1C81
:100CA000AA95D2F7A1E08A1A9108A108B10880227A
:100CB0009122A222B32201E010E020E030E0811472
:100CC0009104A104B10419F400E010E09801042B90
:100CD000152B262B372B0BC06E177F0724F4C12C46
:100CE000D12C760104C0FB0100E010E09801D30193
:100CF00011964C91DC0111968C91481709F442C071
:100D0000442349F0D701C601801B910BA20BB30B02
:100D10008C019D0104C00C191D092E093F0937FDE6
:100D200004C01982FB83EA830BC081E08983FB83C3
:100D3000EA8330952095109501951F4F2F4F3F4F17
:100D40000C831D832E833F830DC0880F991FAA1F1C
:100D5000BB1F8C839D83AE83BF838A819B81019758
:100D60009B838A838C819D81AE81BF818C019D0193
:100D700001501109210931090F3F1F4F2F4F3F43E8
:100D800020F30BC04983FB83EA830C0D1D1D2E1D30
:100D90003F1D0C831D832E833F8383E088830C815A
:100DA0001D812E813F8137FF1AC0D901C801817092
:100DB0009927AA27BB273695279517950795802B46
:100DC000912BA22BB32B8C839D83AE83BF838A810F
:100DD0009B8101969B838A8302C03C0101C03E0136
:100DE000C301CDB7DEB7EEE00C94060BA0E2B0E095
:100DF000ECEFF6E00C94F60A6D8F7E8F8F8F98A340
:100E0000298F3A8F4B8F5C8FBE016F5E7F4FCE0173
:100E10004D960E94ED08BE01675F7F4FCE01499657
:100E20000E94ED08AE014F5F5F4FBE01675F7F4FCD
:100E3000CE0141960E94A4050E942C08A096E2E0F3
:100E40000C94120BA0E2B0E0E8E2F7E00C94F60A92
:100E50006D8F7E8F8F8F98A3298F3A8F4B8F5C8FEA
:100E6000BE016F5E7F4FCE014D960E94ED08BE0120
:100E7000675F7F4FCE0149960E94ED088A8591E019
:100E800089278A87AE014F5F5F4FBE01675F7F4F43
:100E9000CE0141960E94A4050E942C08A096E2E093
:100EA0000C94120BA8E1B0E0E8E5F7E00C94F60A28
:100EB0006D8B7E8B8F8B988F298B3A8B4B8B5C8BBA
:100EC000BE01675F7F4FCE0145960E94ED08BE01CF
:100ED0006F5F7F4FCE0141960E94ED088985823079
:100EE00058F08981823040F0BE016F5F7F4FCE01A4
:100EF00009960E945C0901C08FEF6896E2E00C94AD
:100F0000120BA8E0B0E0E7E8F7E00C94F40A23E065
:100F100029838B019C01002737FD03951127222788
:100F20003327402F0A83611571058105910519F456
:100F300082E0898335C02EE130E03C832B8344235B
:100F400071F061157105810520E8920771F10027A4
:100F500011279801061B170B280B390B02C08B01B8
:100F60009C01C901B8010E941D0B019718161906B2
:100F70002CF00D831E832F83388712C0082E04C0E7
:100F8000000F111F221F331F0A94D2F70D831E83F7
:100F90002F8338872EE130E0281B390B3C832B83CD
:100FA000CE0101960E942C0804C060E070E080E051
:100FB0009FEC2896E4E00C94100BACE0B0E0E3EE7C
:100FC000F7E00C94F40A69877A878B879C87BE01C7
:100FD0006F5F7F4FCE0109960E94ED0889818230B4
:100FE00091F1823080F1843041F48A81882331F19B
:100FF00000E010E020E030E829C02B813C8137FD83
:1010000022C02F3131058CF78EE190E0821B930BCB
:101010000D811E812F81388504C03695279517953F
:1010200007958A95D2F78A81882381F0309520959B
:10103000109501951F4F2F4F3F4F08C00FEF1FEF27
:101040002FEF3FE703C000E010E09801B801C901AD
:101050002C96E4E00C94100B0F931F93CF93FC019C
:101060004481558166817781C1818081823020F4FD
:1010700060618FEF90E0A3C0843009F49BC08230A0
:1010800009F492C0411551056105710509F48FC03D
:101090002281338122388FEF38070CF057C0E2E805
:1010A000FFEFE21BF30BEA31F10564F58A019B01C6
:1010B0000E2E04C036952795179507950A94D2F7FA
:1010C00081E090E0A0E0B0E004C0880F991FAA1F63
:1010D000BB1FEA95D2F70197A109B1098423952393
:1010E000A623B72341E050E060E070E0892B8A2B13
:1010F0008B2B19F440E050E0BA01402B512B622BAE
:10110000732B03C040E050E0BA01DB01CA018F77C6
:101110009927AA27BB2780349105A105B10539F489
:1011200047FF09C0405C5F4F6F4F7F4F04C0415C79
:101130005F4F6F4F7F4F81E090E041155105610592
:1011400020E4720748F580E090E026C020383105A1
:101150008CF5DB01CA018F779927AA27BB2780343A
:101160009105A105B10539F447FF09C0405C5F4F07
:101170006F4F7F4F04C0415C5F4F6F4F7F4F77FDD4
:1011800004C0C90181589F4F07C076956795579550
:101190004795C90180589F4F97E076956795579579
:1011A00047959A95D1F70BC080E090E005C080E0AC
:1011B00090E005C08FEF90E040E050E0BA01982F3A
:1011C0009695C0FB97F9362F80FB37F9642F752F62
:1011D000832FCF911F910F910895CF92DF92EF92BD
:1011E000DC01FB01CC901196DC90119712968C914A
:1011F00012973FE7E32EE8226E2DA60170E0982FAC
:10120000991F9927991F13962C91822F880F892B4C
:1012100090E027FB222720F92183009729F541152B
:1012200051056105710511F482E027C082E89FEF46
:101230009383828327E0440F551F661F771F2A95EB
:10124000D1F783E0808309C0440F551F661F771FC5
:1012500082819381019793838283411551056105B2
:1012600080E4780788F320C08F3F910579F4411519
:1012700051056105710519F484E0808319C0E4FE0D
:1012800003C081E0808310C010820EC08F57910987
:101290009383828383E0808387E0440F551F661F1A
:1012A000771F8A95D1F7706444835583668377836B
:1012B000EF90DF90CF900895CF93FC01DB019081F8
:1012C000923008F452C08C91823008F44EC09430B1
:1012D00071F4843039F411962C9130E08181281B0F
:1012E000310948C08181882309F43FC03BC0843064
:1012F00029F411968C91811138C034C0923019F4C0
:101300008230B9F735C0823069F3C18111968C9172
:101310001197C8131DC02281338112968D919C9123
:101320001397821793070CF413C0281739070CF48E
:1013300017C0448155816681778114968D919D9166
:101340000D90BC91A02D84179507A607B70718F438
:10135000C11108C00AC0481759076A077B0740F443
:10136000C11103C02FEF3FEF05C021E030E002C004
:1013700020E030E0C901CF910895CF93DF93CDB73E
:10138000DEB76C970FB6F894DEBF0FBECDBF60E03E
:1013900072EC81E090E00E94890387E090E00E9477
:1013A0000701198E188E80E097E09B8F8A8F8C8DB5
:1013B0008C7F8C8F6E0188E1C80ED11CB60180E055
:1013C0000E94E2018DB18F708DB981B18FEF81B92B
:1013D000B12C8E010F5F1F4F7E01EDE0EE0EF11C70
:1013E0001601772473942E01FCE04F0E511C32EE4F
:1013F000632E01C0B12C0E9446050C9708F444C02E
:10140000F8018CE011928A95E9F76CE070E0C80170
:101410000E94DF046801F60181916F010E94FA03C6
:10142000CE14DF04C1F789818337A9F48B81992712
:1014300087FD909525E0969587952A95E1F7079782
:1014400019F582B19D81892B82B992B18E818095E7
:10145000892382B919C08636B9F48C81992787FD12
:1014600090959760988B8F878B81992787FD9095B2
:101470009E878D879D81937089898C7F892B898B2D
:10148000B7018A810E94E2010E947501882311F14F
:10149000C8010E9483018823E9F08B818795882702
:1014A0008795880F880B8D8789818E878C818F87A0
:1014B000FE013596DE01509681918D93EE15FF0564
:1014C000D9F76701F60181916F010E94FA03C214F6
:1014D000D304C1F78CB1807F09F48CCFB1108BCFCE
:1014E00019829CB0F2E09F16B1F0F91520F081E06E
:1014F000981207C00EC0E4E09E1679F0F8E09F163F
:1015000079F08A8080E0A82E81E0B82EC12CD12C01
:1015100012C081EE03C06A8222C083EE8A831FC09C
:10152000E4EEEA831CC0F5018080F2E0AF0EB11C4E
:101530008FEFC81AD80AB601882777FD8095982FB3
:101540000E9481079B01AC0160E070E080E090E4C4
:101550000E94380B0E947705692129F78A827B82D5
:101560007C821D821E821F82188619861A861B861F
:101570006801F60181916F010E94FA03C414D50439
:10158000C1F7BB24B39437CFA1E21A2EAA1BBB1B11
:10159000FD010DC0AA1FBB1FEE1FFF1FA217B3073F
:1015A000E407F50720F0A21BB30BE40BF50B661F55
:1015B000771F881F991F1A9469F760957095809519
:1015C00090959B01AC01BD01CF0108952F923F92F0
:1015D0004F925F926F927F928F929F92AF92BF9243
:1015E000CF92DF92EF92FF920F931F93CF93DF93EF
:1015F000CDB7DEB7CA1BDB0B0FB6F894DEBF0FBE4C
:10160000CDBF09942A88398848885F846E847D8498
:101610008C849B84AA84B984C884DF80EE80FD809A
:101620000C811B81AA81B981CE0FD11D0FB6F89410
:10163000DEBF0FBECDBFED0108950E94260B84FFD3
:101640000895CB010E94260B805F0895AA27992355
:1016500029F4A85F982B11F480E10895903118F4D3
:10166000AD5F9295A395990FE8F78A2F9927089572
:10167000FA01EE0FFF1F30962105310599F1611532
:10168000710561F48038BFE39B0749F16894903895
:10169000810561F08038BFEF9B0741F0992342F547
:1016A000FF3FE1053105210511F1E8940894E79524
:1016B000D901AA2329F4AB2FBE2FF85FD0F310C0B5
:1016C000FF5F70F4A695E0F7F73950F019F0FF3A94
:1016D00038F49F779F930CD00F9007FC9058089593
:1016E0003EF049C060E070E080E89FE308954FE776
:1016F0009F775F934F933F932F93D0D02F913F913C
:101700004F915F913ED105C019F40EF02EC07DC0FF
:1017100032C061D0C8F39638C0F707F80F92E8944A
:101720002BE33AEA48EB5FE73AD10F920F920F9220
:101730004DB75EB70F92F2D0E4E9F0E01FD04F91C1
:101740005F91EF91FF91E595EE1FFF1F49F0FE5766
:10175000E0684427EE0F441FFA95E1F74195550BD9
:1017600064D00F9007FE58C0089597F99F6780E8EE
:1017700070E060E008959FEF80EC0895DF93CF93D1
:101780001F930F93FF92EF92DF927B018C0168947D
:1017900005C0DA2EEF0101D1FE01E894A591259153
:1017A000359145915591AEF3EF015BD1FE01970163
:1017B000A801DA9479F7DF90EF90FF900F911F91D5
:1017C000CF91DF91089557FD9058440F551F59F060
:1017D0005F3F71F04795880F97FB991F61F09F3F1E
:1017E00079F087950895121613061406551FF2CF47
:1017F0004695F1DF08C0161617061806991FF1CF97
:1018000086957105610508940895E894BB276627BD
:101810007727CB0197F908959B01AC0160E070E058
:1018200080E89FE371C1A1CFD7C1D5DFE8F3992349
:10183000D9F3940F511DBBF39150504094F059F0DF
:10184000882332F0660F771F881F91505040C1F7F0
:101850009E3F510544F7880F911D9695879597F9FE
:1018600008955F3FACF0983E9CF0BB278695779536
:101870006795B79508F4B1609395C1F7BB0F58F71A
:1018800011F460FFE8CF6F5F7F4F8F4F9F4FE3CF23
:10189000BDCF0EF0A1C16FCF689467CF9CDFC8F3B6
:1018A0009923D1F3C6F3DF93CF931F930F93FF9246
:1018B000C92FDD2788232AF02197660F771F881FFD
:1018C000DAF720E030E040E85FEB9FE3883920F072
:1018D000803E30F021968F7789DAECEBF0E003C0A0
:1018E00085DAE9EEF0E04ADF8B01BE01EC01FB2E68
:1018F0006F5771097595771F880B990B02DB28E1EB
:1019000032E741E35FE349D0AF2D9801AE01FF908C
:101910000F911F91CF91DF91A4D07AC1FA01DC0120
:10192000AA0FBB1F9B01AC01BF5728F42227332706
:10193000442750781FC0B75188F4AB2F0024469538
:1019400037952795011CA395D2F3002069F0220F4B
:10195000331F441FB395DAF30DD074CA613071059B
:10196000A0E88A07B94630F49B01AC0166277727C7
:1019700088279078309621F02083318342835383E7
:1019800008950BD045C136D128F03BD118F09523EE
:1019900009F0EBCEF0CE112439CF15DFA0F3959FDF
:1019A000D1F3950F50E0551F629FF001729FBB2746
:1019B000F00DB11D639FAA27F00DB11DAA1F649FF2
:1019C0006627B00DA11D661F829F2227B00DA11DA5
:1019D000621F739FB00DA11D621F839FA00D611D2B
:1019E000221F749F3327A00D611D231F849F600D4C
:1019F000211D822F762F6A2F11249F5750408AF085
:101A0000E1F088234AF0EE0FFF1FBB1F661F771F10
:101A1000881F91505040A9F79E3F510570F0A5CE08
:101A2000F5CE5F3FECF3983EDCF3869577956795AE
:101A3000B795F795E7959F5FC1F7FE2B880F911D2E
:101A40009695879597F90895D5D030F0DAD020F0A3
:101A500031F49F3F11F41EF48ECE0EF4E095E7FBB7
:101A600084CEE92FB0DE80F3BA17620773078407CC
:101A7000950718F071F49EF5C8CE0EF4E0950B2E84
:101A8000BA2FA02D0B01B90190010C01CA01A001D0
:101A90001124FF27591B99F0593F50F4503E68F12B
:101AA0001A16F040A22F232F342F4427585FF3CF6C
:101AB000469537952795A795F0405395C9F77EF43D
:101AC0001F16BA0B620B730B840BBAF09150A1F086
:101AD000FF0FBB1F661F771F881FC2F70EC0BA0F0C
:101AE000621F731F841F48F4879577956795B79594
:101AF000F7959E3F08F0B3CF9395880F08F099278C
:101B0000EE0F9795879508950CD082C07AD040F05B
:101B100071D030F021F45F3F19F027CE511176CE0D
:101B20002ACE51DE98F39923C9F35523B1F3951BBF
:101B3000550BBB27AA2762177307840738F09F5FEE
:101B40005F4F220F331F441FAA1FA9F333D00E2E5D
:101B50003AF0E0E830D091505040E695001CCAF7CA
:101B600029D0FE2F27D0660F771F881FBB1F26178F
:101B700037074807AB07B0E809F0BB0B802DBF0162
:101B8000FF2793585F4F2AF09E3F510568F0EDCD37
:101B90003DCE5F3FECF3983EDCF3869577956795F5
:101BA000B795F7959F5FC9F7880F911D9695879513
:101BB00097F90895E1E0660F771F881FBB1F621732
:101BC00073078407BA0720F0621B730B840BBA0BF0
:101BD000EE1F88F7E09508959F3F31F0915020F473
:101BE000879577956795B795880F911D96958795F9
:101BF00097F9089500240A94161617061806090680
:101C0000089500240A941216130614060506089572
:101C1000092E0394000C11F4882352F0BB0F40F4FA
:101C2000BF2B11F460FF04C06F5F7F4F8F4F9F4F3A
:061C30000895F894FFCFB7
:101C3600E100E200E300E400000000000000000014
:00000001FF
