:100000000C9456000C9468000C9468000C946800E2
:100010000C9468000C9468000C9468000C946800C0
:100020000C9468000C9468000C9468000C946800B0
:100030000C9468000C9468000C9468000C946800A0
:100040000C9468000C9468000C9400020C946302F9
:100050000C9468000C947B040C9416040C946800B7
:100060000C9468000C9468000C9468000C94680070
:100070000C9468000C9468000C9468000C94680060
:100080000C9468000C9468000C9468000C94680050
:100090000C9468007E6E7F620C37260C37120C378A
:1000A0000E0C37060C37020C37000C3611241FBE1D
:1000B000CFEFD0E1DEBFCDBF11E0A0E0B1E001C0E5
:1000C0001D92A23DB107E1F70E946A000C94FA0666
:1000D0000C9400002F923F924F925F926F927F920A
:1000E0008F929F92AF92BF92CF92DF92EF92FF9248
:1000F0000F931F93DF93CF93CDB7DEB7AA970FB6B9
:10010000F894DEBF0FBECDBF60E071EE80E090E0FE
:100110000E94EA0483E090E00E94D10178941A8260
:1001200019821C821B828D818C7F8D8380E0BE01B1
:100130006F5F7F4F0E94D0028DB18F708DB98EB1ED
:10014000806F8EB981B18FEF81B981E082B98FEF75
:1001500093EDA0E381509040A040E1F700C0000083
:100160008E010F5E1F4FACE08A2EF6E0EF2EF12CD1
:10017000EC0EFD1EE5E1AE2EB12CAC0EBD1E71E203
:10018000672E712C6C0E7D1E6DE1462E512C4C0E8F
:100190005D1E99249A9459E0252E312C2C0E3D1E7B
:1001A000DE019996BAA7A9A78FEF99EFA0E0815039
:1001B0009040A040E1F700C000000E94A7068C30EC
:1001C000910508F457C0D801E82D1D92EA95E9F78A
:1001D000C8016CE070E00E9440068989833789F588
:1001E0008B89992787FD90959C0145E03695279549
:1001F0004A95E1F727303105D1F03A8931702F8DDA
:100200002E7F232B2F8F9E8F8D8F8C8988A3F501B6
:10021000D3019501280F311DC90102C021912D93F1
:10022000E817F907D9F7C2010E94730323C082B10E
:100230009D89892B82B992B18E898095892382B953
:1002400019C08636B9F48C89992787FD90959760F7
:10025000998788878B89992787FD90959F838E83BF
:100260009D8993708A858C7F892B8A878A89B701BB
:100270000E94D0020E946D02882331F182B192B8AF
:10028000C2010E94DE038823E9F08F8D87958827BD
:100290008795880F880B8E838D8D8F8388A18887A3
:1002A000F301D10181918D9389A59AA5E817F907EA
:1002B000C9F76701D6018D916D010E945B05C016DB
:1002C000D106C1F782B112B88CB1803F08F06CCF73
:1002D0001E82B1EEBF83E8E0E8878CB1807F89871A
:1002E0009A869B869C869D866701D6018D916D01BD
:1002F0000E945B05C016D106C1F756CF8091D00190
:10030000882379F080E0982F9295907F9093ED006C
:100310009091EF00907C31F08F5F8F30A1F78FEFDD
:1003200008958FEF0895883070F49091DE0021E0F9
:1003300030E002C0220F331F8A95E2F7209529236F
:100340002093DE0008954091DF0090E0089721E0BF
:1003500030E002C0220F331F8A95E2F72095242354
:100360002093DF000895883068F49091DE0021E04A
:1003700030E002C0220F331F8A95E2F7922B909350
:10038000DE0008954091DF0090E0089721E030E022
:1003900002C0220F331F8A95E2F7422B4093DF0001
:1003A0000895883058F59091D80091609093D800C6
:1003B00093E0899FC0011124FC01EC56FF4FE491AA
:1003C000E093E200FC01EB56FF4FE491E093E30081
:1003D0008A569F4FFC0184918093E4001092DA00CA
:1003E00080EB8093DB0087EC8093E5008FEF0E9429
:1003F0007B0282E08093D80081E0089580E0089538
:100400001F920F920FB60F9211242F933F934F9389
:100410005F938F939F938091EC00807F803F09F4DE
:1004200043C04091ED008091EC00807F8093ED000F
:100430002091EC0022952F708091EE0086FF0CC079
:100440008091EE001092EE001092EF008091D001AA
:100450008F5F8093D00105C08091D1018F5F809321
:10046000D101283070F43091DE0081E090E002C0CC
:10047000880F991F2A95E2F7809583238093DE00E9
:1004800010C05091DF0030E02850304081E090E013
:1004900002C0880F991F2A95E2F7809585238093E3
:1004A000DF004093ED0004C08091DA008093DA0011
:1004B0009F918F915F914F913F912F910F900FBE20
:1004C0000F901F9018951F920F920FB60F92112444
:1004D0000F900FBE0F901F9018959091D10181E061
:1004E000992309F480E008959091D00181E0992347
:1004F00009F480E008958F30E8F08F3F09F04EC096
:100500001092DF001092DE0080E0982F9295907F8D
:100510009093ED009091EF001092EF009091EE001B
:100520001092EE008F5F8F3081F71092D10180938F
:10053000D00132C090E89093D8009091D90093FDFB
:10054000FCCF1092D8009091D90092FDFCCF982F4B
:100550009295907F9093ED009091EE001092EE00B6
:100560001092EF000E9493019091ED0080E0282FFF
:100570002295207F2093ED002091EF002093EF0043
:100580008F5F8F30A1F79093ED0082E08093D800C9
:100590008091D90082FFFCCF81E0089580E008952A
:1005A000FB018F3008F070C090E89093D8009091D4
:1005B000D90093FDFCCF1092D8009091D90092FD04
:1005C000FCCF982F9295907F9093ED001092EE00C3
:1005D0001092EF001092F0001092F100908192952D
:1005E000990F907E9093F2002081318143E03695FF
:1005F00027954A95E1F72093F30091E09093F4005A
:100600001092F50092819295990F907E9093F6004A
:100610002281338193E0369527959A95E1F72093CF
:10062000F7009481937091FF0EC09091F400946054
:100630009093F4009481937090FF05C09091F00026
:1006400094609093F0009091EF0090689093EF0089
:100650000E94B3019091ED0080E0282F2295207F29
:100660002093ED002091EF002093EF008F5F8F30FB
:10067000A1F79093ED0082E08093D8008091D9009B
:1006800082FFFCCF81E0089580E00895FC01838122
:100690008093EF001092F0001092F100808182951B
:1006A000880F807E8093F2008081918123E096956F
:1006B00087952A95E1F78093F300828180FF06C039
:1006C0008091F00084608093F0000895CF0104963B
:1006D000DC0103C02D912093FA003A2F381B2381AF
:1006E0003217C0F308951F93CF93DF93EC010E945C
:1006F0007E01182F8F30F0F48295807F8093ED007B
:100700008091EE001092EE00CE010E944603812FF0
:100710000E94B3019FB7F8948091D00181508093DB
:10072000D0019FBF8091EF0080648093EF00812F04
:100730008F5F01C080E0DF91CF911F910895FC0190
:100740008091EF00982F9F70938384FF0CC09FB718
:10075000F8948091D10181508093D1019FBF80E8AE
:100760008093EF0008952091F2002295269527703E
:1007700030E0318320838091F30090E043E0880FE4
:10078000991F4A95E1F7822B932B91838083909157
:10079000F000828192FF03C08160828308958E7F82
:1007A0008283CF010496DC0103C02091FA002D93CF
:1007B0003A2F381B23813217C0F308950F931F93EC
:1007C000CF93DF93EC010E946D02882349F110E082
:1007D000812F8295807F8093ED008091EE00012F24
:1007E0000F5F85FF1AC08091EE001092EE00CE01DF
:1007F0000E949F039FB7F8948091D101815080930C
:10080000D1019FBF812F0E94B3018091EF008071C1
:1008100080688093EF00802F04C0102F0F30C1F646
:1008200080E0DF91CF911F910F9108951F920F9259
:1008300000905F000F92112400905B000F921092C5
:100840005B002F933F934F938F939F93EF93FF936F
:10085000CF93DF93CDB7DEB720916601309167016A
:10086000809164019091650141E02817390709F0F2
:1008700040E0442351F081EC90E021EC30E0F901BC
:1008800020812F7DFC01208324C086EC90E0209104
:1008900066013091670120503F4FF9012081FC0132
:1008A0002083809166019091670101969093670182
:1008B00080936601809166019091670121E0843602
:1008C00091050CF420E0222321F010926701109290
:1008D0006601DF91CF91FF91EF919F918F914F91A1
:1008E0003F912F910F9000925B000F9000925F005C
:1008F0000F901F9018951F920F9200905F000F921B
:10090000112400905B000F9210925B002F933F9395
:100910008F939F93EF93FF93CF93DF93CDB7DEB782
:100920008091CC019091CD019C012F5F3F4F809130
:10093000CE019091CF012817390769F08091CE013F
:100940009091CF01009749F48091CC019091CD0115
:100950008336910511F481E001C080E0882329F0FD
:1009600086EC90E0FC01808124C08091CC019091C4
:10097000CD0126EC30E0F901208188599E4FFC0121
:1009800020838091CC019091CD0101969093CD016F
:100990008093CC018091CC019091CD0121E08436EF
:1009A00091050CF420E0222321F01092CD01109249
:1009B000CC01DF91CF91FF91EF919F918F913F916A
:1009C0002F910F9000925B000F9000925F000F90AC
:1009D0001F901895CF93DF9300D000D000D0CDB7F3
:1009E000DEB76B837C838D839E8381EC90E021EC6A
:1009F00030E0F90120812860FC01208381EC90E047
:100A000021EC30E0F90120812061FC0120838B8101
:100A10009C81AD81BE81880F991FAA1FBB1F880FC3
:100A2000991FAA1FBB1F880F991FAA1FBB1F880FE2
:100A3000991FAA1FBB1F9C01AD0180E094E2A4EFA7
:100A4000B0E0BC01CD010E94D806DA01C9010197CE
:100A50009A83898385EC90E029813A81232F330F93
:100A6000330BFC01208384EC90E02981FC0120837E
:100A7000789481EC90E021EC30E0F901208120684D
:100A8000FC012083109267011092660110926501AB
:100A9000109264011092CF011092CE011092CD01FC
:100AA0001092CC0126960FB6F894DEBF0FBECDBFD4
:100AB000DF91CF910895CF93DF931F92CDB7DEB72B
:100AC000898380916401909165019C012F5F3F4F64
:100AD00080916601909167012817390769F080912C
:100AE000660190916701009749F4809164019091AB
:100AF00065018336910511F481E001C080E088230F
:100B000011F081E02BC080916401909165018050CB
:100B10009F4F2981FC0120838091640190916501A0
:100B20000196909365018093640180916401909196
:100B3000650121E0843691050CF420E0222321F0A8
:100B4000109265011092640181EC90E021EC30E09C
:100B5000F90120812062FC01208380E00F90DF9169
:100B6000CF910895CF93DF931F92CDB7DEB7209139
:100B7000CE013091CF018091CC019091CD0141E027
:100B80002817390709F040E0442311F080E022C023
:100B90008091CE019091CF0188599E4FFC018081B8
:100BA00089838091CE019091CF0101969093CF01DE
:100BB0008093CE018091CE019091CF0121E08436C7
:100BC00091050CF420E0222321F01092CF01109225
:100BD000CE0189810F90DF91CF910895CF93DF935C
:100BE00000D000D0CDB7DEB79C838B831A821982E8
:100BF00018C02B813C8189819A81820F931FFC014F
:100C000080810E945B05982F81E0992309F480E0A0
:100C1000882311F081E014C089819A8101969A831A
:100C200089832B813C8189819A81820F931FFC01EA
:100C3000908181E0992309F480E08823D1F680E057
:100C40000F900F900F900F90DF91CF910895CF9359
:100C5000DF93CDB7DEB72091CE013091CF018091E7
:100C6000CC019091CD0141E02817390709F040E00F
:100C7000442311F080E001C081E0DF91CF9108951D
:100C8000CF93DF93CDB7DEB727970FB6F894DEBFCB
:100C90000FBECDBF9D838C837F836E831A821982A2
:100CA00040C02091CE013091CF018091CC01909134
:100CB000CD0141E02817390709F040E0442311F045
:100CC00081E03CC08091CE019091CF0188599E4F28
:100CD000FC0180818B838091CE019091CF010196A0
:100CE0009093CF018093CE018091CE019091CF015E
:100CF00021E0843691050CF420E0222321F01092AB
:100D0000CF011092CE0189819A812C813D81820F81
:100D1000931F2B81FC01208389819A8101969A83FC
:100D2000898341E029813A818E819F812817390783
:100D30000CF040E0442309F0B4CF80E027960FB6D2
:100D4000F894DEBF0FBECDBFDF91CF910895CF9352
:100D5000DF93CDB7DEB72091CE013091CF018091E6
:100D6000CC019091CD0141E0821793070CF440E053
:100D7000442369F02091CC013091CD018091CE01C6
:100D80009091CF01A901481B590BCA010EC0809157
:100D9000CE019091CF0124E630E0281B390B8091E1
:100DA000CC019091CD01820F931FDF91CF910895D7
:100DB000A1E21A2EAA1BBB1BFD010DC0AA1FBB1F5F
:100DC000EE1FFF1FA217B307E407F50720F0A21BD1
:100DD000B30BE40BF50B661F771F881F991F1A943E
:100DE00069F760957095809590959B01AC01BD0168
:080DF000CF010895F894FFCF34
:00000001FF
