:100000000C944A000C945C000C945C000C945C0012
:100010000C945C000C945C000C945C000C945C00F0
:100020000C945C000C945C000C945C000C945C00E0
:100030000C945C000C945C000C945C000C945C00D0
:100040000C945C000C945C000C945C000C945C00C0
:100050000C945C000C94C3000C945E000C945C0047
:100060000C945C000C945C000C945C000C945C00A0
:100070000C945C000C945C000C945C000C945C0090
:100080000C945C000C945C000C945C000C945C0080
:100090000C945C0011241FBECFEFD0E1DEBFCDBFBA
:1000A00011E0A0E0B1E001C01D92A03DB107E1F771
:1000B0000E9420030C9454030C9400001F920F9292
:1000C00000905F000F92112400905B000F9210923D
:1000D0005B002F933F934F938F939F93EF93FF93E7
:1000E000CF93DF93CDB7DEB72091660130916701E2
:1000F000809164019091650141E02817390709F06A
:1001000040E0442351F081EC90E021EC30E0F90133
:1001100020812F7DFC01208324C086EC90E020917B
:1001200066013091670120503F4FF9012081FC01A9
:1001300020838091660190916701019690936701F9
:1001400080936601809166019091670121E0843679
:1001500091050CF420E0222321F010926701109207
:100160006601DF91CF91FF91EF919F918F914F9118
:100170003F912F910F9000925B000F9000925F00D3
:100180000F901F9018951F920F9200905F000F9292
:10019000112400905B000F9210925B002F933F930D
:1001A0008F939F93EF93FF93CF93DF93CDB7DEB7FA
:1001B0008091CC019091CD019C012F5F3F4F8091A8
:1001C000CE019091CF012817390769F08091CE01B7
:1001D0009091CF01009749F48091CC019091CD018D
:1001E0008336910511F481E001C080E0882329F075
:1001F00086EC90E0FC01808124C08091CC0190913C
:10020000CD0126EC30E0F901208188599E4FFC0198
:1002100020838091CC019091CD0101969093CD01E6
:100220008093CC018091CC019091CD0121E0843666
:1002300091050CF420E0222321F01092CD011092C0
:10024000CC01DF91CF91FF91EF919F918F913F91E1
:100250002F910F9000925B000F9000925F000F9023
:100260001F901895CF93DF9300D000D000D0CDB76A
:10027000DEB76B837C838D839E8381EC90E021ECE1
:1002800030E0F90120812860FC01208381EC90E0BE
:1002900021EC30E0F90120812061FC0120838B8179
:1002A0009C81AD81BE81880F991FAA1FBB1F880F3B
:1002B000991FAA1FBB1F880F991FAA1FBB1F880F5A
:1002C000991FAA1FBB1F9C01AD0180E094E2A4EF1F
:1002D000B0E0BC01CD010E943203DA01C9010197EF
:1002E0009A83898385EC90E029813A81232F330F0B
:1002F000330BFC01208384EC90E02981FC012083F6
:10030000789481EC90E021EC30E0F90120812068C4
:10031000FC01208310926701109266011092650122
:10032000109264011092CF011092CE011092CD0173
:100330001092CC0126960FB6F894DEBF0FBECDBF4B
:10034000DF91CF910895CF93DF931F92CDB7DEB7A2
:10035000898380916401909165019C012F5F3F4FDB
:1003600080916601909167012817390769F08091A3
:10037000660190916701009749F480916401909122
:1003800065018336910511F481E001C080E0882386
:1003900011F081E02BC08091640190916501805043
:1003A0009F4F2981FC012083809164019091650118
:1003B000019690936501809364018091640190910E
:1003C000650121E0843691050CF420E0222321F020
:1003D000109265011092640181EC90E021EC30E014
:1003E000F90120812062FC01208380E00F90DF91E1
:1003F000CF910895CF93DF931F92CDB7DEB72091B1
:10040000CE013091CF018091CC019091CD0141E09E
:100410002817390709F040E0442311F080E022C09A
:100420008091CE019091CF0188599E4FFC0180812F
:1004300089838091CE019091CF0101969093CF0155
:100440008093CE018091CE019091CF0121E084363E
:1004500091050CF420E0222321F01092CF0110929C
:10046000CE0189810F90DF91CF910895CF93DF93D3
:1004700000D000D0CDB7DEB79C838B831A8219825F
:1004800018C02B813C8189819A81820F931FFC01C6
:1004900080810E94A301982F81E0992309F480E0D4
:1004A000882311F081E014C089819A8101969A8392
:1004B00089832B813C8189819A81820F931FFC0162
:1004C000908181E0992309F480E08823D1F680E0CF
:1004D0000F900F900F900F90DF91CF910895CF93D1
:1004E000DF93CDB7DEB72091CE013091CF0180915F
:1004F000CC019091CD0141E02817390709F040E087
:10050000442311F080E001C081E0DF91CF91089594
:10051000CF93DF93CDB7DEB727970FB6F894DEBF42
:100520000FBECDBF9D838C837F836E831A82198219
:1005300040C02091CE013091CF018091CC019091AB
:10054000CD0141E02817390709F040E0442311F0BC
:1005500081E03CC08091CE019091CF0188599E4F9F
:10056000FC0180818B838091CE019091CF01019617
:100570009093CF018093CE018091CE019091CF01D5
:1005800021E0843691050CF420E0222321F0109222
:10059000CF011092CE0189819A812C813D81820FF9
:1005A000931F2B81FC01208389819A8101969A8374
:1005B000898341E029813A818E819F8128173907FB
:1005C0000CF040E0442309F0B4CF80E027960FB64A
:1005D000F894DEBF0FBECDBFDF91CF910895CF93CA
:1005E000DF93CDB7DEB72091CE013091CF0180915E
:1005F000CC019091CD0141E0821793070CF440E0CB
:10060000442369F02091CC013091CD018091CE013D
:100610009091CF01A901481B590BCA010EC08091CE
:10062000CE019091CF0124E630E0281B390B809158
:10063000CC019091CD01820F931FDF91CF9108954E
:1006400060E072EC81E090E00E94320181B18FEFB6
:1006500081B90E946F028823E1F38FEF82B980E0B5
:1006600090E00895A1E21A2EAA1BBB1BFD010DC04C
:10067000AA1FBB1FEE1FFF1FA217B307E407F50752
:1006800020F0A21BB30BE40BF50B661F771F881F2E
:10069000991F1A9469F760957095809590959B01C4
:0C06A000AC01BD01CF010895F894FFCF1C
:00000001FF
