:100000000C9497000C94B6000C94B6000C94B600B7
:100010000C94B6000C94B6000C94B6000C94B60088
:100020000C94B6000C94B6000C94B6000C94B60078
:100030000C94B6000C94B6000C94B6000C94B60068
:100040000C94B6000C94B6000C948E020C94F10241
:100050000C94B6000C9409050C94A4040C94B600FE
:100060000C94B6000C94B6000C94B6000C94B60038
:100070000C94B6000C94B6000C94B6000C94B60028
:100080000C94B6000C94B6000C94B6000C94B60018
:100090000C94B60007634236B79BD8A71A39685646
:1000A00018AEBAAB558C1D3CB7CC5763BD6DEDFD9A
:1000B000753EF6177231BF000000803F0800000057
:1000C000BE922449123EABAAAA2ABECDCCCC4C3E4D
:1000D00000000080BEABAAAAAA3E00000000BF003C
:1000E0000000803F0000000000084178D3BB438738
:1000F000D1133D190E3CC3BD4282AD2B3E68EC824C
:1001000076BED98FE1A93E4C80EFFFBE01C4FF7FD0
:100110003F00000000007E6E7F620C37260C371215
:100120000C370E0C37060C37020C37000C36112436
:100130001FBECFEFD0E1DEBFCDBF12E0A0E0B1E047
:10014000E4E8FEE100E00BBF02C007900D92A03191
:10015000B107D9F712E0A0E1B2E001C01D92A23EC2
:10016000B107E1F70E94B8000C94400F0C94000016
:100170002F923F924F925F926F927F928F929F92B7
:10018000AF92BF92CF92DF92EF92FF920F931F93A5
:10019000DF93CF93CDB7DEB7AA970FB6F894DEBF43
:1001A0000FBECDBF60E071EE80E090E00E94780568
:1001B00083E090E00E945F0278941A8219821C8288
:1001C0001B828D818C7F8D8380E0BE016F5F7F4FAE
:1001D0000E945E038DB18F708DB98EB1806F8EB924
:1001E00081B18FEF81B981E082B9FF248E010F5E6A
:1001F0001F4FECE02E2E7DE1872E912C8C0E9D1E44
:1002000066E0662E712C6C0E7D1E51E2452E512C3F
:100210004C0E5D1E9E01275D3F4F3AA729A7332450
:100220003394CF2C01C0CC240E9435078C3091052B
:1002300008F461C0D801E22D1D92EA95E9F7C801E2
:100240006CE070E00E94CE067801D7018D917D01AF
:100250000E94E905E814F904C1F78989833791F50B
:100260008B89992787FD90959C0145E036952795C8
:100270004A95E1F727303105D9F03A8931702F8D51
:100280002E7F232B2F8F9E8F8D8F8C8988A3FE012D
:100290007596D2019F01280F311DC90102C021911D
:1002A0002D93E817F907D9F7C4010E94010423C070
:1002B00082B19D89892B82B992B18E8980958923DB
:1002C00082B919C08636B9F48C89992787FD909533
:1002D0009760998788878B89992787FD90959F8359
:1002E0008E839D8993708A858C7F892B8A878A89E2
:1002F000B3010E945E030E94FB02882389F182B150
:100300003FEF32B9C4010E946C048823F1F08F8D55
:10031000879588278795880F880B8E838D8D8F838F
:1003200088A18887F201DE01199681918D9389A5B4
:100330009AA5E817F907C9F77301D7018D917D01D7
:100340000E94E905E016F106C1F78FEF99E6A8E1F2
:1003500081509040A040E1F700C0000082B112B887
:100360008CB1807F09F45FCFCC2009F05DCF1E8275
:10037000FCB09F2D9230A9F0933018F4913031F4F5
:100380000DC0AF2DA43081F0A83089F0EF8080E05F
:10039000A82E81E0B82ECC24DD2415C0B1EEBF8399
:1003A00026C0E2EEEF8323C0F3EEFF8320C024EEED
:1003B0002F831DC0D501EC90E2E0F0E0AE0EBF1E31
:1003C0000894C11CD11CB601882777FD8095982F11
:1003D0000E946A099B01AC0160E070E080E090E45B
:1003E0000E945F0C0E9466076F2121F7EF8238861A
:1003F00039861A861B861C861D861E861F86188ACD
:100400007301D7018D917D010E94E905E016F10687
:10041000C1F7CC24C39408CF8091E002882379F0FF
:1004200080E0982F9295907F9093ED009091EF004F
:10043000907C31F08F5F8F30A1F78FEF08958FEFB1
:100440000895883070F49091DE0021E030E002C021
:10045000220F331F8A95E2F7209529232093DE008F
:1004600008954091DF0090E0089721E030E002C05D
:10047000220F331F8A95E2F7209524232093DF0073
:100480000895883068F49091DE0021E030E002C0E9
:10049000220F331F8A95E2F7922B9093DE00089586
:1004A0004091DF0090E0089721E030E002C0220F89
:1004B000331F8A95E2F7422B4093DF00089588307E
:1004C00058F59091D80091609093D80093E0899F5F
:1004D000C0011124FC01EA5EFE4FE491E093E200CA
:1004E000FC01E95EFE4FE491E093E300885E9E4FDD
:1004F000FC0184918093E4001092DA0080EB8093F9
:10050000DB0087EC8093E5008FEF0E94090382E017
:100510008093D80081E0089580E008951F920F92A3
:100520000FB60F9211242F933F934F935F938F93A6
:100530009F938091EC00807F803F09F443C04091FD
:10054000ED008091EC00807F8093ED002091EC0025
:1005500022952F708091EE0086FF0CC08091EE00F6
:100560001092EE001092EF008091E0028F5F809376
:10057000E00205C08091E1028F5F8093E1022830A4
:1005800070F43091DE0081E090E002C0880F991F86
:100590002A95E2F7809583238093DE0010C0509166
:1005A000DF0030E02850304081E090E002C0880F4A
:1005B000991F2A95E2F7809585238093DF00409369
:1005C000ED0004C08091DA008093DA009F918F9152
:1005D0005F914F913F912F910F900FBE0F901F9001
:1005E00018951F920F920FB60F9211240F900FBE05
:1005F0000F901F9018959091E10281E0992309F4E2
:1006000080E008959091E00281E0992309F480E070
:1006100008958F30E8F08F3F09F04EC01092DF0050
:100620001092DE0080E0982F9295907F9093ED00DD
:100630009091EF001092EF009091EE001092EE007A
:100640008F5F8F3081F71092E1028093E00232C019
:1006500090E89093D8009091D90093FDFCCF109230
:10066000D8009091D90092FDFCCF982F9295907F61
:100670009093ED009091EE001092EE001092EF003A
:100680000E9421029091ED0080E0282F2295207F8A
:100690002093ED002091EF002093EF008F5F8F30CB
:1006A000A1F79093ED0082E08093D8008091D9006B
:1006B00082FFFCCF81E0089580E00895FB018F3038
:1006C00008F070C090E89093D8009091D90093FD05
:1006D000FCCF1092D8009091D90092FDFCCF982FBA
:1006E0009295907F9093ED001092EE001092EF00A3
:1006F0001092F0001092F10090819295990F907EE7
:100700009093F2002081318143E0369527954A95F8
:10071000E1F72093F30091E09093F4001092F5003C
:1007200092819295990F907E9093F6002281338169
:1007300093E0369527959A95E1F72093F7009481F9
:10074000937091FF0EC09091F40094609093F40028
:100750009481937090FF05C09091F0009460909305
:10076000F0009091EF0090689093EF000E9441029A
:100770009091ED0080E0282F2295207F2093ED00BE
:100780002091EF002093EF008F5F8F30A1F79093BF
:10079000ED0082E08093D8008091D90082FFFCCFE9
:1007A00081E0089580E00895FC0183818093EF004B
:1007B0001092F0001092F10080818295880F807E67
:1007C0008093F2008081918123E0969587952A9508
:1007D000E1F78093F300828180FF06C08091F000F2
:1007E00084608093F0000895CF010496DC0103C07B
:1007F0002D912093FA003A2F381B23813217C0F332
:1008000008951F93CF93DF93EC010E940C02182FE1
:100810008F30F0F48295807F8093ED008091EE0020
:100820001092EE00CE010E94D403812F0E9441025B
:100830009FB7F8948091E00281508093E0029FBFBF
:100840008091EF0080648093EF00812F8F5F01C063
:1008500080E0DF91CF911F910895FC018091EF001E
:10086000982F9F70938384FF0CC09FB7F89480915A
:10087000E10281508093E1029FBF80E88093EF0006
:1008800008952091F20022952695277030E031835B
:1008900020838091F30090E043E0880F991F4A95F0
:1008A000E1F7822B932B918380839091F0008281DA
:1008B00092FF03C08160828308958E7F8283CF017F
:1008C0000496DC0103C02091FA002D933A2F381BC7
:1008D00023813217C0F308950F931F93CF93DF93B3
:1008E000EC010E94FB02882349F110E0812F8295E0
:1008F000807F8093ED008091EE00012F0F5F85FFD8
:100900001AC08091EE001092EE00CE010E942D04DC
:100910009FB7F8948091E10281508093E1029FBFDC
:10092000812F0E9441028091EF0080718068809346
:10093000EF00802F04C0102F0F30C1F680E0DF9150
:10094000CF911F910F9108951F920F9200905F0019
:100950000F92112400905B000F9210925B002F9376
:100960003F934F938F939F93EF93FF93CF93DF9397
:10097000CDB7DEB720917602309177028091740274
:100980009091750241E02817390709F040E04423AF
:1009900051F081EC90E021EC30E0F90120812F7DD5
:1009A000FC01208324C086EC90E0209176023091F7
:1009B0007702205F3D4FF9012081FC012083809167
:1009C0007602909177020196909377028093760257
:1009D000809176029091770221E0843691050CF4A3
:1009E00020E0222321F01092770210927602DF910C
:1009F000CF91FF91EF919F918F914F913F912F91C7
:100A00000F9000925B000F9000925F000F901F907C
:100A100018951F920F9200905F000F921124009082
:100A20005B000F9210925B002F933F938F939F93E5
:100A3000EF93FF93CF93DF93CDB7DEB78091DC02C6
:100A40009091DD029C012F5F3F4F8091DE029091DB
:100A5000DF022817390769F08091DE029091DF02EA
:100A6000009749F48091DC029091DD028336910574
:100A700011F481E001C080E0882329F086EC90E049
:100A8000FC01808124C08091DC029091DD0226EC83
:100A900030E0F901208188589D4FFC01208380912E
:100AA000DC029091DD0201969093DD028093DC02DE
:100AB0008091DC029091DD0221E0843691050CF4F6
:100AC00020E0222321F01092DD021092DC02DF915F
:100AD000CF91FF91EF919F918F913F912F910F9027
:100AE00000925B000F9000925F000F901F9018958E
:100AF000CF93DF9300D000D000D0CDB7DEB76B83AB
:100B00007C838D839E8381EC90E021EC30E0F901C1
:100B100020812860FC01208381EC90E021EC30E012
:100B2000F90120812061FC0120838B819C81AD81B2
:100B3000BE81880F991FAA1FBB1F880F991FAA1F6C
:100B4000BB1F880F991FAA1FBB1F880F991FAA1FC1
:100B5000BB1F9C01AD0180E094E2A4EFB0E0BC01BA
:100B6000CD010E94060CDA01C90101979A8389839D
:100B700085EC90E029813A81232F330F330BFC0160
:100B8000208384EC90E02981FC012083789481EC1F
:100B900090E021EC30E0F90120812068FC01208305
:100BA00010927702109276021092750210927402DF
:100BB0001092DF021092DE021092DD021092DC022F
:100BC00026960FB6F894DEBF0FBECDBFDF91CF9152
:100BD0000895CF93DF931F92CDB7DEB789838091BD
:100BE0007402909175029C012F5F3F4F80917602B5
:100BF000909177022817390769F0809176029091D9
:100C00007702009749F480917402909175028336BF
:100C1000910511F481E001C080E0882311F081E0AA
:100C20002BC08091740290917502805F9D4F298145
:100C3000FC0120838091740290917502019690933B
:100C4000750280937402809174029091750221E084
:100C5000843691050CF420E0222321F010927502D5
:100C60001092740281EC90E021EC30E0F9012081D7
:100C70002062FC01208380E00F90DF91CF910895E6
:100C8000CF93DF931F92CDB7DEB72091DE02309174
:100C9000DF028091DC029091DD0241E028173907E4
:100CA00009F040E0442311F080E022C08091DE0290
:100CB0009091DF0288589D4FFC018081898380914B
:100CC000DE029091DF0201969093DF028093DE02B4
:100CD0008091DE029091DF0221E0843691050CF4D0
:100CE00020E0222321F01092DF021092DE0289819F
:100CF0000F90DF91CF910895CF93DF9300D000D074
:100D0000CDB7DEB79C838B831A82198218C02B81E2
:100D10003C8189819A81820F931FFC0180810E940E
:100D2000E905982F81E0992309F480E0882311F0E8
:100D300081E014C089819A8101969A8389832B81ED
:100D40003C8189819A81820F931FFC01908181E00F
:100D5000992309F480E08823D1F680E00F900F906A
:100D60000F900F90DF91CF910895CF93DF93CDB780
:100D7000DEB72091DE023091DF028091DC0290919B
:100D8000DD0241E02817390709F040E0442311F063
:100D900080E001C081E0DF91CF910895CF93DF9390
:100DA000CDB7DEB727970FB6F894DEBF0FBECDBF25
:100DB0009D838C837F836E831A82198240C0209129
:100DC000DE023091DF028091DC029091DD0241E091
:100DD0002817390709F040E0442311F081E03CC0B6
:100DE0008091DE029091DF0288589D4FFC01808146
:100DF0008B838091DE029091DF0201969093DF0257
:100E00008093DE028091DE029091DF0221E0843641
:100E100091050CF420E0222321F01092DF021092C1
:100E2000DE0289819A812C813D81820F931F2B8163
:100E3000FC01208389819A8101969A83898341E00C
:100E400029813A818E819F81281739070CF040E073
:100E5000442309F0B4CF80E027960FB6F894DEBFA4
:100E60000FBECDBFDF91CF910895CF93DF93CDB764
:100E7000DEB72091DE023091DF028091DC0290919A
:100E8000DD0241E0821793070CF440E0442369F04F
:100E90002091DC023091DD028091DE029091DF0230
:100EA000A901481B590BCA010EC08091DE02909126
:100EB000DF0224E630E0281B390B8091DC029091A0
:100EC000DD02820F931FDF91CF910895EF92FF9281
:100ED0000F931F937B018C0120E030E040E05FE442
:100EE0000E943A0987FD11C0C801B70120E030E037
:100EF00040E05FE40E9409090E94CA099B01AC011D
:100F0000205030404040504806C0C801B7010E9400
:100F1000CA099B01AC01B901CA011F910F91FF9051
:100F2000EF900895A0E0B0E0E8E9F7E00C942C0C15
:100F3000FC01EA018081823008F438C1DB019C9118
:100F4000923008F430C1843059F4943009F02EC145
:100F5000918111968C911197981709F021C126C1A2
:100F6000943009F420C19230B1F4823009F01EC1EE
:100F7000CA01AF0128E0DA010D90AD01DC010D924C
:100F8000CD012150C1F7DB0111968C911197918110
:100F9000892389830AC1823009F405C1C280D380C4
:100FA000DB0112966D907C901397248135814681E8
:100FB00057811496ED90FD900D911C911797C601E5
:100FC000861997095C0197FF04C0AA24BB24A81ABC
:100FD000B90AB0E2AB16B1040CF061C018161906DC
:100FE0006CF5370148010A2C04C0969487947794D5
:100FF00067940A94D2F781E090E0A0E0B0E00A2C78
:1010000004C0880F991FAA1FBB1F0A94D2F701972B
:10101000A109B1098E219F21A023B123EE24FF2431
:101020008701E3940097A105B10519F4EE24FF248C
:101030008701E628F728082919293CC00097D1F133
:10104000CA0CDB1C39014A010A2C04C0969487940F
:10105000779467940A94D2F781E090E0A0E0B0E042
:101060000A2C04C0880F991FAA1FBB1F0A94D2F72D
:101070000197A109B10982239323A423B52321E079
:1010800030E040E050E00097A105B10519F420E000
:1010900030E0A90126293729482959290BC06C14A9
:1010A0007D0424F4EE24FF24870104C0630120E0C2
:1010B00030E0A9018181FB019181891709F445C0C4
:1010C000882349F0D801C701821B930BA40BB50BF1
:1010D0009C01AD0104C02E193F09400B510B57FD77
:1010E00004C01982DB82CA820BC081E08983DB8263
:1010F000CA8250954095309521953F4F4F4F5F4F95
:101100002C833D834E835F830DC0880F991FAA1FD8
:10111000BB1F8C839D83AE83BF838A819B81019794
:101120009B838A838C819D81AE81BF819C01AD01AF
:1011300021503040404050402F3FEFEF3E07EFEF4F
:101140004E07EFE35E0708F30BC08983DB82CA8298
:101150002E0D3F1D401F511F2C833D834E835F8307
:1011600083E088832C813D814E815F8157FF1DC0C4
:10117000DA01C90181709070A070B07056954795E2
:1011800037952795822B932BA42BB52B8C839D838E
:10119000AE83BF838A819B8101969B838A8305C02E
:1011A000E8E0F1E003C0FB0101C0FE01CF01CDB7D3
:1011B000DEB7EEE00C94480CA0E2B0E0E2EEF8E01E
:1011C0000C94340C69837A838B839C832D833E83B8
:1011D0004F83588789E0E82EF12CEC0EFD1ECE01DE
:1011E0000196B7010E94440B8E010F5E1F4FCE0186
:1011F0000596B8010E94440BC701B801AE01475ED5
:101200005F4F0E9492070E94760AA096E6E00C9437
:10121000500CA0E2B0E0EFE0F9E00C94340C6983EC
:101220007A838B839C832D833E834F8358878E01E3
:10123000075F1F4FCE010196B8010E94440B91E158
:10124000E92EF12CEC0EFD1ECE010596B7010E9491
:10125000440B8A8991E089278A8BC801B701AE01C6
:10126000475E5F4F0E9492070E94760AA096E6E0D2
:101270000C94500CA8E1B0E0E0E4F9E00C94340CDC
:1012800069837A838B839C832D833E834F83588726
:101290008E01075F1F4FCE010196B8010E94440BDB
:1012A00081E1E82EF12CEC0EFD1ECE010596B70172
:1012B0000E94440B8985823040F08989823028F071
:1012C000C801B7010E94AD0B01C08FEF6896E6E040
:1012D0000C94500CA8E0B0E0E0E7F9E00C94340C7A
:1012E0007B018C0183E08983D801C7018827B7FD82
:1012F00083959927AA27BB27282F8A83E114F10415
:101300000105110519F482E0898337C08EE190E070
:101310009C838B83222389F080E0E81680E0F80626
:1013200080E0080780E8180769F110950095F094AF
:10133000E094E11CF11C011D111DED82FE820F8362
:101340001887C801B7010E941C0A9C012150304037
:101350001216130694F4022E04C0EE0CFF1C001F9C
:10136000111F0A94D2F7ED82FE820F8318878EE157
:1013700090E0821B930B9C838B83CE0101960E948D
:10138000760A04C060E070E080E09FEC2896E6E01A
:101390000C94500CACE0B0E0E0EDF9E00C94380CAB
:1013A00069837A838B839C83CE010196BE016B5F38
:1013B0007F4F0E94440B8D81823081F1823070F129
:1013C000843021F48E81882369F10AC02F81388509
:1013D00037FD24C06E812F3131053CF0662311F1B9
:1013E00020E030E040E050E821C08EE190E0821B38
:1013F000930B29853A854B855C8504C056954795A6
:10140000379527958A95D2F7662381F050954095B8
:10141000309521953F4F4F4F5F4F08C020E030E09F
:10142000A90104C02FEF3FEF4FEF5FE7B901CA01F9
:101430002C96E2E00C94540CAF92BF92CF92DF92C4
:10144000EF92FF920F931F937B018C0180E0E816CF
:1014500080E0F80681E0080780E0180758F4EFEF15
:10146000EE16F1040105110509F090F480E090E01A
:10147000DC0117C0F0E0EF16F0E0FF06F0E00F0728
:10148000F1E01F0750F480E190E0A0E0B0E009C077
:1014900088E090E0A0E0B0E004C088E190E0A0E047
:1014A000B0E020E230E040E050E0281B390B4A0B6E
:1014B0005B0B5701680104C0D694C794B794A794F6
:1014C0008A95D2F7D601C501805F9E4FFC018081CD
:1014D000281B310941095109C9011F910F91FF9042
:1014E000EF90DF90CF90BF90AF900895EF92FF9272
:1014F0000F931F93CF93DF93FC01248135814681A5
:10150000578161818081823020F44061EFEFF0E00B
:10151000A3C0843009F49BC0823009F492C0211525
:1015200031054105510509F48FC00280F381E02D9A
:101530008FEFE238F8070CF05AC0C2E8DFEFCE1B9D
:10154000DF0BCA31D1056CF579018A010C2E04C07C
:1015500016950795F794E7940A94D2F781E090E006
:10156000A0E0B0E00C2E04C0880F991FAA1FBB1F7B
:101570000A94D2F70197A109B10982239323A423E6
:10158000B52321E030E040E050E00097A105B1052F
:1015900019F420E030E0A9012E293F29402B512BDE
:1015A00003C020E030E0A901DA01C9018F77907013
:1015B000A070B07080349105A105B10539F427FF02
:1015C00009C0205C3F4F4F4F5F4F04C0215C3F4F2D
:1015D0004F4F5F4FE1E0F0E0203080E0380780E0DF
:1015E000480780E4580728F5E0E0F0E022C0E03842
:1015F000F1056CF5E158FF4FDA01C9018F77907062
:10160000A070B07080349105A105B10539F427FFB1
:1016100009C0205C3F4F4F4F5F4F04C0215C3F4FDC
:101620004F4F5F4F57FF05C0569547953795279504
:10163000319687E056954795379527958A95D1F746
:101640000BC0E0E0F0E005C0E0E0F0E005C0EFEF47
:10165000F0E020E030E0A9018E2F8795882787955C
:10166000942F9F77679566276795E695E22EA92FB9
:10167000A82BFE2FF62B622F732F8A2F9F2FCDB70B
:10168000DEB7E6E00C94500CDC01FB012C911196C6
:101690003C91119712968C911297482F4F7750E0FA
:1016A000982F991F9927991F13966C911397862F3E
:1016B000880F892B90E0661F6627661F618300975D
:1016C00039F5211531054105510511F482E029C094
:1016D00082E89FEF9383828367E0220F331F441FCA
:1016E000551F6A95D1F783E0808309C0220F331F0D
:1016F000441F551F828193810197938382832030F9
:1017000080E0380780E0480780E4580778F320C07D
:101710008F3F910579F4211531054105510519F4E3
:1017200084E08083089544FF03C081E0808310C07B
:1017300010820EC08F5790409383828383E0808312
:1017400087E0220F331F441F551F8A95D1F750643D
:1017500024833583468357830895FC01DB01908100
:10176000923008F449C08C91823008F445C094301E
:1017700051F461818430B1F511962C91119730E0CC
:10178000261B310941C0843021F0923041F482306F
:10179000B1F111968C9111978823A1F12DC061812F
:1017A000823001F111968C9111976817D9F422813A
:1017B000338112968D919C9113978217930794F021
:1017C00028173907BCF0248135814681578114964A
:1017D0008D919D910D90BC91A02D82179307A40728
:1017E000B50718F4662341F00DC0281739074A07DA
:1017F0005B0728F4662331F021E030E005C020E0EB
:1018000030E002C02FEF3FEFC9010895A1E21A2E88
:10181000AA1BBB1BFD010DC0AA1FBB1FEE1FFF1F94
:10182000A217B307E407F50720F0A21BB30BE40BE4
:10183000F50B661F771F881F991F1A9469F760952B
:101840007095809590959B01AC01BD01CF010895E5
:101850002F923F924F925F926F927F928F929F92C0
:10186000AF92BF92CF92DF92EF92FF920F931F93AE
:10187000CF93DF93CDB7DEB7CA1BDB0B0FB6F8945F
:10188000DEBF0FBECDBF09942A88398848885F849F
:101890006E847D848C849B84AA84B984C884DF8010
:1018A000EE80FD800C811B81AA81B981CE0FD11DF4
:1018B0000FB6F894DEBF0FBECDBFED010895FA015B
:1018C000EE0FFF1F30962105310599F16115710565
:1018D00061F48038BFE39B0749F168949038810533
:1018E00061F08038BFEF9B0741F0992342F5FF3F3D
:1018F000E1053105210511F1E8940894E795D90136
:10190000AA2329F4AB2FBE2FF85FD0F310C0FF5FDE
:1019100070F4A695E0F7F73950F019F0FF3A38F473
:101920009F779F930CD00F9007FC905808953EF03E
:1019300049C060E070E080E89FE308954FE79F773B
:101940005F934F933F932F93D0D02F913F914F911F
:101950005F913ED105C019F40EF02EC07DC032C09B
:1019600061D0C8F39638C0F707F80F92E8942BE3DC
:101970003AEA48EB5FE73AD10F920F920F924DB7D8
:101980005EB70F92F2D0E4E9F0E01FD04F915F9183
:10199000EF91FF91E595EE1FFF1F49F0FE57E068BC
:1019A0004427EE0F441FFA95E1F74195550B64D09B
:1019B0000F9007FE58C0089597F99F6780E870E080
:1019C00060E008959FEF80EC0895DF93CF931F931D
:1019D0000F93FF92EF92DF927B018C01689405C018
:1019E000DA2EEF0101D1FE01E894A5912591359100
:1019F00045915591AEF3EF015BD1FE019701A8012E
:101A0000DA9479F7DF90EF90FF900F911F91CF91CB
:101A1000DF91089557FD9058440F551F59F05F3FCF
:101A200071F04795880F97FB991F61F09F3F79F000
:101A300087950895121613061406551FF2CF469582
:101A4000F1DF08C0161617061806991FF1CF869504
:101A50007105610508940895E894BB2766277727E8
:101A6000CB0197F908959B01AC0160E070E080E83C
:101A70009FE371C1A1CFD7C1D5DFE8F39923D9F393
:101A8000940F511DBBF39150504094F059F08823AE
:101A900032F0660F771F881F91505040C1F79E3F6C
:101AA000510544F7880F911D9695879597F90895EC
:101AB0005F3FACF0983E9CF0BB2786957795679585
:101AC000B79508F4B1609395C1F7BB0F58F711F4BF
:101AD00060FFE8CF6F5F7F4F8F4F9F4FE3CFBDCF4A
:101AE0000EF0A1C16FCF689467CF9CDFC8F3992334
:101AF000D1F3C6F3DF93CF931F930F93FF92C92FB8
:101B0000DD2788232AF02197660F771F881FDAF7D1
:101B100020E030E040E85FEB9FE3883920F0803E32
:101B200030F021968F7748DBECEBF0E003C044DB2C
:101B3000E9EEF0E04ADF8B01BE01EC01FB2E6F57AE
:101B400071097595771F880B990BC4DB28E132E783
:101B500041E35FE349D0AF2D9801AE01FF900F91B3
:101B60001F91CF91DF91A4D07AC1FA01DC01AA0FB5
:101B7000BB1F9B01AC01BF5728F422273327442702
:101B800050781FC0B75188F4AB2F00244695379585
:101B90002795011CA395D2F3002069F0220F331F73
:101BA000441FB395DAF30DD034CB61307105A0E852
:101BB0008A07B94630F49B01AC016627772788274E
:101BC0009078309621F020833183428353830895A7
:101BD0000BD045C136D128F03BD118F0952309F040
:101BE000EBCEF0CE112439CF15DFA0F3959FD1F3C2
:101BF000950F50E0551F629FF001729FBB27F00DBB
:101C0000B11D639FAA27F00DB11DAA1F649F66270F
:101C1000B00DA11D661F829F2227B00DA11D621F5E
:101C2000739FB00DA11D621F839FA00D611D221F18
:101C3000749F3327A00D611D231F849F600D211DFC
:101C4000822F762F6A2F11249F5750408AF0E1F09F
:101C500088234AF0EE0FFF1FBB1F661F771F881FE8
:101C600091505040A9F79E3F510570F0A5CEF5CE9A
:101C70005F3FECF3983EDCF3869577956795B795D3
:101C8000F795E7959F5FC1F7FE2B880F911D9695FD
:101C9000879597F90895D5D030F0DAD020F031F457
:101CA0009F3F11F41EF48ECE0EF4E095E7FB84CE38
:101CB000E92FB0DE80F3BA17620773078407950730
:101CC00018F071F49EF5C8CE0EF4E0950B2EBA2FE5
:101CD000A02D0B01B90190010C01CA01A001112432
:101CE000FF27591B99F0593F50F4503E68F11A16DE
:101CF000F040A22F232F342F4427585FF3CF46956F
:101D000037952795A795F0405395C9F77EF41F1690
:101D1000BA0B620B730B840BBAF09150A1F0FF0F5A
:101D2000BB1F661F771F881FC2F70EC0BA0F621F46
:101D3000731F841F48F4879577956795B795F79536
:101D40009E3F08F0B3CF9395880F08F09927EE0FC8
:101D50009795879508950CD082C07AD040F071D0C5
:101D600030F021F45F3F19F027CE511176CE2ACE04
:101D700051DE98F39923C9F35523B1F3951B550B05
:101D8000BB27AA2762177307840738F09F5F5F4F4E
:101D9000220F331F441FAA1FA9F333D00E2E3AF08F
:101DA000E0E830D091505040E695001CCAF729D0A9
:101DB000FE2F27D0660F771F881FBB1F26173707F8
:101DC0004807AB07B0E809F0BB0B802DBF01FF2728
:101DD00093585F4F2AF09E3F510568F0EDCD3DCE00
:101DE0005F3FECF3983EDCF3869577956795B79562
:101DF000F7959F5FC9F7880F911D9695879597F97D
:101E00000895E1E0660F771F881FBB1F62177307F5
:101E10008407BA0720F0621B730B840BBA0BEE1F0A
:101E200088F7E09508959F3F31F0915020F4879511
:101E300077956795B795880F911D9695879597F932
:101E4000089500240A941616170618060906089520
:101E500000240A9412161306140605060895092E86
:101E60000394000C11F4882352F0BB0F40F4BF2BF5
:101E700011F460FF04C06F5F7F4F8F4F9F4F089535
:041E8000F894FFCF04
:101E8400E100E200E300E4000000000000000000C4
:101E9400000102020303030304040404040404040D
:101EA40005050505050505050505050505050505DE
:101EB40006060606060606060606060606060606BE
:101EC40006060606060606060606060606060606AE
:101ED400070707070707070707070707070707078E
:101EE400070707070707070707070707070707077E
:101EF400070707070707070707070707070707076E
:101F0400070707070707070707070707070707075D
:101F1400080808080808080808080808080808083D
:101F2400080808080808080808080808080808082D
:101F3400080808080808080808080808080808081D
:101F4400080808080808080808080808080808080D
:101F540008080808080808080808080808080808FD
:101F640008080808080808080808080808080808ED
:101F740008080808080808080808080808080808DD
:101F840008080808080808080808080808080808CD
:00000001FF
