:100000000C944A000C9454000C9454000C9454002A
:100010000C9454000C9454000C9454000C94540010
:100020000C9454000C9454000C9454000C94540000
:100030000C9454000C9454000C9454000C945400F0
:100040000C9454000C9454000C9454000C945400E0
:100050000C9454000C9454000C9454000C945400D0
:100060000C9454000C9454000C9454000C945400C0
:100070000C9454000C9454000C9454000C945400B0
:100080000C9454000C9454000C9454000C945400A0
:100090000C94540011241FBECFEFD0E1DEBFCDBFC2
:1000A0000E9456000C9466000C94000081B18FEF02
:1000B00081B92FEF83ED90E3215080409040E1F72C
:1000C00000C0000082B1809582B9F3CFF894FFCFD1
:00000001FF
