:100000000C9456000C9468000C9468000C946800E2
:100010000C9468000C9468000C9468000C946800C0
:100020000C9468000C9468000C9468000C946800B0
:100030000C9468000C9468000C9468000C946800A0
:100040000C9468000C9468000C9453020C94B60253
:100050000C9468000C9432040C94D0030C94680047
:100060000C9468000C9468000C9468000C94680070
:100070000C9468000C9468000C9468000C94680060
:100080000C94DB060C946E030C9468000C946800CE
:100090000C9468007E6E7F620C37260C37120C378A
:1000A0000E0C37060C37020C37000C3611241FBE1D
:1000B000CFEFD0E1DEBFCDBF18E0A0E0B1E001C0DE
:1000C0001D92A23EB107E1F70E9484010C94A6099B
:1000D0000C940000EAE7F0E08081806880838081F2
:1000E00087608083ECE7F0E080818064808380819A
:1000F000807E808308958830E8F490917C00907E23
:1001000090937C0090917C00982B90937C00809140
:100110007A00806480937A0080917A0086FDFCCF1B
:100120002091780030917900932F80E030E0282BE7
:10013000392B02C020E030E0C90108958F929F92D0
:10014000AF92BF92CF92DF92EF92FF920F931F93E5
:10015000DF93CF93CDB7DEB7C451D2400FB6F8943A
:10016000DEBF0FBECDBFE82E823008F0ABC020E26C
:10017000CE010196DC01E22F1D92EA95E9F734E207
:10018000398331E03B832D832AE02D872FE02D8FAB
:100190002EE22F8F2BE328A3EE2029F460E270E0FB
:1001A0000E94910604C060E270E00E943A098FEF5D
:1001B00099E6A8E181509040A040E1F700C000001E
:1001C0008E010F5D1F4F24EF31E0D801F9011D9220
:1001D0003197E9F7EE2039F40E946006BC01C801AE
:1001E0000E94F80506C00E946006BC01C8010E947A
:1001F000A10880E090E0DE01919635E2832E912CFB
:100200008C0E9D1EBE016A5D7F4FAE01415E5F4F49
:1002100020E2E22EF12CEC0EFD1E50C0F1E0843FF6
:100220009F0738F4F90101919F01043211F0019602
:10023000F5CF9401280F391FF901208130E08B019F
:10024000080F191FF801B080AA242A293B29280F7A
:10025000391F8A01020F131FF801D080CC242E0D04
:100260003F1DF901208130E02C293D29FEE22B338E
:100270003F07F9F4DE01A80FB91FAB5BBF4FE0E009
:10028000F0E020E030E0A9016D9170E00E2E02C098
:10029000660F771F0A94E2F7882777FD8095982FDD
:1002A000262B372B482B592B3896E032F10561F776
:1002B00011C0019611E0843F910748F49D01280F79
:1002C000391FACCF2CEA3AEA4AEA5AEA03C020E0E6
:1002D00030E0A901B901CA01CC5EDD4F0FB6F89438
:1002E000DEBF0FBECDBFCF91DF911F910F91FF9069
:1002F000EF90DF90CF90BF90AF909F908F90089538
:1003000081E0649980E00895DF92EF92FF920F936D
:100310001F93DF93CF93CDB7DEB72C970FB6F8942A
:10032000DEBF0FBECDBF6C9880E090E00E9424023B
:10033000789460E076E980E090E00E949F0460E0BD
:1003400076E980E090E00E94480784E490E09A8398
:1003500089838B818E7F8B8387E08C838E010F5FF7
:100360001F4F80E00E949E00D62EE72EF82E81E0DF
:100370000E949E00DD82EE82FF82688779878A87ED
:100380000E9480018B871C86C8010E9442038FEF68
:1003900099E6A8E181509040A040E1F700C000003C
:1003A000E0CF8091E008882379F080E0982F929543
:1003B000907F9093ED009091EF00907C31F08F5FF3
:1003C0008F30A1F78FEF08958FEF0895883070F484
:1003D0009091DE0021E030E002C0220F331F8A95A9
:1003E000E2F7209529232093DE0008954091DF0055
:1003F00090E0089721E030E002C0220F331F8A9579
:10040000E2F7209524232093DF000895883068F4D4
:100410009091DE0021E030E002C0220F331F8A9568
:10042000E2F7922B9093DE0008954091DF0090E078
:10043000089721E030E002C0220F331F8A95E2F7CF
:10044000422B4093DF000895883058F59091D800F2
:1004500091609093D80093E0899FC0011124FC0122
:10046000EC56FF4FE491E093E200FC01EB56FF4FA6
:10047000E491E093E3008A569F4FFC0184918093BE
:10048000E4001092DA0080EB8093DB0087EC80932D
:10049000E5008FEF0E94C00282E08093D80081E0E7
:1004A000089580E008951F920F920FB60F921124C5
:1004B0002F933F934F935F938F939F938091EC0083
:1004C000807F803F09F443C04091ED008091EC00B3
:1004D000807F8093ED002091EC0022952F70809119
:1004E000EE0086FF0CC08091EE001092EE0010929C
:1004F000EF008091E0088F5F8093E00805C0809155
:10050000E1088F5F8093E108283070F43091DE00BD
:1005100081E090E002C0880F991F2A95E2F780954C
:1005200083238093DE0010C05091DF0030E028501C
:10053000304081E090E002C0880F991F2A95E2F7D1
:10054000809585238093DF004093ED0004C0809167
:10055000DA008093DA009F918F915F914F913F91E4
:100560002F910F900FBE0F901F9018951F920F9212
:100570000FB60F9211240F900FBE0F901F90189579
:100580008F30E8F08F3F09F04EC01092DF001092DC
:10059000DE0080E0982F9295907F9093ED009091EF
:1005A000EF001092EF009091EE001092EE008F5F3E
:1005B0008F3081F71092E1088093E00832C090E814
:1005C0009093D8009091D90093FDFCCF1092D80061
:1005D0009091D90092FDFCCF982F9295907F9093A7
:1005E000ED009091EE001092EE001092EF000E944C
:1005F000E6019091ED0080E0282F2295207F209346
:10060000ED002091EF002093EF008F5F8F30A1F776
:100610009093ED0082E08093D8008091D90082FF12
:10062000FCCF81E0089580E00895FC0183818093F0
:10063000EF001092F0001092F10080818295880FF7
:10064000807E8093F2008081918123E0969587954A
:100650002A95E1F78093F300828180FF06C08091A4
:10066000F00084608093F0000895CF010496DC01CF
:1006700003C02D912093FA003A2F381B23813217A3
:10068000C0F308951F93CF93DF93EC010E94D10133
:10069000182F8F30F0F48295807F8093ED00809149
:1006A000EE001092EE00CE010E941503812F0E94F1
:1006B00006029FB7F8948091E00881508093E0088B
:1006C0009FBF8091EF0080648093EF00812F8F5F48
:1006D00001C080E0DF91CF911F9108951F920F928A
:1006E0000FB60F9200905B000F9211242F933F934F
:1006F0004F938F939F93EF93FF93DF93CF93CDB758
:10070000DEB72091E6063091E7068091E4069091ED
:10071000E50641E02817390709F040E0442351F08D
:1007200089EC90E029EC30E0F90120812F7DFC017B
:10073000208325C08EEC90E02091E6063091E706FC
:1007400020513B4FF9012081FC0120838091E60676
:100750009091E70601969093E7068093E6068091D4
:10076000E6069091E70621E0F1E0843F9F070CF454
:1007700020E0222321F01092E7061092E606CF91A6
:10078000DF91FF91EF919F918F914F913F912F9129
:100790000F9000925B000F900FBE0F901F90189566
:1007A0001F920F920FB60F9200905B000F921124D0
:1007B0002F933F934F938F939F93EF93FF93DF93E9
:1007C000CF93CDB7DEB72091F6023091F70280913A
:1007D000F4029091F50241E02817390709F040E052
:1007E000442351F081EC90E021EC30E0F9012081CC
:1007F0002F7DFC01208325C086EC90E02091F6023D
:100800003091F70220503F4FF9012081FC012083F5
:100810008091F6029091F70201969093F7028093EF
:10082000F6028091F6029091F70221E0F1E0843F18
:100830009F070CF420E0222321F01092F70210927F
:10084000F602CF91DF91FF91EF919F918F914F91A0
:100850003F912F910F9000925B000F900FBE0F9071
:100860001F9018951F920F920FB60F9200905B0089
:100870000F9211242F933F938F939F93EF93FF93A6
:10088000DF93CF93CDB7DEB78091EC049091ED0468
:100890009C012F5F3F4F8091EE049091EF04281749
:1008A000390771F08091EE049091EF04009751F4B4
:1008B0008091EC049091ED0421E0833F920711F4C4
:1008C00081E001C080E0882329F086EC90E0FC0103
:1008D000808125C08091EC049091ED0426EC30E0FD
:1008E000F901208188509D4FFC0120838091EC0408
:1008F0009091ED0401969093ED048093EC04809127
:10090000EC049091ED0421E0F1E0843F9F070CF4AA
:1009100020E0222321F01092ED041092EC04CF91FC
:10092000DF91FF91EF919F918F913F912F910F90C8
:1009300000925B000F900FBE0F901F901895DF93F1
:10094000CF9300D000D000D0CDB7DEB76B837C83CF
:100950008D839E8381EC90E021EC30E0F9012081D1
:100960002860FC01208381EC90E021EC30E0F9016B
:1009700020812061FC0120838B819C81AD81BE811F
:10098000880F991FAA1FBB1F880F991FAA1FBB1F83
:10099000880F991FAA1FBB1F880F991FAA1FBB1F73
:1009A0009C01AD0180E094E2A4EFB0E0BC01CD0178
:1009B0000E948409DA01C90101979A83898385EC31
:1009C00090E029813A81232F330F330BFC012083E0
:1009D00084EC90E02981FC012083789481EC90E004
:1009E00021EC30E0F90120812068FC012083109285
:1009F000F7021092F6021092F5021092F402109291
:100A0000EF041092EE041092ED041092EC0426967E
:100A10000FB6F894DEBF0FBECDBFCF91DF91089522
:100A2000DF93CF930F92CDB7DEB789838091F40225
:100A30009091F5029C012F5F3F4F8091F6029091BB
:100A4000F7022817390771F08091F6029091F702AA
:100A5000009751F48091F4029091F50221E0833FD8
:100A6000920711F481E001C080E0882311F081E059
:100A70002CC08091F4029091F50280509F4F298103
:100A8000FC0120838091F4029091F50201969093ED
:100A9000F5028093F4028091F4029091F50221E036
:100AA000F1E0843F9F070CF420E0222321F0109214
:100AB000F5021092F40281EC90E021EC30E0F901B3
:100AC00020812062FC01208380E00F90CF91DF9194
:100AD0000895DF93CF930F92CDB7DEB72091EE0448
:100AE0003091EF048091EC049091ED0441E02817DF
:100AF000390709F040E0442311F080E023C08091E1
:100B0000EE049091EF0488509D4FFC018081898311
:100B10008091EE049091EF0401969093EF048093FE
:100B2000EE048091EE049091EF0421E0F1E0843F27
:100B30009F070CF420E0222321F01092EF04109282
:100B4000EE0489810F90CF91DF910895DF93CF93C9
:100B500000D000D0CDB7DEB79C838B831A82198278
:100B600018C02B813C8189819A81820F931FFC01DF
:100B700080810E941005982F81E0992309F480E07C
:100B8000882311F081E014C089819A8101969A83AB
:100B900089832B813C8189819A81820F931FFC017B
:100BA000908181E0992309F480E08823D1F680E0E8
:100BB0000F900F900F900F90CF91DF910895DF93DA
:100BC000CF93CDB7DEB72091EE043091EF04809142
:100BD000EC049091ED0441E02817390709F040E05A
:100BE000442311F080E001C081E0CF91DF910895AE
:100BF000DF93CF93CDB7DEB727970FB6F894DEBF5C
:100C00000FBECDBF9D838C837F836E831A82198232
:100C100041C02091EE043091EF048091EC0490915A
:100C2000ED0441E02817390709F040E0442311F0B2
:100C300081E03DC08091EE049091EF0488509D4F7B
:100C4000FC0180818B838091EE049091EF040196EA
:100C50009093EF048093EE048091EE049091EF0462
:100C600021E0F1E0843F9F070CF420E0222321F0F3
:100C70001092EF041092EE0489819A812C813D81BB
:100C8000820F931F2B81FC01208389819A81019619
:100C90009A83898341E029813A818E819F81281737
:100CA00039070CF040E0442309F0B3CF80E02796E9
:100CB0000FB6F894DEBF0FBECDBFCF91DF91089580
:100CC000DF93CF93CDB7DEB72091EE043091EF04E0
:100CD0008091EC049091ED0441E0821793070CF4AD
:100CE00040E0442369F02091EC043091ED048091C0
:100CF000EE049091EF04A901481B590BCA010EC0E4
:100D00008091EE049091EF0424EF31E0281B390B21
:100D10008091EC049091ED04820F931FCF91DF91AD
:100D20000895DF93CF9300D000D000D0CDB7DEB7C9
:100D30009C838B837E836D831A82198218C02B81DA
:100D40003C8189819A81820F931FFC0180810E94DE
:100D50001005982F81E0992309F480E0882311F091
:100D600081E011C089819A8101969A83898341E04B
:100D700029813A818D819E812817390708F040E04A
:100D80004423E9F680E026960FB6F894DEBF0FBE46
:100D9000CDBFCF91DF910895DF93CF93CDB7DEB76D
:100DA0008091EC049091ED049093EF048093EE0415
:100DB000CF91DF9108951F920F920FB60F9200907E
:100DC0005B000F9211242F933F938F939F93EF9388
:100DD000FF93DF93CF93CDB7DEB78091DC0890917E
:100DE000DD089C012F5F3F4F8091DE089091DF0866
:100DF0002817390771F08091DE089091DF0800977D
:100E000051F48091DC089091DD0821E0833F920746
:100E100011F481E001C080E0882329F08EEC90E09D
:100E2000FC01808125C08091DC089091DD082EECCA
:100E300030E0F90120818851994FFC012083809195
:100E4000DC089091DD0801969093DD088093DC0822
:100E50008091DC089091DD0821E0F1E0843F9F075C
:100E60000CF420E0222321F01092DD081092DC081F
:100E7000CF91DF91FF91EF919F918F913F912F91B2
:100E80000F9000925B000F900FBE0F901F9018956F
:100E9000DF93CF9300D000D000D0CDB7DEB76B8307
:100EA0007C838D839E8389EC90E029EC30E0F9010E
:100EB00020812860FC01208389EC90E029EC30E05F
:100EC000F90120812061FC0120838B819C81AD810F
:100ED000BE81880F991FAA1FBB1F880F991FAA1FC9
:100EE000BB1F880F991FAA1FBB1F880F991FAA1F1E
:100EF000BB1F9C01AD0180E094E2A4EFB0E0BC0117
:100F0000CD010E948409DA01C90101979A8389837E
:100F10008DEC90E029813A81232F330F330BFC01B4
:100F200020838CEC90E02981FC012083789489EC6B
:100F300090E029EC30E0F90120812068FC01208359
:100F40001092E7061092E6061092E5061092E4066B
:100F50001092DF081092DE081092DD081092DC0873
:100F600026960FB6F894DEBF0FBECDBFCF91DF91AE
:100F70000895DF93CF930F92CDB7DEB78983809129
:100F8000E4069091E5069C012F5F3F4F8091E606B5
:100F90009091E7062817390771F08091E606909145
:100FA000E706009751F48091E4069091E50621E070
:100FB000833F920711F481E001C080E0882311F0A3
:100FC00081E02CC08091E4069091E50680519B4F12
:100FD0002981FC0120838091E4069091E506019629
:100FE0009093E5068093E4068091E4069091E506EF
:100FF00021E0F1E0843F9F070CF420E0222321F060
:101000001092E5061092E40689EC90E029EC30E0BD
:10101000F90120812062FC01208380E00F90CF91B4
:10102000DF910895DF93CF930F92CDB7DEB7209174
:10103000DE083091DF088091DC089091DD0841E006
:101040002817390709F040E0442311F080E023C05D
:101050008091DE089091DF088851994FFC018081D2
:1010600089838091DE089091DF0801969093DF08D4
:101070008093DE088091DE089091DF0821E0F1E0A6
:10108000843F9F070CF420E0222321F01092DF0818
:101090001092DE0889810F90CF91DF910895DF9340
:1010A000CF9300D000D0CDB7DEB79C838B831A825C
:1010B000198218C02B813C8189819A81820F931FEC
:1010C000FC0180810E94B907982F81E0992309F4DF
:1010D00080E0882311F081E014C089819A81019613
:1010E0009A8389832B813C8189819A81820F931F06
:1010F000FC01908181E0992309F480E08823D1F6F6
:1011000080E00F900F900F900F90CF91DF91089596
:10111000DF93CF93CDB7DEB72091DE083091DF08A3
:101120008091DC089091DD0841E02817390709F02B
:1011300040E0442311F080E001C081E0CF91DF91D5
:101140000895DF93CF93CDB7DEB727970FB6F89406
:10115000DEBF0FBECDBF9D838C837F836E831A82DB
:10116000198241C02091DE083091DF088091DC08AF
:101170009091DD0841E02817390709F040E0442349
:1011800011F081E03DC08091DE089091DF08885128
:10119000994FFC0180818B838091DE089091DF085C
:1011A00001969093DF088093DE088091DE0890918D
:1011B000DF0821E0F1E0843F9F070CF420E02223C8
:1011C00021F01092DF081092DE0889819A812C812B
:1011D0003D81820F931F2B81FC01208389819A819D
:1011E00001969A83898341E029813A818E819F818A
:1011F000281739070CF040E0442309F0B3CF80E012
:1012000027960FB6F894DEBF0FBECDBFCF91DF910A
:101210000895DF93CF93CDB7DEB72091DE083091EC
:10122000DF088091DC089091DD0841E08217930788
:101230000CF440E0442369F02091DC083091DD0893
:101240008091DE089091DF08A901481B590BCA0163
:101250000EC08091DE089091DF0824EF31E0281B5A
:10126000390B8091DC089091DD08820F931FCF919C
:10127000DF910895DF93CF9300D000D000D0CDB799
:10128000DEB79C838B837E836D831A82198218C09C
:101290002B813C8189819A81820F931FFC0180817F
:1012A0000E94B907982F81E0992309F480E08823F0
:1012B00011F081E011C089819A8101969A83898316
:1012C00041E029813A818D819E812817390708F0F4
:1012D00040E04423E9F680E026960FB6F894DEBF9E
:1012E0000FBECDBFCF91DF910895DF93CF93CDB7E0
:1012F000DEB78091DC089091DD089093DF08809341
:10130000DE08CF91DF910895A1E21A2EAA1BBB1B24
:10131000FD010DC0AA1FBB1FEE1FFF1FA217B307C1
:10132000E407F50720F0A21BB30BE40BF50B661FD7
:10133000771F881F991F1A9469F76095709580959B
:1013400090959B01AC01BD01CF010895F894FFCFAA
:00000001FF
