:100000000C9456000C9475000C9475000C947500BB
:100010000C9475000C9475000C9475000C9475008C
:100020000C9475000C9475000C9475000C9475007C
:100030000C9475000C9475000C9475000C9475006C
:100040000C9475000C9475000C949D010C940002A6
:100050000C9475000C947C030C941A030C9475009A
:100060000C9475000C9475000C9475000C9475003C
:100070000C9475000C9475000C9475000C9475002C
:100080000C9425060C94B8020C9475000C94750021
:100090000C9475007E6E7F620C37260C37120C377D
:1000A0000E0C37060C37020C37000C3611241FBE1D
:1000B000CFEFD0E1DEBFCDBF11E0A0E0B1E0ECEFCB
:1000C000F5E100E00BBF02C007900D92AC30B10724
:1000D000D9F718E0ACE0B1E001C01D92AE3EB10727
:1000E000E1F70E94CE080C94FC0A0C9400008CB13D
:1000F0008295817091E089270895CF92DF92EF92E7
:10010000FF920F931F93CF93DF93CDB7DEB7C05409
:10011000D1090FB6F894DEBF0FBECDBF7C018E01B2
:100120000F5D1F4F80E2D8011D928A95E9F7B70154
:10013000C8010E94DE0AF80101900020E9F731971A
:10014000E01BF10B9F010AC0D801A20FB31F8C91D5
:100150008B3211F411E008C0215031091216130638
:100160009CF320E030E010E0BE016F5F7F4F80E243
:10017000DB011D928A95E9F740E050E06B0126C053
:10018000C701820F931FDC018C91982F90539A30F6
:1001900090F41123C9F0C601840F951F61E270E04D
:1001A0006C0F7D1F620F731FDB016C91DC016C9380
:1001B0004F5F5F4F09C08C3419F4112329F01DC023
:1001C000883411F411111EC02F5F3F4F2E173F07C7
:1001D000B8F280E091E00E949907CE0101960E945A
:1001E0009907112399F0CE0101960E94B30A8C0160
:1001F000222717FD2095322F0CC001E010E020E0EF
:1002000030E007C00FEF1FEF980103C000E010E0DF
:100210009801B801C901C05CDF4F0FB6F894DEBF8A
:100220000FBECDBFDF91CF911F910F91FF90EF9047
:10023000DF90CF9008958091EC08882379F080E0DA
:10024000982F9295907F9093ED009091EF00907C85
:1002500031F08F5F8F30A1F78FEF08958FEF089502
:10026000883070F49091DE0021E030E002C0220F6F
:10027000331F8A95E2F7209529232093DE00089505
:100280004091DF0090E0089721E030E002C0220FAB
:10029000331F8A95E2F7209524232093DF000895E9
:1002A000883068F49091DE0021E030E002C0220F37
:1002B000331F8A95E2F7922B9093DE0008954091C8
:1002C000DF0090E0089721E030E002C0220F331FEA
:1002D0008A95E2F7422B4093DF000895883058F565
:1002E0009091D80091609093D80093E0899FC001CD
:1002F0001124FC01EC56FF4FE491E093E200FC0175
:10030000EB56FF4FE491E093E3008A569F4FFC01C8
:1003100084918093E4001092DA0080EB8093DB00FC
:1003200087EC8093E5008FEF0E940A0282E08093C1
:10033000D80081E0089580E008951F920F920FB6D3
:100340000F9211242F933F934F935F938F939F931B
:100350008091EC00807F803F09F443C04091ED0024
:100360008091EC00807F8093ED002091EC0022953D
:100370002F708091EE0086FF0CC08091EE001092ED
:10038000EE001092EF008091EC088F5F8093EC08F4
:1003900005C08091ED088F5F8093ED08283070F4E0
:1003A0003091DE0081E090E002C0880F991F2A950D
:1003B000E2F7809583238093DE0010C05091DF0028
:1003C00030E02850304081E090E002C0880F991F53
:1003D0002A95E2F7809585238093DF004093ED0016
:1003E00004C08091DA008093DA009F918F915F9131
:1003F0004F913F912F910F900FBE0F901F90189526
:100400001F920F920FB60F9211240F900FBE0F90F4
:100410001F9018958F30E8F08F3F09F04EC0109272
:10042000DF001092DE0080E0982F9295907F9093ED
:10043000ED009091EF001092EF009091EE0010927D
:10044000EE008F5F8F3081F71092ED088093EC08FB
:1004500032C090E89093D8009091D90093FDFCCFE2
:100460001092D8009091D90092FDFCCF982F9295D0
:10047000907F9093ED009091EE001092EE0010921C
:10048000EF000E9430019091ED0080E0282F22952E
:10049000207F2093ED002091EF002093EF008F5FED
:1004A0008F30A1F79093ED0082E08093D800809187
:1004B000D90082FFFCCF81E0089580E00895FC011F
:1004C00083818093EF001092F0001092F100808100
:1004D0008295880F807E8093F2008081918123E055
:1004E000969587952A95E1F78093F300828180FFA6
:1004F00006C08091F00084608093F0000895CF01E1
:100500000496DC0103C02D912093FA003A2F381B8A
:1005100023813217C0F308951F93CF93DF93EC012B
:100520000E941B01182F8F30F0F48295807F8093FA
:10053000ED008091EE001092EE00CE010E945F026D
:10054000812F0E9450019FB7F8948091EC08815050
:100550008093EC089FBF8091EF0080648093EF0050
:10056000812F8F5F01C080E0DF91CF911F910895AF
:100570001F920F920FB60F9200905B000F92112402
:100580002F933F934F938F939F93EF93FF93DF931B
:10059000CF93CDB7DEB72091F2063091F30680916C
:1005A000F0069091F10641E02817390709F040E084
:1005B000442351F089EC90E029EC30E0F9012081EE
:1005C0002F7DFC01208325C08EEC90E02091F20667
:1005D0003091F30624503B4FF9012081FC01208328
:1005E0008091F2069091F30601969093F306809322
:1005F000F2068091F2069091F30621E0F1E0843F4B
:100600009F070CF420E0222321F01092F3061092B1
:10061000F206CF91DF91FF91EF919F918F914F91D2
:100620003F912F910F9000925B000F900FBE0F90A3
:100630001F9018951F920F920FB60F9200905B00BB
:100640000F9211242F933F934F938F939F93EF9388
:10065000FF93DF93CF93CDB7DEB7209102033091A4
:100660000303809100039091010341E028173907AB
:1006700009F040E0442351F081EC90E021EC30E0BF
:10068000F90120812F7DFC01208325C086EC90E0BC
:100690002091020330910303245F3E4FF901208132
:1006A000FC012083809102039091030301969093B3
:1006B000030380930203809102039091030321E0DE
:1006C000F1E0843F9F070CF420E0222321F01092F8
:1006D000030310920203CF91DF91FF91EF919F915D
:1006E0008F914F913F912F910F9000925B000F904F
:1006F0000FBE0F901F9018951F920F920FB60F927A
:1007000000905B000F9211242F933F938F939F9340
:10071000EF93FF93DF93CF93CDB7DEB78091F804CB
:100720009091F9049C012F5F3F4F8091FA049091C2
:10073000FB042817390771F08091FA049091FB04AB
:10074000009751F48091F8049091F90421E0833FDF
:10075000920711F481E001C080E0882329F086EC43
:1007600090E0FC01808125C08091F8049091F9040B
:1007700026EC30E0F90120818C5F9C4FFC01208346
:100780008091F8049091F90401969093F904809374
:10079000F8048091F8049091F90421E0F1E0843F9D
:1007A0009F070CF420E0222321F01092F90410920C
:1007B000F804CF91DF91FF91EF919F918F913F913D
:1007C0002F910F9000925B000F900FBE0F901F9023
:1007D0001895DF93CF9300D000D000D0CDB7DEB70F
:1007E0006B837C838D839E8381EC90E021EC30E0F1
:1007F000F90120812860FC01208381EC90E021EC4C
:1008000030E0F90120812061FC0120838B819C81F3
:10081000AD81BE81880F991FAA1FBB1F880F991F2A
:10082000AA1FBB1F880F991FAA1FBB1F880F991FE4
:10083000AA1FBB1F9C01AD0180E094E2A4EFB0E0D1
:10084000BC01CD010E94910ADA01C90101979A8386
:10085000898385EC90E029813A81232F330F330B74
:10086000FC01208384EC90E02981FC0120837894B2
:1008700081EC90E021EC30E0F90120812068FC015E
:10088000208310920303109202031092010310922E
:1008900000031092FB041092FA041092F9041092D3
:1008A000F80426960FB6F894DEBF0FBECDBFCF91E9
:1008B000DF910895DF93CF930F92CDB7DEB7898391
:1008C00080910003909101039C012F5F3F4F809125
:1008D0000203909103032817390771F080910203F6
:1008E00090910303009751F48091000390910103CC
:1008F00021E0833F920711F481E001C080E088236A
:1009000011F081E02CC08091000390910103845F7D
:100910009E4F2981FC012083809100039091010367
:1009200001969093010380930003809100039091BE
:10093000010321E0F1E0843F9F070CF420E0222333
:1009400021F0109201031092000381EC90E021EC61
:1009500030E0F90120812062FC01208380E00F90CB
:10096000CF91DF910895DF93CF930F92CDB7DEB78C
:100970002091FA043091FB048091F8049091F904DD
:1009800041E02817390709F040E0442311F080E0E6
:1009900023C08091FA049091FB048C5F9C4FFC0172
:1009A000808189838091FA049091FB040196909351
:1009B000FB048093FA048091FA049091FB0421E0F7
:1009C000F1E0843F9F070CF420E0222321F01092F5
:1009D000FB041092FA0489810F90CF91DF91089562
:1009E000DF93CF9300D000D0CDB7DEB79C838B834D
:1009F0001A82198218C02B813C8189819A81820FC9
:100A0000931FFC0180810E945A04982F81E0992352
:100A100009F480E0882311F081E014C089819A8173
:100A200001969A8389832B813C8189819A81820FE7
:100A3000931FFC01908181E0992309F480E08823D1
:100A4000D1F680E00F900F900F900F90CF91DF9133
:100A50000895DF93CF93CDB7DEB72091FA0430919C
:100A6000FB048091F8049091F90441E028173907BC
:100A700009F040E0442311F080E001C081E0CF9113
:100A8000DF910895DF93CF93CDB7DEB727970FB6E9
:100A9000F894DEBF0FBECDBF9D838C837F836E83B2
:100AA0001A82198241C02091FA043091FB0480918E
:100AB000F8049091F90441E02817390709F040E063
:100AC000442311F081E03DC08091FA049091FB0431
:100AD0008C5F9C4FFC0180818B838091FA04909104
:100AE000FB0401969093FB048093FA048091FA042E
:100AF0009091FB0421E0F1E0843F9F070CF420E09B
:100B0000222321F01092FB041092FA0489819A8129
:100B10002C813D81820F931F2B81FC0120838981D1
:100B20009A8101969A83898341E029813A818E8155
:100B30009F81281739070CF040E0442309F0B3CF18
:100B400080E027960FB6F894DEBF0FBECDBFCF91E1
:100B5000DF910895DF93CF93CDB7DEB72091FA04EC
:100B60003091FB048091F8049091F90441E08217E0
:100B700093070CF440E0442369F02091F80430918D
:100B8000F9048091FA049091FB04A901481B590BC8
:100B9000CA010EC08091FA049091FB0424EF31E069
:100BA000281B390B8091F8049091F904820F931F50
:100BB000CF91DF910895DF93CF9300D000D000D084
:100BC000CDB7DEB79C838B837E836D831A821982B7
:100BD00018C02B813C8189819A81820F931FFC016F
:100BE00080810E945A04982F81E0992309F480E0C3
:100BF000882311F081E011C089819A8101969A833E
:100C0000898341E029813A818D819E8128173907A6
:100C100008F040E04423E9F680E026960FB6F89409
:100C2000DEBF0FBECDBFCF91DF910895DF93CF938D
:100C3000CDB7DEB78091F8049091F9049093FB044E
:100C40008093FA04CF91DF9108951F920F920FB60F
:100C50000F9200905B000F9211242F933F938F937C
:100C60009F93EF93FF93DF93CF93CDB7DEB7809140
:100C7000E8089091E9089C012F5F3F4F8091EA08B6
:100C80009091EB082817390771F08091EA0890914C
:100C9000EB08009751F48091E8089091E90821E071
:100CA000833F920711F481E001C080E0882329F09E
:100CB0008EEC90E0FC01808125C08091E808909145
:100CC000E9082EEC30E0F90120818C50994FFC01AD
:100CD00020838091E8089091E90801969093E908B3
:100CE0008093E8088091E8089091E90821E0F1E01C
:100CF000843F9F070CF420E0222321F01092E908A2
:100D00001092E808CF91DF91FF91EF919F918F9121
:100D10003F912F910F9000925B000F900FBE0F90AC
:100D20001F901895DF93CF9300D000D000D0CDB79F
:100D3000DEB76B837C838D839E8389EC90E029EC06
:100D400030E0F90120812860FC01208389EC90E0EB
:100D500029EC30E0F90120812061FC0120838B81A6
:100D60009C81AD81BE81880F991FAA1FBB1F880F70
:100D7000991FAA1FBB1F880F991FAA1FBB1F880F8F
:100D8000991FAA1FBB1F9C01AD0180E094E2A4EF54
:100D9000B0E0BC01CD010E94910ADA01C9010197BE
:100DA0009A8389838DEC90E029813A81232F330F38
:100DB000330BFC0120838CEC90E02981FC01208323
:100DC000789489EC90E029EC30E0F90120812068EA
:100DD000FC0120831092F3061092F2061092F106A5
:100DE0001092F0061092EB081092EA081092E908AF
:100DF0001092E80826960FB6F894DEBF0FBECDBF5E
:100E0000CF91DF910895DF93CF930F92CDB7DEB7E7
:100E100089838091F0069091F1069C012F5F3F4FEE
:100E20008091F2069091F3062817390771F08091AE
:100E3000F2069091F306009751F48091F00690919C
:100E4000F10621E0833F920711F481E001C080E0C8
:100E5000882311F081E02CC08091F0069091F1067A
:100E600084509B4F2981FC0120838091F006909152
:100E7000F10601969093F1068093F0068091F006BA
:100E80009091F10621E0F1E0843F9F070CF420E00F
:100E9000222321F01092F1061092F00689EC90E0E6
:100EA00029EC30E0F90120812062FC01208380E000
:100EB0000F90CF91DF910895DF93CF930F92CDB72D
:100EC000DEB72091EA083091EB088091E808909114
:100ED000E90841E02817390709F040E0442311F000
:100EE00080E023C08091EA089091EB088C50994FE4
:100EF000FC01808189838091EA089091EB0801963A
:100F00009093EB088093EA088091EA089091EB08AF
:100F100021E0F1E0843F9F070CF420E0222321F040
:100F20001092EB081092EA0889810F90CF91DF911F
:100F30000895DF93CF9300D000D0CDB7DEB79C8368
:100F40008B831A82198218C02B813C8189819A81F6
:100F5000820F931FFC0180810E940307982F81E07C
:100F6000992309F480E0882311F081E014C089817D
:100F70009A8101969A8389832B813C8189819A8108
:100F8000820F931FFC01908181E0992309F480E096
:100F90008823D1F680E00F900F900F900F90CF91A3
:100FA000DF910895DF93CF93CDB7DEB72091EA08A4
:100FB0003091EB088091E8089091E90841E028170A
:100FC000390709F040E0442311F080E001C081E0DE
:100FD000CF91DF910895DF93CF93CDB7DEB72797F9
:100FE0000FB6F894DEBF0FBECDBF9D838C837F8389
:100FF0006E831A82198241C02091EA083091EB0871
:101000008091E8089091E90841E02817390709F034
:1010100040E0442311F081E03DC08091EA089091C6
:10102000EB088C50994FFC0180818B838091EA08FA
:101030009091EB0801969093EB088093EA088091D9
:10104000EA089091EB0821E0F1E0843F9F070CF45F
:1010500020E0222321F01092EB081092EA08898107
:101060009A812C813D81820F931F2B81FC0120836B
:1010700089819A8101969A83898341E029813A8105
:101080008E819F81281739070CF040E0442309F036
:10109000B3CF80E027960FB6F894DEBF0FBECDBF6A
:1010A000CF91DF910895DF93CF93CDB7DEB7209135
:1010B000EA083091EB088091E8089091E90841E056
:1010C000821793070CF440E0442369F02091E8086C
:1010D0003091E9088091EA089091EB08A901481B3A
:1010E000590BCA010EC08091EA089091EB0824EFD9
:1010F00031E0281B390B8091E8089091E908820FB4
:10110000931FCF91DF910895DF93CF9300D000D04C
:1011100000D0CDB7DEB79C838B837E836D831A822C
:10112000198218C02B813C8189819A81820F931F7B
:10113000FC0180810E940307982F81E0992309F424
:1011400080E0882311F081E011C089819A810196A5
:101150009A83898341E029813A818D819E81281774
:10116000390708F040E04423E9F680E026960FB600
:10117000F894DEBF0FBECDBFCF91DF910895DF930E
:10118000CF93CDB7DEB78091E8089091E9089093AE
:10119000EB088093EA08CF91DF910895CF93DF9316
:1011A000CDB7DEB7CE5DD1090FB6F894DEBF0FBE66
:1011B000CDBF6C9887E090E00E946E01789460E06B
:1011C00076E980E090E00E94E90360E076E980E063
:1011D00090E00E949206FE01EF57FF4F80E2DF0190
:1011E000282F1D922A95E9F7B096DF011D928A9566
:1011F000E9F780E090E012C0FB01E20FF31F1082DC
:10120000FA01E20FF31F10822F5F3F4F20323105AA
:1012100099F780968034910509F448C020E030E0C9
:1012200061E470E06C0F7D1F680F791F41E050E0B2
:101230004C0F5D1F480F591FDFCF0E94B304F80108
:10124000E20DF11D80838B3249F18D3629F5C252B2
:10125000DF4F2881CE5DD0402223F1F00E94B304FD
:10126000D501E0E21D92EA95E9F7422D50E0B80180
:10127000C5010E94E50AD801E0E21D92EA95E9F76E
:10128000C252DF4F1882CE5DD04021E0C552DF4F01
:101290002883CB5DD040212C239437C021E0C2525B
:1012A000DF4F2883CE5DD040212C2FC0C352DF4FAB
:1012B0001882CD5DD040C252DF4F1882CE5DD04043
:1012C000C452DF4F1882CC5DD040C552DF4F188228
:1012D000CB5DD040312C212CC12CD12C7601412C5E
:1012E000512C32018E010F5B1F4F580180E2A80E76
:1012F000B11CDE011196C752DF4FB983A883C95DC7
:10130000D0404E01B1E28B0E911C0E942905811143
:1013100094CFC552DF4F2881CB5DD040222309F402
:101320005EC0A2968FADA2978C3429F0883439F034
:10133000863451F404C0412C512C320150C0442455
:101340004A94542C32014BC0C5010E94B30A2C01AF
:10135000662457FC6094762C42C00E945C07E1E052
:10136000F0E0EC0FFD1FE30DF11D80838B3281F166
:101370008D3661F5C352DF4F2881CD5DD0402223E9
:1013800029F10E945C07D401E0E21D92EA95E9F799
:10139000432D50E0BE016F5F7F4FC4010E94E50AFC
:1013A000C752DF4FA881B981C95DD040E0E21D92EC
:1013B000EA95E9F7C352DF4F1882CD5DD04021E0B6
:1013C000C452DF4F2883CC5DD040312C339407C00A
:1013D00021E0C352DF4F2883CD5DD040312C0E94E5
:1013E000D2078111BACFC452DF4F2881CC5DD040E3
:1013F000222309F485C089A18C3409F489C088347A
:1014000009F48AC0863409F487C0C4010E94B30A73
:101410006C01EE24D7FCE094FE2C84E690E0C353EC
:10142000DF4F99838883CD5CD040C153DF4F8881E3
:10143000CF5CD0408E7FC153DF4F8883CF5CD040DC
:1014400087E0C053DF4F8883C05DD0408CE0FE0151
:10145000E353FF4FDE01AF53BF4F01900D928A95CA
:10146000E1F7CF52DF4F4882C15DD040CE52DF4F0F
:101470005882C25DD040CD52DF4F6882C35DD040FC
:10148000CC52DF4FC882C45DD040CB52DF4FD882F0
:10149000C55DD040CA52DF4FE882C65DD0400E9491
:1014A0007700C952DF4F8883C75DD040C852DF4FF5
:1014B0001882C85DD0404CE050E0BE016F537F4FB2
:1014C000CE0183539F4F0E94D10A009729F0CE018D
:1014D00083539F4F0E948C028FEF96E7A1E08150CB
:1014E0009040A040E1F700C00000C452DF4F1882D6
:1014F000CC5DD040C552DF4F1882CB5DD04005CFC8
:10150000C552DF4F2881CB5DD040211186CFFDCE63
:10151000C12CD12C760181CFCC24CA94DC2C76014D
:101520007CCFA1E21A2EAA1BBB1BFD010DC0AA1F76
:10153000BB1FEE1FFF1FA217B307E407F50720F03C
:10154000A21BB30BE40BF50B661F771F881F991FB7
:101550001A9469F760957095809590959B01AC0100
:10156000BD01CF010895FC0188279927E8942191B6
:101570002032E9F3293010F02E30C8F32B3241F03D
:101580002D3239F4689404C00E94F40A820F911D30
:10159000219120532A30C0F31EF4909581959F4FDE
:1015A0000895FB01DC0104C08D910190801921F4A4
:1015B00041505040C8F7881B990B0895FB01DC018E
:1015C00001900D920020E1F70895FB01DC014150EC
:1015D000504048F001900D920020C9F701C01D92C3
:1015E00041505040E0F708957AE0979F902D879FF3
:0C15F000802D910D11240895F894FFCF78
:0C15FC000D0A76616C7374723A200000D6
:00000001FF
