:100000000C9444000C944E000C944E000C944E0042
:100010000C944E000C944E000C944E000C944E0028
:100020000C944E000C944E000C944E000C944E0018
:100030000C944E000C944E000C944E000C944E0008
:100040000C944E000C944E000C944E000C944E00F8
:100050000C944E000C944E000C944E000C944E00E8
:100060000C944E000C944E000C944E000C944E00D8
:1000700004B6E704B6D304B6C704B6C302900703B8
:10008000AC8103AC8002900011241FBECFEFD0E101
:10009000DEBFCDBF0E9450000C94E7010C9400001D
:1000A0000F931F93DF93CF93CDB7DEB72C970FB687
:1000B000F894DEBF0FBECDBF83E090E00E94E50064
:1000C0000E947A0080E061E00E947D008FEF9FEF48
:1000D000ACE281509040A040E1F700C0000081E018
:1000E00060E00E947D008E010F5F1F4FC8010E94DB
:1000F0005401FCCF83E084B90895882329F0289A1D
:10010000662329F42998089528986623D9F3299A13
:100110000895882321F085B191E0892785B9662368
:1001200021F085B192E0892785B908951F93DF9367
:10013000CF930F92CDB7DEB7182F2C9882E069834A
:100140000E94E101812F0E94E1016981862F0E94B6
:10015000E1012C9A0F90CF91DF911F9108951F9389
:10016000182F2C9883E00E94E101812F0E94E10169
:100170008FEF0E94E1012C9A1F9108951F93DF9346
:10018000CF9300D0CDB7DEB7182F2C9885E04A83E7
:1001900069830E94E101812F0E94E1016981862F1C
:1001A0000E94E1014A81842F0E94E1012C9A0F9064
:1001B0000F90CF91DF911F9108952C980E94E1013B
:1001C0008FEF0E94E1012C9A0895EF92FF920F9316
:1001D0001F93DF93CF930F92CDB7DEB7182F8830E0
:1001E00008F059C02C9A249A2F982D982E98279A67
:1001F000259A26980E94DC012C9880EC0E94E1014F
:100200008FE99FE00197F1F700C000002C9AEFE31F
:10021000FCE93197F1F700C000002C9882E00E94C1
:10022000E10188E20E94E10183E0189F700111243E
:10023000870100591F4F90E0F801849199830E9433
:10024000E10199819F5F0F5F1F4F9330A9F783E012
:100250000E94E1012C9A8DE060E00E9496002298B5
:100260002A9A8CE060E00E94960089E20E94AF002A
:10027000182FC7018F589F4FFC0104918FE060E059
:100280000E949600101739F48EE00E94AF00807E25
:10029000D9F781E001C080E00F90CF91DF911F91ED
:1002A0000F91FF90EF900895FF920F931F93CF93BC
:1002B000DF93EC0180EA0E94DD0082FF06C084FF2C
:1002C00006C086FD35C014E003C010E001C012E096
:1002D0002C98812F80640E94E1016C816695617089
:1002E000CE010E94A0010D810F708C8180FF05C09E
:1002F000802F80640E94E1010CC0802F0E94E101E8
:100300002696FF2404C089910E94E101F394F0161F
:10031000D0F32C9A85E08A95F1F700002C981123F0
:1003200009F411E0812F80680E94E1012C9A01C03C
:1003300010E0812FDF91CF911F910F91FF900895D1
:10034000CF93DF93EC016623E1F08A819B8135E056
:10035000969587953A95E1F78EBD9A81892F880FFA
:10036000880F880F807E88609370892B0DB407FEFC
:10037000FDCF9EB50E94E10189810E94E101888143
:1003800016C08881998123E0969587952A95E1F793
:100390008EBD88818295880F807E0DB407FEFDCFCB
:1003A0009EB50E94E10180E00E94E10180E00E9490
:1003B000E101DF91CF91089581E58CBD81E08DBD94
:1003C00008958EBD0DB407FEFDCF8EB50895F89447
:0203D000FFCF5D
:00000001FF
