:100000000C9456000C9475000C9475000C947500BB
:100010000C9475000C9475000C9475000C9475008C
:100020000C9475000C9475000C9475000C9475007C
:100030000C9475000C9475000C9475000C9477006A
:100040000C9475000C9475000C9443020C94A60259
:100050000C9475000C9475000C9475000C9475004C
:100060000C9475000C9475000C9475000C9475003C
:100070000C9475000C9475000C9475000C9475002C
:100080000C9475000C9475000C9475000C9475001C
:100090000C9475007E6E7F620C37260C37120C377D
:1000A0000E0C37060C37020C37000C3611241FBE1D
:1000B000CFEFD0E1DEBFCDBF11E0A8E0B1E001C0DD
:1000C0001D92AB30B107E1F711E0A0E0B1E0EAE941
:1000D000F2E100E00BBF02C007900D92A830B1071B
:1000E000D9F70E948C000C944B090C9400001F92CD
:1000F0000F920FB60F9211248F93DF93CF93CDB74A
:10010000DEB781E080930801CF91DF918F910F904E
:100110000FBE0F901F9018950F931F93DF93CF93EF
:10012000CDB7DEB7A4970FB6F894DEBF0FBECDBF34
:1001300083E090E00E94140281E890E09D8B8C8B1C
:1001400080EE97E09F8B8E8B888D8C7F888F9E01B1
:100150002C5E3F4F80E0B9010E94050387E290E0EA
:10016000FC01108281E290E0FC0110828DE290E0BF
:10017000FC01108278948FEF89838FEF8A838FEF51
:100180008B831092080184E890E020E033E8FC01C2
:10019000318320838FE690E02FE630E0F901208163
:1001A0002160FC01208381E890E021E830E0F90142
:1001B00020812160FC01208315C086E290E0FC01D3
:1001C000808199818923898380E290E0FC0180818C
:1001D0009A8189238A838CE290E0FC0180819B8153
:1001E00089238B839091080181E0992309F080E0B5
:1001F000882319F78FE690E02FE630E0F90120819F
:100200002E7FFC01208381E890E021E830E0F901B5
:1002100020812E7FFC0120838B8D8E7F8B8F89E246
:1002200091E09A8F898F88E08C8F89818D8F8A8168
:100230008E8F8B818F8F83E090E09D838C830FC0A6
:100240009E01235E3F4F8C819D81820F931F2FEF74
:10025000FC0120838C819D8101969D838C8321E00C
:100260008C819D81883091050CF020E0222341F79C
:10027000CE0149960E94A80380E090E0A0E8BFE389
:100280008E839F83A887B9876E817F8188859985B2
:1002900020E030E04AE755E40E94A805DC01CB01EC
:1002A0008A879B87AC87BD8711E06A857B858C85B3
:1002B0009D8520E030E040E85FE30E94020788234C
:1002C0000CF010E0112329F081E090E09F878E87E9
:1002D0004AC011E06A857B858C859D8520E03FEFD3
:1002E0004FE757E40E94A20618160CF010E0112305
:1002F00081F16E817F818885998520E030E040E240
:1003000051E40E94A805DC01CB01BC01CD010E9493
:10031000D403DC01CB019F878E8712C080E991E076
:10032000998B888B888999898C01C8010197F1F78D
:100330008C01198B088B8E859F8501979F878E87EF
:1003400021E08E859F85009709F420E0222331F774
:1003500012CF6A857B858C859D850E94D403DC0144
:10036000CB019F878E878E859F859B8B8A8B8A8901
:100370009B898C01F8013197F1F78F011B8B0A8B58
:10038000FACE80910901882379F080E0982F929528
:10039000907F9093ED009091EF00907C31F08F5F13
:1003A0008F30A1F78FEF08958FEF0895883070F4A4
:1003B0009091DE0021E030E002C0220F331F8A95C9
:1003C000E2F7209529232093DE0008954091DF0075
:1003D00090E0089721E030E002C0220F331F8A9599
:1003E000E2F7209524232093DF000895883068F4F5
:1003F0009091DE0021E030E002C0220F331F8A9589
:10040000E2F7922B9093DE0008954091DF0090E098
:10041000089721E030E002C0220F331F8A95E2F7EF
:10042000422B4093DF000895883058F59091D80012
:1004300091609093D80093E0899FC0011124FC0142
:10044000EC56FF4FE491E093E200FC01EB56FF4FC6
:10045000E491E093E3008A569F4FFC0184918093DE
:10046000E4001092DA0080EB8093DB0087EC80934D
:10047000E5008FEF0E94B00282E08093D80081E017
:10048000089580E008951F920F920FB60F921124E5
:100490002F933F934F935F938F939F938091EC00A3
:1004A000807F803F09F443C04091ED008091EC00D3
:1004B000807F8093ED002091EC0022952F70809139
:1004C000EE0086FF0CC08091EE001092EE001092BC
:1004D000EF00809109018F5F8093090105C0809131
:1004E0000A018F5F80930A01283070F43091DE009A
:1004F00081E090E002C0880F991F2A95E2F780956D
:1005000083238093DE0010C05091DF0030E028503C
:10051000304081E090E002C0880F991F2A95E2F7F1
:10052000809585238093DF004093ED0004C0809187
:10053000DA008093DA009F918F915F914F913F9104
:100540002F910F900FBE0F901F9018951F920F9232
:100550000FB60F9211240F900FBE0F901F90189599
:100560008F30E8F08F3F09F04EC01092DF001092FC
:10057000DE0080E0982F9295907F9093ED0090910F
:10058000EF001092EF009091EE001092EE008F5F5E
:100590008F3081F710920A018093090132C090E8F0
:1005A0009093D8009091D90093FDFCCF1092D80081
:1005B0009091D90092FDFCCF982F9295907F9093C7
:1005C000ED009091EE001092EE001092EF000E946C
:1005D000D6019091ED0080E0282F2295207F209376
:1005E000ED002091EF002093EF008F5F8F30A1F797
:1005F0009093ED0082E08093D8008091D90082FF33
:10060000FCCF81E0089580E00895FB018F3008F071
:1006100070C090E89093D8009091D90093FDFCCFE2
:100620001092D8009091D90092FDFCCF982F92950E
:10063000907F9093ED001092EE001092EF001092D8
:10064000F0001092F10090819295990F907E909316
:10065000F2002081318143E0369527954A95E1F7F4
:100660002093F30091E09093F4001092F5009281B2
:100670009295990F907E9093F6002281338193E0BA
:10068000369527959A95E1F72093F700948193701A
:1006900091FF0EC09091F40094609093F4009481C7
:1006A000937090FF05C09091F00094609093F000DB
:1006B0009091EF0090689093EF000E94F601909166
:1006C000ED0080E0282F2295207F2093ED002091DF
:1006D000EF002093EF008F5F8F30A1F79093ED0034
:1006E00082E08093D8008091D90082FFFCCF81E026
:1006F000089580E00895FC0183818093EF001092BB
:10070000F0001092F10080818295880F807E8093A6
:10071000F2008081918123E0969587952A95E1F7F3
:100720008093F300828180FF06C08091F000846096
:100730008093F0000895CF010496DC0103C02D9151
:100740002093FA003A2F381B23813217C0F3089503
:100750001F93CF93DF93EC010E94C101182F8F30BC
:10076000F0F48295807F8093ED008091EE001092EE
:10077000EE00CE010E947B03812F0E94F6019FB7FD
:10078000F894809109018150809309019FBF809165
:10079000EF0080648093EF00812F8F5F01C080E0C5
:1007A000DF91CF911F910895EF92FF920F931F93C6
:1007B0007B018C0120E030E040E05FE40E94D20643
:1007C00087FD11C0C801B70120E030E040E05FE4E0
:1007D0000E9477050E9432079B01AC0120503040F7
:1007E0004040504806C0C801B7010E9432079B0133
:1007F000AC01B901CA011F910F91FF90EF900895CC
:10080000A0E0B0E0E6E0F4E00C941809FC01EA0195
:100810008081823008F438C1DB019C91923008F469
:1008200030C1843059F4943009F02EC19181119671
:100830008C911197981709F021C126C1943009F4C1
:1008400020C19230B1F4823009F01EC1CA01AF015B
:1008500028E0DA010D90AD01DC010D92CD012150AF
:10086000C1F7DB0111968C911197918189238983BE
:100870000AC1823009F405C1C280D380DB0112961F
:100880006D907C9013972481358146815781149611
:10089000ED90FD900D911C911797C601861997094F
:1008A0005C0197FF04C0AA24BB24A81AB90AB0E2CD
:1008B000AB16B1040CF061C0181619066CF53701BF
:1008C00048010A2C04C096948794779467940A94FC
:1008D000D2F781E090E0A0E0B0E00A2C04C0880FDD
:1008E000991FAA1FBB1F0A94D2F70197A109B1094A
:1008F0008E219F21A023B123EE24FF248701E394BE
:100900000097A105B10519F4EE24FF248701E6281C
:10091000F728082919293CC00097D1F1CA0CDB1C23
:1009200039014A010A2C04C09694879477946794FD
:100930000A94D2F781E090E0A0E0B0E00A2C04C075
:10094000880F991FAA1FBB1F0A94D2F70197A1090C
:10095000B10982239323A423B52321E030E040E0B2
:1009600050E00097A105B10519F420E030E0A9019D
:1009700026293729482959290BC06C147D0424F4F1
:10098000EE24FF24870104C0630120E030E0A901C8
:100990008181FB019181891709F445C0882349F0C1
:1009A000D801C701821B930BA40BB50B9C01AD01B1
:1009B00004C02E193F09400B510B57FD04C019828A
:1009C000DB82CA820BC081E08983DB82CA825095B8
:1009D0004095309521953F4F4F4F5F4F2C833D837E
:1009E0004E835F830DC0880F991FAA1FBB1F8C8386
:1009F0009D83AE83BF838A819B8101979B838A837A
:100A00008C819D81AE81BF819C01AD012150304020
:100A1000404050402F3FEFEF3E07EFEF4E07EFE330
:100A20005E0708F30BC08983DB82CA822E0D3F1D4F
:100A3000401F511F2C833D834E835F8383E0888357
:100A40002C813D814E815F8157FF1DC0DA01C901B4
:100A500081709070A070B070569547953795279526
:100A6000822B932BA42BB52B8C839D83AE83BF83CA
:100A70008A819B8101969B838A8305C0E0E0F1E037
:100A800003C0FB0101C0FE01CF01CDB7DEB7EEE030
:100A90000C943409A0E2B0E0E0E5F5E00C94200904
:100AA00069837A838B839C832D833E834F8358870E
:100AB00089E0E82EF12CEC0EFD1ECE010196B70167
:100AC0000E9452088E010F5E1F4FCE010596B8019D
:100AD0000E945208C701B801AE01475E5F4F0E94F5
:100AE00000040E948407A096E6E00C943C09A0E272
:100AF000B0E0EDE7F5E00C94200969837A838B83FD
:100B00009C832D833E834F8358878E01075F1F4F41
:100B1000CE010196B8010E94520891E1E92EF12C14
:100B2000EC0EFD1ECE010596B7010E9452088A897F
:100B300091E089278A8BC801B701AE01475E5F4FFC
:100B40000E9400040E948407A096E6E00C943C09F1
:100B5000A0E2B0E0EEEAF5E00C94140969837A8330
:100B60008B839C832D833E834F835887CE010196D0
:100B7000BE01675F7F4F0E945208CE010596BE01FD
:100B80006F5E7F4F0E9452089985923078F0898974
:100B90008230C0F0943019F4823041F4CBC08430FC
:100BA00019F4923079F4C6C0923051F481E02A856C
:100BB0009A89291709F480E08A87CE010996BCC07A
:100BC000823051F481E02A859A89291709F480E05E
:100BD0008A8BCE014196B0C06D847E848F849888C4
:100BE000ED88FE880F89188DE0E2F0E080E090E06B
:100BF000DC01AA24BB24650120E030E0A901B30197
:100C00006170707061157105D1F02E0D3F1D401F90
:100C1000511F15012601280E391E4A1E5B1E81E058
:100C200090E0A0E0B0E02E153F054007510718F016
:100C300080E090E0DC01820D931DA41DB51DAA0C7F
:100C4000BB1CCC1CDD1C17FF09C061E0262E312C1B
:100C5000412C512CA228B328C428D528319749F01B
:100C6000EE0CFF1C001F111F9694879477946794D5
:100C7000C6CF6B897C89EB85FC856E0F7F1F6E5F0D
:100C80007F4F7C8F6B8F61E0EA857A89E71709F4E3
:100C900060E06A8F6B8D7C8D10C0FC01E170F0709C
:100CA000309729F056954795379527955068B69512
:100CB000A795979587956F5F7F4FB7FDEECF0CC0D7
:100CC000880F991FAA1FBB1F57FD8160220F331F7A
:100CD000441F551F615070408030E0E09E07E0E007
:100CE000AE07E0E4BE0760F36B8F7C8F6FE7E62E04
:100CF000F12C012D112DE822F9220A231B2360E497
:100D0000E616F1040105110561F487FD0AC02115FD
:100D100031054105510529F0805C9F4FAF4FBF4F12
:100D200080788D8F9E8FAF8FB8A383E0898FCE019F
:100D3000499602C080E091E00E948407A096E2E11B
:100D40000C943009A8E1B0E0E8EAF6E00C94200940
:100D500069837A838B839C832D833E834F8358875B
:100D60008E01075F1F4FCE010196B8010E94520805
:100D700081E1E82EF12CEC0EFD1ECE010596B701A7
:100D80000E9452088985823040F08989823028F09B
:100D9000C801B7010E94BB0801C08FEF6896E6E06A
:100DA0000C943C09A8E1B0E0E8EDF6E00C942009D1
:100DB00069837A838B839C832D833E834F835887FB
:100DC0008E01075F1F4FCE010196B8010E945208A5
:100DD00081E1E82EF12CEC0EFD1ECE010596B70147
:100DE0000E9452088985823040F08989823028F03B
:100DF000C801B7010E94BB0801C08FEF6896E6E00A
:100E00000C943C09A8E1B0E0E8E0F7E00C9420097C
:100E100069837A838B839C832D833E834F8358879A
:100E20008E01075F1F4FCE010196B8010E94520844
:100E300081E1E82EF12CEC0EFD1ECE010596B701E6
:100E40000E9452088985823040F08989823028F0DA
:100E5000C801B7010E94BB0801C081E06896E6E0C6
:100E60000C943C09ACE0B0E0E8E3F7E00C94240912
:100E700069837A838B839C83CE010196BE016B5F6D
:100E80007F4F0E9452088D81823081F1823070F153
:100E9000843021F48E81882369F10AC02F8138853E
:100EA00037FD24C06E812F3131053CF0662311F1EE
:100EB00020E030E040E050E821C08EE190E0821B6D
:100EC000930B29853A854B855C8504C056954795DB
:100ED000379527958A95D2F7662381F050954095EE
:100EE000309521953F4F4F4F5F4F08C020E030E0D5
:100EF000A90104C02FEF3FEF4FEF5FE7B901CA012F
:100F00002C96E2E00C944009EF92FF920F931F930E
:100F1000CF93DF93FC012481358146815781618124
:100F20008081823020F44061EFEFF0E0A3C0843094
:100F300009F49BC0823009F492C0211531054105A6
:100F4000510509F48FC00280F381E02D8FEFE23864
:100F5000F8070CF05AC0C2E8DFEFCE1BDF0BCA3136
:100F6000D1056CF579018A010C2E04C01695079500
:100F7000F794E7940A94D2F781E090E0A0E0B0E023
:100F80000C2E04C0880F991FAA1FBB1F0A94D2F70A
:100F90000197A109B10982239323A423B52321E05A
:100FA00030E040E050E00097A105B10519F420E0E1
:100FB00030E0A9012E293F29402B512B03C020E00E
:100FC00030E0A901DA01C9018F779070A070B0708C
:100FD00080349105A105B10539F427FF09C0205CD3
:100FE0003F4F4F4F5F4F04C0215C3F4F4F4F5F4F0C
:100FF000E1E0F0E0203080E0380780E0480780E45E
:10100000580728F5E0E0F0E022C0E038F1056CF583
:10101000E158FF4FDA01C9018F779070A070B0706E
:1010200080349105A105B10539F427FF09C0205C82
:101030003F4F4F4F5F4F04C0215C3F4F4F4F5F4FBB
:1010400057FF05C05695479537952795319687E008
:1010500056954795379527958A95D1F70BC0E0E0CF
:10106000F0E005C0E0E0F0E005C0EFEFF0E020E0E8
:1010700030E0A9018E2F879588278795942F9F7739
:10108000679566276795E695E22EA92FA82BFE2F78
:10109000F62B622F732F8A2F9F2FCDB7DEB7E6E096
:1010A0000C943C09DC01FB012C9111963C911197A9
:1010B00012968C911297482F4F7750E0982F991FD6
:1010C0009927991F13966C911397862F880F892B58
:1010D00090E0661F6627661F6183009739F521152A
:1010E00031054105510511F482E029C082E89FEFE6
:1010F0009383828367E0220F331F441F551F6A9535
:10110000D1F783E0808309C0220F331F441F551F8E
:1011100082819381019793838283203080E0380716
:1011200080E0480780E4580778F320C08F3F91059E
:1011300079F4211531054105510519F484E08083C6
:10114000089544FF03C081E0808310C010820EC068
:101150008F5790409383828383E0808387E0220FC0
:10116000331F441F551F8A95D1F75064248335835C
:10117000468357830895FC01DB019081923008F487
:1011800049C08C91823008F445C0943051F461819B
:101190008430B1F511962C91119730E0261B31095E
:1011A00041C0843021F0923041F48230B1F1119687
:1011B0008C9111978823A1F12DC06181823001F1BA
:1011C00011968C9111976817D9F422813381129668
:1011D0008D919C9113978217930794F028173907E4
:1011E000BCF0248135814681578114968D919D9163
:1011F0000D90BC91A02D82179307A407B50718F492
:10120000662341F00DC0281739074A075B0728F409
:10121000662331F021E030E005C020E030E002C07C
:101220002FEF3FEFC90108952F923F924F925F92A7
:101230006F927F928F929F92AF92BF92CF92DF92E6
:10124000EF92FF920F931F93CF93DF93CDB7DEB74B
:10125000CA1BDB0B0FB6F894DEBF0FBECDBF0994DF
:101260002A88398848885F846E847D848C849B8436
:10127000AA84B984C884DF80EE80FD800C811B8144
:10128000AA81B981CE0FD11D0FB6F894DEBF0FBE73
:0A129000CDBFED010895F894FFCFE3
:08129A0000000000000000004C
:00000001FF
