:100000000C9444000C944E000C944E000C944E0042
:100010000C944E000C944E000C944E000C944E0028
:100020000C944E000C944E000C944E000C944E0018
:100030000C944E000C944E000C944E000C944E0008
:100040000C944E000C944E000C944E000C944E00F8
:100050000C944E000C944E000C944E000C944E00E8
:100060000C944E000C944E000C944E000C944E00D8
:1000700004B6E704B6D304B6C704B6C302900703B8
:10008000AC8103AC8002900011241FBECFEFD0E101
:10009000DEBFCDBF0E9450000C9404020C940000FF
:1000A0000F931F93DF93CF93CDB7DEB72C970FB687
:1000B000F894DEBF0FBECDBF0E94CB0081E061E0AF
:1000C0000E94CE008FEF9FE7A6E181509040A040B4
:1000D000E1F700C0000081E061E00E94CE008FEFF8
:1000E0009FE7A6E181509040A040E1F700C00000EA
:1000F00086E090E00E9429018BE790E09A83898353
:100100008B818E7F8B8388E08C8388E48D8385E66A
:100110008E838CE68F8388878FE6898781E38A8741
:1001200082E38B8783E38C878E010F5F1F4FC801AB
:100130000E9497018823F9F480E061E00E94CE00DC
:100140008FEF9FE7A6E181509040A040E1F700C00B
:10015000000080E060E00E94CE008FEF9FE7A6E104
:1001600081509040A040E1F700C00000C8010E940B
:100170009701882309F381E060E00E94CE0080E0CF
:1001800060E00E94CE0086E696EEA0E081509040AE
:10019000A040E1F7CCCF83E084B90895882329F00B
:1001A000289A662329F42998089528986623D9F374
:1001B000299A08951F93DF93CF930F92CDB7DEB79F
:1001C000182F2C9882E069830E94FE01812F0E94E3
:1001D000FE016981862F0E94FE012C9A0F90CF911B
:1001E000DF911F9108951F93182F2C9883E00E9490
:1001F000FE01812F0E94FE018FEF0E94FE012C9ACA
:100200001F9108951F93DF93CF9300D0CDB7DEB732
:10021000182F2C9885E04A8369830E94FE01812F64
:100220000E94FE016981862F0E94FE014A81842F6F
:100230000E94FE012C9A0F900F90CF91DF911F9199
:1002400008952C980E94FE018FEF0E94FE012C9AC7
:100250000895EF92FF920F931F93DF93CF930F9226
:10026000CDB7DEB7182F883008F058C02C9A249AE2
:100270002F982D982E98279A259A26980E94F90152
:100280002C9880EC0E94FE0186E69EE00197F1F733
:1002900000002C9AEFEFFFE83197F1F700C0000063
:1002A0002C9882E00E94FE0188E20E94FE0183E019
:1002B000189F70011124870100591F4F90E0F80129
:1002C000849199830E94FE0199819F5F0F5F1F4F68
:1002D0009330A9F783E00E94FE012C9A8DE060E044
:1002E0000E94DA0022982A9A8CE060E00E94DA00EC
:1002F00089E20E94F300182FC7018F589F4FFC011D
:1003000004918FE060E00E94DA00101739F48EE06B
:100310000E94F300807ED9F781E001C080E00F9059
:10032000CF91DF911F910F91FF90EF900895FF9271
:100330000F931F93CF93DF93EC0180EA0E9421017A
:1003400082FF06C084FF06C086FD31C014E003C0F2
:1003500010E001C012E02C98812F80640E94FE0101
:10036000CE010E94DF010B810F708A8180FF05C0E2
:10037000802F80640E94FE010CC0802F0E94FE012D
:100380002496FF2404C089910E94FE01F394F01684
:10039000D0F32C9A85E08A95F1F72C98112309F473
:1003A00011E0812F80680E94FE012C9A01C010E0AC
:1003B000812FDF91CF911F910F91FF900895FC0144
:1003C0002081318183E0369527958A95E1F72EBD0E
:1003D00080818295880F807E0DB407FEFDCF9EB58B
:1003E0000E94FE0180E00E94FE0180E00E94FE016A
:1003F000089581E58CBD81E08DBD08958EBD0DB45D
:0C04000007FEFDCF8EB50895F894FFCFE5
:00000001FF
