:100000000C9456000C9475000C9475000C947500BB
:100010000C9475000C9475000C9475000C9475008C
:100020000C9475000C9475000C9475000C9475007C
:100030000C9475000C9475000C9475000C9475006C
:100040000C9475000C9475000C9482030C94E503D9
:100050000C9475000C946F010C9427010C9475009E
:100060000C9475000C9475000C9475000C9475003C
:100070000C9475000C9475000C9475000C9475002C
:100080000C9475000C9475000C9475000C9475001C
:100090000C9475007E6E7F620C37260C37120C377D
:1000A0000E0C37060C37020C37000C3611241FBE1D
:1000B000CFEFD0E1DEBFCDBF11E0A0E0B1E0E8E7D7
:1000C000F0E100E00BBF02C007900D92AC32B10727
:1000D000D9F712E0ACE2B1E001C01D92A236B1073F
:1000E000E1F70E9477000C943A080C9400004F92BC
:1000F0005F926F927F928F929F92AF92BF92CF92B8
:10010000DF92EF92FF920F931F93DF93CF93CDB7C0
:10011000DEB761970FB6F894DEBF0FBECDBF60E0CB
:1001200076E980E090E00E94C3018DB18F708DB9B7
:100130008EB1806F8EB981B18FEF81B983E090E08D
:100140000E945303789481E090E09A8389838FEF33
:1001500097E09C838B838D818C7F8D8380E0BE01B3
:100160006F5F7F4F0E94520481E082B98FEF93ED61
:10017000A0E381509040A040E1F700C0000012B819
:1001800036E0E32EF12CEC0EFD1E8E01065F1F4FB4
:1001900020E0822E21E0922E99E0692E91E0792EC6
:1001A00087E2482E81E0582E0E94EF038823D9F180
:1001B000C7010E9407055801CC24DD24D5018D918B
:1001C0005D0100D000D000D0EDB7FEB73196ADB7DD
:1001D000BEB712969C928E921197D382C28284836C
:1001E00015820E94E802EFE1FEE43197F1F700C0CA
:1001F00000000894C11CD11C8DB79EB706960FB69F
:10020000F8949EBF0FBE8DBF98E0C916D104B1F619
:1002100000D0ADB7BEB712967C926E9211970E9435
:10022000E8020F900F908CB1803F08F0BDCF00D056
:10023000EDB7FEB7528241820E94E8028FE19EE450
:100240000197F1F700C000000F900F90ADCF1F9203
:100250000F920FB60F920BB60F9211242F933F936C
:100260008F939F93EF93FF9320919201309193018D
:1002700080919001909191012817390731F4809174
:10028000C1008F7D8093C1001DC0E0919201F0916B
:100290009301E45DFE4F80818093C60080919201BE
:1002A0009091930101969093930180939201809194
:1002B0009201909193018436910524F0109293015C
:1002C00010929201FF91EF919F918F913F912F9109
:1002D0000F900BBE0F900FBE0F901F9018951F929E
:1002E0000F920FB60F920BB60F9211242F933F93DC
:1002F0008F939F93EF93FF938091F8019091F90171
:100300002091FA013091FB0101968217930769F061
:100310008091FA019091FB01009779F48091F801A6
:100320009091F9018336910541F48091C6001EC079
:100330001092F9011092F80119C0E091F801F091C2
:10034000F9018091C600EC56FE4F80838091F80140
:100350009091F90101969093F9018093F8018091B1
:10036000F8019091F9018436910514F7FF91EF910E
:100370009F918F913F912F910F900BBE0F900FBEC9
:100380000F901F901895CF93DF939B01AC01C1ECA8
:10039000D0E088818860888388818061888394E048
:1003A000220F331F441F551F9A95D1F760E074E266
:1003B00084EF90E00E943F0521503040832F992721
:1003C00087FD9A958093C5002093C4007894888116
:1003D000806888831092930110929201109291018B
:1003E000109290011092FB011092FA011092F90103
:1003F0001092F801DF91CF910895209190013091F2
:10040000910140919201509193012F5F3F4F24172A
:100410003507D1F0209192013091930121153105DA
:10042000B9F420919001309191012336310581F486
:100430000DC010929101109290018091C1008062D4
:100440008093C10080E0089581E0089581E00895DF
:10045000E0919001F0919101E45DFE4F80838091E5
:100460009001909191010196909391018093900158
:10047000809190019091910184369105D4F6DDCF61
:100480002091FA013091FB018091F8019091F901DE
:1004900028173907E9F0E091FA01F091FB01EC56D9
:1004A000FE4F80812091FA013091FB012F5F3F4F79
:1004B0003093FB012093FA012091FA013091FB0166
:1004C0002436310534F01092FB011092FA010895A0
:1004D00080E00895EF92FF92CF93DF93E82EE7013B
:1004E0007E01F92EE70104C00E94FD01882321F45A
:1004F00089918823C9F701C081E0DF91CF91FF90F6
:10050000EF9008954091FA015091FB012091F8017C
:100510003091F90181E04217530709F480E0089512
:10052000282F392FD90180E090E029C04091FA01AD
:100530005091FB012091F8013091F90142175307C6
:1005400019F1E091FA01F091FB01EC56FE4FE081C8
:100550004091FA015091FB014F5F5F4F5093FB01B7
:100560004093FA012091FA013091FB0124363105C4
:1005700024F01092FB011092FA01ED930196861778
:100580009707A4F280E0089581E008952091FA0190
:100590003091FB018091F8019091F9018217930746
:1005A0004CF02091F8013091F9018091FA0190917D
:1005B000FB010AC08091FA019091FB012091F801A2
:1005C0003091F9012C593F4F281B390BC90108956F
:1005D0000F931F93DF93CF93CDB7DEB7FE0137960E
:1005E000619171910CEF11E0C801AF010E946105AA
:1005F000C8010E946A02CF91DF911F910F91089567
:1006000080916002882379F080E0982F9295907F06
:100610009093ED009091EF00907C31F08F5F8F30E0
:10062000A1F78FEF08958FEF0895883070F49091BF
:10063000DE0021E030E002C0220F331F8A95E2F78E
:10064000209529232093DE0008954091DF0090E05B
:10065000089721E030E002C0220F331F8A95E2F7AD
:10066000209524232093DF000895883068F490912A
:10067000DE0021E030E002C0220F331F8A95E2F74E
:10068000922B9093DE0008954091DF0090E0089750
:1006900021E030E002C0220F331F8A95E2F7422B9F
:1006A0004093DF000895883058F59091D80091600C
:1006B0009093D80093E0899FC0011124FC01EC566F
:1006C000FF4FE491E093E200FC01EB56FF4FE49111
:1006D000E093E3008A569F4FFC0184918093E400ED
:1006E0001092DA0080EB8093DB0087EC8093E500CA
:1006F0008FEF0E94FD0382E08093D80081E008958F
:1007000080E008951F920F920FB60F9211242F933D
:100710003F934F935F938F939F938091EC00807FE3
:10072000803F09F443C04091ED008091EC00807F50
:100730008093ED002091EC0022952F708091EE00C7
:1007400086FF0CC08091EE001092EE001092EF0038
:10075000809160028F5F8093600205C0809161028A
:100760008F5F80936102283070F43091DE0081E069
:1007700090E002C0880F991F2A95E2F780958323A5
:100780008093DE0010C05091DF0030E028503040F0
:1007900081E090E002C0880F991F2A95E2F78095CA
:1007A00085238093DF004093ED0004C08091DA0040
:1007B0008093DA009F918F915F914F913F912F919C
:1007C0000F900FBE0F901F9018951F920F920FB6AB
:1007D0000F9211240F900FBE0F901F9018959091BB
:1007E000610281E0992309F480E00895909160020C
:1007F00081E0992309F480E008958F30E8F08F3F7D
:1008000009F04EC01092DF001092DE0080E0982FB9
:100810009295907F9093ED009091EF001092EF00F1
:100820009091EE001092EE008F5F8F3081F7109262
:1008300061028093600232C090E89093D80090915A
:10084000D90093FDFCCF1092D8009091D90092FD71
:10085000FCCF982F9295907F9093ED009091EE00B1
:100860001092EE001092EF000E9415039091ED009F
:1008700080E0282F2295207F2093ED002091EF002B
:100880002093EF008F5F8F30A1F79093ED0082E00F
:100890008093D8008091D90082FFFCCF81E0089539
:1008A00080E00895FB018F3008F070C090E89093CD
:1008B000D8009091D90093FDFCCF1092D800909170
:1008C000D90092FDFCCF982F9295907F9093ED00E8
:1008D0001092EE001092EF001092F0001092F100D2
:1008E00090819295990F907E9093F20020813181B2
:1008F00043E0369527954A95E1F72093F30091E080
:100900009093F4001092F50092819295990F907E49
:100910009093F6002281338193E0369527959A953E
:10092000E1F72093F7009481937091FF0EC09091AE
:10093000F40094609093F4009481937090FF05C04C
:100940009091F00094609093F0009091EF00906887
:100950009093EF000E9435039091ED0080E0282FE6
:100960002295207F2093ED002091EF002093EF004F
:100970008F5F8F30A1F79093ED0082E08093D800D5
:100980008091D90082FFFCCF81E0089580E0089536
:10099000FC018091EF00982F9F70938384FF0CC01F
:1009A0009FB7F894809161028150809361029FBF4C
:1009B00080E88093EF0008952091F200229526951B
:1009C000277030E0318320838091F30090E043E092
:1009D000880F991F4A95E1F7822B932B918380838F
:1009E0009091F000828192FF03C08160828308951C
:1009F0008E7F8283CF010496DC0103C02091FA0030
:100A00002D933A2F381B23813217C0F308950F938B
:100A10001F93CF93DF93EC010E94EF03882349F1EA
:100A200010E0812F8295807F8093ED008091EE0011
:100A3000012F0F5F85FF1AC08091EE001092EE002B
:100A4000CE010E94C8049FB7F89480916102815042
:100A5000809361029FBF812F0E9435038091EF0038
:100A6000807180688093EF00802F04C0102F0F30BA
:100A7000C1F680E0DF91CF911F910F910895A1E21F
:100A80001A2EAA1BBB1BFD010DC0AA1FBB1FEE1F08
:100A9000FF1FA217B307E407F50720F0A21BB30B53
:100AA000E40BF50B661F771F881F991F1A9469F7CF
:100AB00060957095809590959B01AC01BD01CF012B
:100AC00008950F931F93DF93CF93CDB7DEB72E9783
:100AD0000FB6F894DEBF0FBECDBF8C0186E08C83CD
:100AE0001A8309838FEF9FE79E838D83CE01019642
:100AF0000E948A05EF81F885E00FF11F10822E9683
:100B00000FB6F894DEBF0FBECDBFCF91DF911F911E
:100B10000F9108952F923F924F925F926F927F9222
:100B20008F929F92AF92BF92CF92DF92EF92FF92FD
:100B30000F931F93DF93CF93CDB7DEB72C970FB6EC
:100B4000F894DEBF0FBECDBF6C011B018A01FC0112
:100B500017821682838181FFD1C12E010894411C26
:100B6000511CF6019381F10193FD859193FF8191D1
:100B70001F01882309F4BEC1853239F493FD8591A4
:100B800093FF81911F01853229F490E0B6010E9404
:100B9000B007E7CFEE24FF2420E02032B0F48B3200
:100BA00069F08C3228F4803251F0833271F40BC03A
:100BB0008D3239F0803349F421602CC022602460EA
:100BC00029C0286027C0206125C027FD2CC0382FF0
:100BD00030533A3098F426FF08C08E2D880FE82E47
:100BE000EE0CEE0CE80EE30E15C08F2D880FF82EDC
:100BF000FF0CFF0CF80EF30E20620CC08E3221F4B5
:100C000026FD78C1206406C08C3611F4206802C02D
:100C1000883649F4F10193FD859193FF81911F017D
:100C2000882309F0BACF982F9554933018F090523A
:100C3000933028F40C5F1F4FFFE3F9830DC0833618
:100C400031F0833771F0833509F060C022C0F801BC
:100C5000808189830E5F1F4F420171E0A72EB12C66
:100C600016C062E0662E712C600E711EF801808045
:100C7000918026FF03C06E2D70E002C06FEF7FEF02
:100C8000C4012C870E94A5075C0183012C852F7766
:100C900017C052E0652E712C600E711EF801808025
:100CA000918026FF03C06E2D70E002C06FEF7FEFD2
:100CB000C4012C870E949A075C012C85206883015F
:100CC00023FD20C008C080E290E0B6012C870E947E
:100CD000B007FA942C858F2D90E0A816B90698F3EA
:100CE00011C0F40127FD859127FF81914F0190E00C
:100CF000B6012C870E94B0072C85F110FA94089455
:100D0000A108B108A114B10461F7F1C0843611F053
:100D1000893649F527FF08C0F80160817181828119
:100D200093810C5F1F4F09C0F80160817181882792
:100D300077FD8095982F0E5F1F4F4FE6B42EB2229D
:100D400097FF09C090958095709561957F4F8F4F63
:100D50009F4FF0E8BF2AA2012AE030E00E94DC07A2
:100D6000782E741845C0853731F43FEEB32EB22289
:100D70002AE030E025C099EFB92EB2228F36C1F0BB
:100D8000803720F4883509F0B5C00DC0803721F0D8
:100D9000883709F0AFC002C020E1B22AB4FE0BC010
:100DA00084E0B82A08C0B4FE09C0E6E0BE2A06C046
:100DB00028E030E005C020E130E002C020E132E070
:100DC000B7FE08C0F80160817181828193810C5F58
:100DD0001F4F07C0F8016081718180E090E00E5FD5
:100DE0001F4FA2010E94DC07782E7418FFE7BF2274
:100DF000B6FE0BC02EEFB2227E1438F4B4FE07C04C
:100E0000B2FC05C08FEEB82202C0A72C01C0AE2CE8
:100E10008B2D90E0B4FE0DC0FE01E70DF11D208189
:100E2000203319F4E9EEBE2209C0A394B2FE06C035
:100E300004C086789070009709F0A3948B2C9924B5
:100E4000B3FC14C0B0FE0FC0AF1428F4E72CEF0CB5
:100E5000EA18AF2C08C0E72C06C080E290E0B6018B
:100E60000E94B007A394AF14C0F304C0AF1410F4F1
:100E7000FA1801C0FF2484FE0FC080E390E0B601A1
:100E80000E94B00782FE1FC081FE03C088E590E08B
:100E900010C088E790E00DC0C4018678907000977C
:100EA00091F081FC02C080E201C08BE2B7FC8DE2D0
:100EB00090E0B6010E94B00706C080E390E0B60162
:100EC0000E94B007EA947E14C0F37A94F201E70D11
:100ED000F11D808190E0B6010E94B0077720A9F74C
:100EE00006C080E290E0B6010E94B007FA94FF20AD
:100EF000C1F737CEF6012681378102C02FEF3FEFD1
:100F0000C9012C960FB6F894DEBF0FBECDBFCF91AE
:100F1000DF911F910F91FF90EF90DF90CF90BF90E6
:100F2000AF909F908F907F906F905F904F903F9089
:100F30002F900895FC010590615070400110D8F782
:100F4000809590958E0F9F1F0895FC016150704011
:100F500001900110D8F7809590958E0F9F1F0895EE
:100F60000F931F93CF93DF938C01EB018B8181FF54
:100F70001BC082FF0DC02E813F818C819D8128176F
:100F8000390764F4E881F9810193F983E88306C0A5
:100F9000E885F985802F0995009731F48E819F812E
:100FA00001969F838E8302C00FEF1FEFC801DF9170
:100FB000CF911F910F910895FA01AA27283051F17E
:100FC000203181F1E8946F936E7F6E5F7F4F8F4F7A
:100FD0009F4FAF4FB1E03ED0B4E03CD0670F781FD9
:100FE000891F9A1FA11D680F791F8A1F911DA11DBE
:100FF0006A0F711D811D911DA11D20D009F46894F7
:101000003F912AE0269F11243019305D3193DEF69E
:10101000CF010895462F4770405D4193B3E00FD054
:10102000C9F7F6CF462F4F70405D4A3318F0495D3F
:1010300031FD4052419302D0A9F7EACFB4E0A69522
:101040009795879577956795BA95C9F70097610544
:10105000710508959B01AC010A2E0694579547959A
:1010600037952795BA95C9F7620F731F841F951F8F
:08107000A01D0895F894FFCFC4
:1010780025643A2025640A0D0023232323232323F0
:101088002323232323232323232323232323232328
:0C1098002323230A0A0D002E0A0D00007D
:00000001FF
