:100000000C9456000C9468000C9468000C946800E2
:100010000C9468000C9468000C9468000C946800C0
:100020000C9468000C9468000C9468000C946800B0
:100030000C9468000C9468000C9468000C946800A0
:100040000C9468000C9468000C94B7020C941A038A
:100050000C9468000C94B2000C946A000C94680034
:100060000C9468000C9468000C9468000C94680070
:100070000C9468000C9468000C9468000C94680060
:100080000C9468000C9468000C9468000C94680050
:100090000C9468007E6E7F620C37260C37120C378A
:1000A0000E0C37060C37020C37000C3611241FBE1D
:1000B000CFEFD0E1DEBFCDBF12E0A0E0B1E001C0E4
:1000C0001D92A633B107E1F70E9448040C94A807DB
:1000D0000C9400001F920F920FB60F9211240BB6D2
:1000E0000F922F933F938F939F93EF93FF932091C2
:1000F00068013091690180916A0190916B01281724
:10010000390731F48091C1008F7D8093C1001DC0FB
:10011000E0916801F0916901E459FE4F808180937C
:10012000C6008091680190916901019690936901E0
:1001300080936801809168019091690184369105EE
:1001400024F01092690110926801FF91EF919F9144
:100150008F913F912F910F900BBE0F900FBE0F907C
:100160001F9018951F920F920FB60F9211240BB685
:100170000F922F933F938F939F93EF93FF938091D1
:10018000020190910301209100013091010101963B
:100190008217930799F08091000190910101892BBA
:1001A00081F480910201909103018336910549F415
:1001B00005C010920301109202011CC08091C6007C
:1001C00019C0E0910201F09103018091C600EC5F3B
:1001D000FE4F8083809102019091030101969093DC
:1001E0000301809302018091020190910301843602
:1001F0009105FCF6FF91EF919F918F913F912F9187
:100200000F900BBE0F900FBE0F901F901895CF93BD
:10021000DF939B01AC01C1ECD0E0888188608883CA
:1002200088818061888384E0220F331F441F551F1B
:100230008A95D1F760E074E284EF90E00E94B70401
:1002400021503109832F992787FD9A958093C50006
:100250002093C40078948881806888831092690113
:100260001092680110926B0110926A0110920101C4
:10027000109200011092030110920201DF91CF91C0
:10028000089520916A0130916B014091680150916D
:1002900069012F5F3F4F24173507C9F0209168018E
:1002A00030916901232BA9F420916A0130916B01EF
:1002B0002336310571F40BC010926B0110926A0164
:1002C0008091C10080628093C10080E0089581E048
:1002D0000895E0916A01F0916B01E459FE4F80832B
:1002E00080916A0190916B01019690936B018093CC
:1002F0006A0180916A0190916B0184369105E4F660
:10030000DFCF209100013091010180910201909195
:10031000030128173907E9F0E0910001F09101018C
:10032000EC5FFE4F808120910001309101012F5F31
:100330003F4F309301012093000120910001309143
:1003400001012436310534F01092010110920001B0
:10035000089580E00895CF93DF93EC0104C00E94DC
:100360004101811104C089918111F9CF01C081E05F
:10037000DF91CF91089540910001509101012091AA
:1003800002013091030181E04217530709F480E034
:1003900008959C01FC0127C040910001509101018A
:1003A00080910201909103014817590721F1A09112
:1003B0000001B0910101AC5FBE4F4C9180910001F2
:1003C0009091010101969093010180930001809129
:1003D0000001909101018436910524F010920101F1
:1003E000109200014193CF01821B930B8617970750
:1003F0009CF280E0089581E0089520910001309101
:1004000001018091020190910301821793075CF032
:10041000209102013091030180910001909101012E
:10042000281B390B0CC08091000190910101209193
:10043000020130910301281B390B2C593F4FC90190
:100440000895CF93DF93CDB7DEB7FE013596619166
:100450007191AF0180ED91E00E94D90480ED91E0AF
:100460000E94AB01DF91CF910895809134028823DF
:1004700079F080E0982F9295907F9093ED00909185
:10048000EF00907C31F08F5F8F30A1F78FEF0895F0
:100490008FEF0895883070F49091DE0021E030E015
:1004A00002C0220F331F8A95E2F72095292320935B
:1004B000DE0008954091DF0090E0089721E030E0F1
:1004C00002C0220F331F8A95E2F720952423209340
:1004D000DF000895883068F49091DE0021E030E07C
:1004E00002C0220F331F8A95E2F7922B9093DE0011
:1004F00008954091DF0090E0089721E030E002C0CD
:10050000220F331F8A95E2F7422B4093DF000895B4
:10051000883058F59091D80091609093D80093E07E
:10052000899FC0011124FC01EC56FF4FE491E09338
:10053000E200FC01EB56FF4FE491E093E3008A56A2
:100540009F4FFC0184918093E4001092DA0080EBCD
:100550008093DB0087EC8093E5008FEF0E942403FB
:1005600082E08093D80081E0089580E008951F9292
:100570000F920FB60F9211242F933F934F935F93D7
:100580008F939F938091EC00807F803F09F443C05C
:100590004091ED008091EC00807F8093ED002091F0
:1005A000EC0022952F708091EE0086FF0CC08091A8
:1005B000EE001092EE001092EF00809134028F5FF7
:1005C0008093340205C0809135028F5F809335029D
:1005D000283070F43091DE0081E090E002C0880F96
:1005E000991F2A95E2F7809583238093DE0010C03F
:1005F0005091DF0030E02850304081E090E002C0B0
:10060000880F991F2A95E2F7809585238093DF0054
:100610004093ED0004C08091DA008093DA009F914E
:100620008F915F914F913F912F910F900FBE0F903F
:100630001F9018951F920F920FB60F9211240F90D2
:100640000FBE0F901F9018958F30E8F08F3F09F084
:100650004EC01092DF001092DE0080E0982F92953D
:10066000907F9093ED009091EF001092EF009091A9
:10067000EE001092EE008F5F8F3081F710923502FE
:100680008093340232C090E89093D8009091D900C2
:1006900093FDFCCF1092D8009091D90092FDFCCF31
:1006A000982F9295907F9093ED009091EE0010928C
:1006B000EE001092EF000E944A029091ED0080E05F
:1006C000282F2295207F2093ED002091EF0020938A
:1006D000EF008F5F8F30A1F79093ED0082E0809361
:1006E000D8008091D90082FFFCCF81E0089580E09E
:1006F0000895FB018F3008F070C090E89093D80007
:100700009091D90093FDFCCF1092D8009091D90020
:1007100092FDFCCF982F9295907F9093ED001092D0
:10072000EE001092EF001092F0001092F100908114
:100730009295990F907E9093F2002081318143E051
:10074000369527954A95E1F72093F30091E0909331
:10075000F4001092F50092819295990F907E9093FB
:10076000F6002281338193E0369527959A95E1F73B
:100770002093F7009481937091FF0EC09091F40044
:1007800094609093F4009481937090FF05C09091D1
:10079000F00094609093F0009091EF009068909337
:1007A000EF000E946A029091ED0080E0282F2295D0
:1007B000207F2093ED002091EF002093EF008F5FCA
:1007C0008F30A1F79093ED0082E08093D800809164
:1007D000D90082FFFCCF81E0089580E00895FC01FC
:1007E00083818093EF001092F0001092F1008081DD
:1007F0008295880F807E8093F2008081918123E032
:10080000969587952A95E1F78093F300828180FF82
:1008100006C08091F00084608093F0000895CF01BD
:100820000496DC0103C02D912093FA003A2F381B67
:1008300023813217C0F308951F93CF93DF93EC0108
:100840000E943502182F8F30F0F48295807F8093BC
:10085000ED008091EE001092EE00CE010E94EF03B9
:10086000812F0E946A029FB7F894809134028150D0
:10087000809334029FBF8091EF0080648093EF00EB
:10088000812F8F5F01C080E0DF91CF911F9108958C
:10089000CF93DF93CDB7DEB761970FB6F894DEBF85
:1008A0000FBECDBF60E076E980E090E00E940701D6
:1008B0008DB18F708DB98EB1806F8EB981B18FEF90
:1008C00081B987E090E00E948802789489E090E006
:1008D0009E878D87188A1F8689898C7F898BBE01A8
:1008E000635F7F4F80E00E94790382B192E08927A5
:1008F00082B981E082B92FEF33ED80E3215030409F
:100900008040E1F700C0000092B982E4E82EF12CAB
:1009100098E0C92E2AE2D22E30EFB32EFA82E98275
:100920008B818E7F8B83CC82DD82DE82DF82D886D4
:10093000D986DA86DB86DC8608E010E0CE010196F7
:100940000E941C04882331F082B1807F82B982B179
:100950008B2502C082B18F6082B90150110971F7F5
:100960008FE99FE00197F1F700C00000D7CFA1E227
:100970001A2EAA1BBB1BFD010DC0AA1FBB1FEE1F19
:10098000FF1FA217B307E407F50720F0A21BB30B64
:10099000E40BF50B661F771F881F991F1A9469F7E0
:1009A00060957095809590959B01AC01BD01CF013C
:1009B00008950F931F93CF93DF93CDB7DEB72E9794
:1009C0000FB6F894DEBF0FBECDBF8C0186E08C83DE
:1009D0001A8309838FEF9FE79E838D83CE01019653
:1009E0000E940205EF81F885E00FF11F10822E961C
:1009F0000FB6F894DEBF0FBECDBFDF91CF911F9130
:100A00000F9108952F923F924F925F926F927F9233
:100A10008F929F92AF92BF92CF92DF92EF92FF920E
:100A20000F931F93CF93DF93CDB7DEB72C970FB6FD
:100A3000F894DEBF0FBECDBF7C016B018A01FC01C3
:100A400017821682838181FFC7C188248394912CE9
:100A50008C0E9D1EF7019381F60193FD859193FF06
:100A600081916F01882309F4B3C1853239F493FD74
:100A7000859193FF81916F01853229F4B70190E050
:100A80000E941E07E7CF712C312C20E02032A8F401
:100A90008B3261F028F4803251F0833271F40BC054
:100AA0008D3239F0803349F4216028C022602460FF
:100AB00025C0286023C0206121C027FD27C0382F12
:100AC00030533A3078F426FF06C0FAE07F9E300DAE
:100AD0001124732E13C08AE0389E300D1124332E5A
:100AE00020620CC08E3221F426FD72C1206406C043
:100AF0008C3611F4206802C0883641F4F60193FD6B
:100B0000859193FF81916F018111C0CF982F9554EA
:100B1000933018F09052933028F40C5F1F4FFFE38E
:100B2000F9830DC0833631F0833771F0833509F0D6
:100B30005EC023C0F801808189830E5F1F4F662449
:100B40006394712C540115C02801F2E04F0E511C22
:100B5000F801A080B18026FF03C0672D70E002C0BD
:100B60006FEF7FEFC5012C870E9413073C018201C4
:100B70002C856FE7262E222218C02801F2E04F0EA6
:100B8000511CF801A080B18026FF03C0672D70E0E2
:100B900002C06FEF7FEFC5012C870E9408073C0160
:100BA0002C8550E8252E222A820123FC1CC006C079
:100BB000B70180E290E00E941E073A94832D90E0F6
:100BC00068167906A8F30FC0F50127FC859127FE6A
:100BD00081915F01B70190E00E941E0731103A94A5
:100BE000F1E06F1A71086114710471F7EEC0843678
:100BF00011F0893641F5F80127FF07C06081718146
:100C0000828193810C5F1F4F08C0608171818827AA
:100C100077FD8095982F0E5F1F4F4FE6642E62225E
:100C200097FF09C090958095709561957F4F8F4F84
:100C30009F4FF0E86F2A2AE030E0A4010E944A07A3
:100C4000A82EA81844C0853731F43FEEB32EB22247
:100C50002AE030E024C099EFB92EB2228F36B9F0E5
:100C600020F4883509F0B4C00DC0803721F08837F2
:100C700009F0AEC002C020E1B22AB4FE0BC084E08D
:100C8000B82A08C024FF09C0E6E0BE2A06C028E052
:100C900030E005C020E130E002C020E132E0F801A0
:100CA000B7FE07C060817181828193810C5F1F4F05
:100CB00006C06081718180E090E00E5F1F4FA4014B
:100CC0000E944A07A82EA8188FE7682E6B2066FEA0
:100CD0000BC0362D3E7FA71450F464FE0AC062FCA0
:100CE00008C0362D3E7E05C0BA2C362D03C0BA2C66
:100CF00001C0B72C34FF0DC0FE01EA0DF11D80814B
:100D0000803311F4397E09C032FF06C0B394B39426
:100D100004C0832F867809F0B39433FD14C030FFEC
:100D20000FC07A2CB31460F4730C7B18B32C08C07A
:100D3000B70180E290E03C870E941E07B3943C8597
:100D4000B314B0F304C0B31410F43B1801C0312C39
:100D500034FF12C0B70180E390E03C870E941E0779
:100D60003C8532FF1EC031FF03C088E590E002C021
:100D700088E790E0B7010CC0832F867891F031FDB1
:100D800002C080E201C08BE237FD8DE2B70190E046
:100D90000E941E0706C0B70180E390E00E941E0774
:100DA0007A94A714C0F3AA94F401EA0DF11DB701D7
:100DB000808190E00E941E07A110F5CF06C0B70108
:100DC00080E290E00E941E073A943110F8CF42CEA4
:100DD000F7012681378102C02FEF3FEFC9012C9622
:100DE0000FB6F894DEBF0FBECDBFDF91CF911F913C
:100DF0000F91FF90EF90DF90CF90BF90AF909F90BA
:100E00008F907F906F905F904F903F902F900895BC
:100E1000FC010590615070400110D8F780959095C5
:100E20008E0F9F1F0895FC016150704001900110CA
:100E3000D8F7809590958E0F9F1F08950F931F935D
:100E4000CF93DF938C01EB018B8181FD03C00FEF0A
:100E50001FEF1AC082FF0DC02E813F818C819D81C2
:100E60002817390764F4E881F9810193F983E8834D
:100E700006C0E885F985802F0995892B41F78E8179
:100E80009F8101969F838E83C801DF91CF911F912F
:100E90000F910895FA01AA27283051F1203181F1EC
:100EA000E8946F936E7F6E5F7F4F8F4F9F4FAF4F72
:100EB000B1E03ED0B4E03CD0670F781F891F9A1F85
:100EC000A11D680F791F8A1F911DA11D6A0F711D39
:100ED000811D911DA11D20D009F468943F912AE045
:100EE000269F11243019305D3193DEF6CF0108952D
:100EF000462F4770405D4193B3E00FD0C9F7F6CF5E
:100F0000462F4F70405D4A3318F0495D31FD405225
:100F1000419302D0A9F7EACFB4E0A69597958795BB
:100F200077956795BA95C9F700976105710508959A
:100F30009B01AC010A2E0694579547953795279546
:100F4000BA95C9F7620F731F841F951FA01D0895DE
:040F5000F894FFCF43
:00000001FF
