:100000000C9444000C9461000C9461000C94610009
:100010000C9461000C9461000C9461000C946100DC
:100020000C9461000C9461000C9461000C946100CC
:100030000C9461000C9461000C9461000C946100BC
:100040000C9461000C9461000C9461000C946100AC
:100050000C94E6010C94A2010C9461000C946100D4
:100060000C9461000C9461000C9461000C9461008C
:1000700004B6E704B6D304B6C704B6C302900703B8
:10008000AC8103AC8002900011241FBECFEFD0E101
:10009000DEBFCDBF11E0A6E0B1E001C01D92AA3DD8
:1000A000B107E1F711E0A0E0B1E0E4E4FDE002C057
:1000B00005900D92A630B107D9F70E9483000C94E9
:1000C000A0060C94000083E084B90895882311F001
:1000D000289A01C02898662311F0299A0895299832
:1000E000089581E061E00E9466008FEF9FEFACE22F
:1000F00081509040A040E1F700C0000080E060E047
:100100000E94660008952F923F925F926F927F92B5
:100110008F929F92AF92BF92CF92DF92EF92FF9217
:100120000F931F93DF93CF93CDB7DEB766970FB6CC
:10013000F894DEBF0FBECDBF60E072EC81E090E0CE
:100140000E9436020E94630087E090E00E945503FF
:100150000E9471001A8219821C821B828D818C7F01
:100160008D8380E0BE016F5F7F4F0E94780440EF77
:10017000842E41E0942E36E0632E712C6C0E7D1E91
:100180008E01015F1F4F2BE0A22EB12CAC0EBD1EC5
:100190009DE0592E0E94F802882309F466C08DE084
:1001A00090E00E946D057C01C82ED92E07C00E94E8
:1001B000B602D6018D936D01882321F00E94F802CA
:1001C0008823A9F7F70180818337A9F59181917080
:1001D0008D858E7F892B8D878281992787FD9095CC
:1001E0009C878B8783818E87D7011496F8019801AD
:1001F000280F311DC90102C02D912193E817F9077D
:10020000D9F7C5010E943004882319F081E060E02D
:1002100002C080E061E00E9466008FEF9FEFACE2D9
:1002200081509040A040E1F700C0000080E060E015
:100230000E9466001AC08636C1F499868886D70166
:1002400012968C911297992787FD90959F838E83A4
:1002500013969C91139793708A858C7F892B8A873C
:1002600011968C91B3010E9478040E94C3038823E5
:1002700009F490CF8CE090E00E946D05C82EE92E25
:10028000C5010E94D103882309F441C0EC2DFE2D45
:100290002C2D3E2DD901852D1D928A95E9F78D854E
:1002A000879588278795880F880B80838B85818326
:1002B0008E858283B80183E0282E312C2E0E3F1EBE
:1002C00020E030E008C0DB018D91BD01D1018D93AC
:1002D0001D012F5F3F4F4E8550E0241735079CF3DB
:1002E000E40FF51F1382DE2CEE24FF2408C0F60174
:1002F00081916F010E9473020894E11CF11C8E85AC
:1003000090E002968E159F0594F781E001C080E091
:1003100061E00E9466008FEF9FE3A2E08150904071
:10032000A040E1F700C0000080E060E00E946600AD
:100330008FEF9FE3A2E081509040A040E1F700C022
:10034000000028CF1F920F920FB60F9211242F9307
:100350003F938F939F93EF93FF9320916C01309184
:100360006D0180916A0190916B012817390731F472
:100370008091C1008F7D8093C1001DC0E0916C0110
:10038000F0916D01EA5FFE4F80818093C6008091FD
:100390006C0190916D01019690936D0180936C01B9
:1003A00080916C0190916D018436910524F010923A
:1003B0006D0110926C01FF91EF919F918F913F9190
:1003C0002F910F900FBE0F901F9018951F920F92B4
:1003D0000FB60F9211242F933F938F939F93EF9318
:1003E000FF938091D2019091D3012091D40130915B
:1003F000D50101968217930769F08091D4019091FD
:10040000D501009779F48091D2019091D301833680
:10041000910541F48091C6001EC01092D301109244
:10042000D20119C0E091D201F091D3018091C600B0
:10043000E259FE4F80838091D2019091D3010196C1
:100440009093D3018093D2018091D2019091D301F6
:100450008436910514F7FF91EF919F918F913F9111
:100460002F910F900FBE0F901F901895CF93DF9391
:100470009B01AC01C1ECD0E08881886088838881D1
:100480008061888394E0220F331F441F551F9A9583
:10049000D1F760E070E081EE90E00E944B052150C2
:1004A0003040832F992787FD9A958093C50020932C
:1004B000C40086E08093C200789488818068888335
:1004C00010926D0110926C0110926B0110926A01F2
:1004D0001092D5011092D4011092D3011092D20142
:1004E000DF91CF91089520916A0130916B01409185
:1004F0006C0150916D012F5F3F4F24173507D1F0EC
:1005000020916C0130916D0121153105B9F42091D4
:100510006A0130916B012336310581F40DC01092D0
:100520006B0110926A018091C10080628093C100CA
:1005300080E0089581E0089581E00895E0916A01E6
:10054000F0916B01EA5FFE4F808380916A01909188
:100550006B01019690936B0180936A0180916A010F
:1005600090916B0184369105D4F6DDCF2091D401B2
:100570003091D5018091D2019091D301281739078C
:10058000E9F0E091D401F091D501E259FE4F80816C
:100590002091D4013091D5012F5F3F4F3093D50189
:1005A0002093D4012091D4013091D5012436310516
:1005B00034F01092D5011092D401089580E008958E
:1005C000EF92FF92CF93DF93E82EE7017E01F92EA1
:1005D000E70104C00E947302882321F489918823D3
:1005E000C9F701C081E0DF91CF91FF90EF900895AE
:1005F0004091D4015091D5012091D2013091D30185
:1006000081E04217530709F480E008951F93DF93B8
:10061000CF930F92CDB7DEB7182F2C9882E0698365
:100620000E944505812F0E9445056981862F0E9401
:1006300045052C9A0F90CF91DF911F9108951F933C
:10064000182F2C9883E00E944505812F0E944505B4
:100650008FEF0E9445052C9A1F9108951F93DF93F9
:10066000CF9300D0CDB7DEB7182F2C9885E04A8302
:1006700069830E944505812F0E9445056981862F67
:100680000E9445054A81842F0E9445052C9A0F90AF
:100690000F90CF91DF911F9108952C980E944505EE
:1006A0008FEF0E9445052C9A0895EF92FF920F93C9
:1006B0001F93DF93CF930F92CDB7DEB7182F8830FB
:1006C00008F058C02C9A249A2F982D982E98279A83
:1006D000259A26980E9440052C9880EC0E9445059A
:1006E00086E69EE00197F1F700002C9AEFEFFFE815
:1006F0003197F1F700C000002C9882E00E94450578
:1007000088E20E94450583E0189F7001112487014B
:1007100000591F4F90E0F801849199830E9445058C
:1007200099819F5F0F5F1F4F9330A9F783E00E946D
:1007300045052C9A8DE060E00E94060322982A9AD3
:100740008CE060E00E94060389E20E941F03182FDC
:10075000C7018F589F4FFC0104918FE060E00E9419
:100760000603101739F48EE00E941F03807ED9F72C
:1007700081E001C080E00F90CF91DF911F910F9138
:10078000FF90EF90089581E01A9980E0089580EA43
:100790000E944D03982F947581E0943509F480E010
:1007A0000895DF92EF92FF920F931F93CF93DF9301
:1007B000EC0180EB0E944D03D82E082F10E080E45E
:1007C000E82EF12CE022F122D6FC04C0D7FE3FC077
:1007D00084E901C080E92C980E944505CE010E9461
:1007E000060580FF0DC02C9AE114F10419F08CE28B
:1007F00061E002C08CE262E040E00E942E0327C06C
:100800008FEF0E94450521E003FF20E09A819E7F43
:10081000922B9A83182F1F701B83249600E005C02B
:100820008FEF0E94450589930F5F0117C8F32C9A3B
:10083000E114F10419F08CE261E002C08CE262E0A4
:1008400040E00E942E038D2D87708F5F01C080E0F5
:10085000DF91CF911F910F91FF90EF90DF9008955E
:10086000FF920F931F93CF93DF93EC0180EA0E94D6
:100870004D0382FF06C084FF06C086FD31C014E030
:1008800003C010E001C012E02C98812F80640E9408
:100890004505CE010E94EC040B810F708A8180FF18
:1008A00005C0802F80640E9445050CC0802F0E94E7
:1008B00045052496FF2404C089910E944505F394C0
:1008C000F016D0F32C9A85E08A95F1F72C98112335
:1008D00009F411E0812F80680E9445052C9A01C01F
:1008E00010E0812FDF91CF911F910F91FF9008951C
:1008F000EF92FF920F931F93CF93DF93F82EEB01AC
:100900008EE00E941F03E82E8F2D863008F05CC019
:100910008FE060EE40E80E942E0300E810E08EE0D9
:100920000E941F03282F30E0207E307020173107EF
:10093000B1F7FF2031F480E660E20E94060300E296
:1009400008C08F2D8230A1F480E760E20E94060388
:1009500004E22C9882E00E944505802F0E94450504
:10096000CE0102960E94EC042C9A85E08A95F1F75C
:100970008F2D833020F08DEFF80E00E101C000E0F4
:100980002C9882E00E9445058F2D880F880F802BC0
:100990000E944505CE010E94EC042C9A85E08A95C0
:1009A000F1F78FE060EE4E2D0E942E03CE2DD0E0A9
:1009B0008EE00E941F0390E08C279D27807E907020
:1009C0000097B1F781E001C080E0DF91CF911F91E6
:1009D0000F91FF90EF900895FC012081318183E019
:1009E000369527958A95E1F72EBD80818295880FEF
:1009F000807E0DB407FEFDCF9EB50E94450580E0C8
:100A00000E94450580E00E94450508951F93CF93FD
:100A1000DF93EC018FEF0E944505182F8FEF0E94A6
:100A20004505482F83FF08C08FEF0E9445058FEFD3
:100A30000E94450581E020C09FEF9EBD212F30E040
:100A400093E0220F331F9A95E1F7398328830DB481
:100A500007FEFDCF9EB59FEF9EBD82958695877060
:100A60009881982B98830DB407FEFDCF8EB544FF77
:100A700002C082E001C080E0DF91CF911F91089514
:100A800081E58CBD81E08DBD08958EBD0DB407FE5E
:100A9000FDCF8EB50895A1E21A2EAA1BBB1BFD0146
:100AA0000DC0AA1FBB1FEE1FFF1FA217B307E4074D
:100AB000F50720F0A21BB30BE40BF50B661F771FA5
:100AC000881F991F1A9469F7609570958095909585
:100AD0009B01AC01BD01CF010895CF93DF9382301C
:100AE000910510F482E090E0E091D801F091D901F5
:100AF00040E050E020E030E026C06081718168175E
:100B00007907E0F06817790781F4828193812115D4
:100B1000310531F0D90113969C938E9312972BC017
:100B20009093D9018093D80126C04115510519F041
:100B30006417750718F4AB01E901DF019F017281A9
:100B40006381E72FF62F3097C1F64115510501F16A
:100B5000481B590B4430510580F412968D919C919D
:100B60001397209719F09B838A8304C09093D9012F
:100B70008093D801FD01329646C0FD01E40FF51FB8
:100B8000819391934250504011965C934E933BC099
:100B90002091D6013091D7012115310541F42091E2
:100BA0000201309103013093D7012093D6012091A7
:100BB0000401309105012115310541F42DB73EB7EF
:100BC0004091000150910101241B350BE091D601A9
:100BD000F091D701E217F307A0F42E1B3F0B281763
:100BE000390778F0AC014E5F5F4F2417350748F0A6
:100BF0004E0F5F1F5093D7014093D601819391937D
:100C000002C0E0E0F0E0CF01DF91CF910895CF93F3
:100C1000DF93009709F491C0FC013297138212828E
:100C20006091D8017091D9016115710581F420811D
:100C30003181280F391F8091D6019091D7018217F9
:100C4000930799F5F093D701E093D60176C0DB01C5
:100C500080E090E002C0CD01D901AE17BF0748F493
:100C600012962D913C91139721153105A1F7CD01D5
:100C700021C0B383A283EF01499159919E01240FB2
:100C8000351FA217B30779F42D913C911197240FCA
:100C9000351F2E5F3F4F3183208312962D913C915B
:100CA000139733832283009729F4F093D901E093BB
:100CB000D80143C0DC011396FC93EE9312974D913B
:100CC0005D91A40FB51FEA17FB0769F420813181FC
:100CD000240F351F2E5F3F4FEC013983288322817B
:100CE00033813B832A83E0E0F0E002C0FB01BC01DA
:100CF000DB0112968D919C9113970097B9F79B0198
:100D00002E5F3F4F8D919C911197820F931F4091C1
:100D1000D6015091D7014817590779F4309729F433
:100D20001092D9011092D80102C01382128222506F
:100D300030403093D7012093D601DF91CF910895B1
:040D4000F894FFCF55
:060D44002000DA010000AE
:00000001FF
