:100000000C9456000C9468000C9468000C946800E2
:100010000C9468000C9468000C9468000C946800C0
:100020000C9468000C9468000C9468000C946800B0
:100030000C9468000C9468000C9468000C946800A0
:100040000C9468000C9468000C9452010C94B50157
:100050000C9468000C9468000C9468000C94680080
:100060000C9468000C9468000C9468000C94680070
:100070000C9468000C9468000C9468000C94680060
:100080000C9468000C9468000C9468000C94680050
:100090000C9468007E6E7F620C37260C37120C378A
:1000A0000E0C37060C37020C37000C3611241FBE1D
:1000B000CFEFD0E1DEBFCDBF11E0A0E0B1E001C0E5
:1000C0001D92A230B107E1F70E946A000C946D0204
:1000D0000C9400000F931F93DF93CF93CDB7DEB73F
:1000E0002C970FB6F894DEBF0FBECDBF8DB18F70C9
:1000F0008DB98EB1806F8EB981B18FEF81B983E0F8
:1001000090E00E94230178948AE190E09A838983A9
:100110008B818E7F8B8388E08C8388E48D8385E65A
:100120008E838CE68F8388878FE6898781E38A8731
:1001300082E38B8783E38C878E010F5F1F4FC8019B
:100140000E944102882399F0149A8FEF93EDA0E367
:1001500081509040A040E1F700C0000014988FEF5C
:1001600093EDA0E381509040A040E1F716C082B12A
:10017000806F82B98FEF99E6A8E181509040A0404E
:10018000E1F700C0000082B18F7082B98FEF99E66D
:10019000A8E181509040A040E1F700C00000CFCF1F
:1001A00080910001882379F080E0982F9295907FCC
:1001B0009093ED009091EF00907C31F08F5F8F3045
:1001C000A1F78FEF08958FEF0895883070F4909124
:1001D000DE0021E030E002C0220F331F8A95E2F7F3
:1001E000209529232093DE0008954091DF0090E0C0
:1001F000089721E030E002C0220F331F8A95E2F712
:10020000209524232093DF000895883068F490918E
:10021000DE0021E030E002C0220F331F8A95E2F7B2
:10022000922B9093DE0008954091DF0090E00897B4
:1002300021E030E002C0220F331F8A95E2F7422B03
:100240004093DF000895883058F59091D800916070
:100250009093D80093E0899FC0011124FC01EC56D3
:10026000FF4FE491E093E200FC01EB56FF4FE49175
:10027000E093E3008A569F4FFC0184918093E40051
:100280001092DA0080EB8093DB0087EC8093E5002E
:100290008FEF0E94BF0182E08093D80081E0089533
:1002A00080E008951F920F920FB60F9211242F93A2
:1002B0003F934F935F938F939F938091EC00807F48
:1002C000803F09F443C04091ED008091EC00807FB5
:1002D0008093ED002091EC0022952F708091EE002C
:1002E00086FF0CC08091EE001092EE001092EF009D
:1002F000809100018F5F8093000105C08091010112
:100300008F5F80930101283070F43091DE0081E02E
:1003100090E002C0880F991F2A95E2F78095832309
:100320008093DE0010C05091DF0030E02850304054
:1003300081E090E002C0880F991F2A95E2F780952E
:1003400085238093DF004093ED0004C08091DA00A4
:100350008093DA009F918F915F914F913F912F9100
:100360000F900FBE0F901F9018951F920F920FB60F
:100370000F9211240F900FBE0F901F9018958F3081
:10038000E8F08F3F09F04EC01092DF001092DE00BF
:1003900080E0982F9295907F9093ED009091EF00E0
:1003A0001092EF009091EE001092EE008F5F8F3070
:1003B00081F7109201018093000132C090E8909380
:1003C000D8009091D90093FDFCCF1092D800909165
:1003D000D90092FDFCCF982F9295907F9093ED00DD
:1003E0009091EE001092EE001092EF000E94E50056
:1003F0009091ED0080E0282F2295207F2093ED0042
:100400002091EF002093EF008F5F8F30A1F7909342
:10041000ED0082E08093D8008091D90082FFFCCF6C
:1004200081E0089580E00895FC0183818093EF00CE
:100430001092F0001092F10080818295880F807EEA
:100440008093F2008081918123E0969587952A958B
:10045000E1F78093F300828180FF06C08091F00075
:1004600084608093F0000895CF010496DC0103C0FE
:100470002D912093FA003A2F381B23813217C0F3B5
:1004800008951F93CF93DF93EC010E94D000182FA3
:100490008F30F0F48295807F8093ED008091EE00A4
:1004A0001092EE00CE010E941402812F0E940501DD
:1004B0009FB7F894809100018150809300019FBF05
:1004C0008091EF0080648093EF00812F8F5F01C0E7
:0E04D00080E0DF91CF911F910895F894FFCF47
:00000001FF
