:100000000C9456000C9468000C9468000C946800E2
:100010000C9468000C9468000C9468000C946800C0
:100020000C9468000C9468000C9468000C946800B0
:100030000C94E7000C9440010C944B010C94D000FC
:100040000C9468000C9468000C94D8010C943B024A
:100050000C9468000C9468000C9468000C94680080
:100060000C9468000C9468000C9468000C94680070
:100070000C9468000C9468000C9468000C94680060
:100080000C9468000C9468000C9468000C94680050
:100090000C9468007E6E7F620C37260C37120C378A
:1000A0000E0C37060C37020C37000C3611241FBE1D
:1000B000CFEFD0E1DEBFCDBF11E0A0E0B1E001C0E5
:1000C0001D92A230B107E1F70E946A000C94F1037F
:1000D0000C940000AF92BF92CF92DF92EF92FF920A
:1000E0000F931F93DF93CF93CDB7DEB761970FB612
:1000F000F894DEBF0FBECDBF0E941E0183E090E0EA
:100100000E94A901789481E290E09A83898380EE2D
:1001100097E09C838B838D818C7F8D8380E0BE01F3
:100120006F5F7F4F0E94A80296E0C92ED12CCC0EA3
:10013000DD1E8EEFE82E81E0F82E012D112D0E949C
:1001400045028823E1F3C6010E945D036C8570E0DF
:100150008B85813019F4709561957F4F882777FDE5
:100160008095982F61507F4F8F4F9F4F28EE33E03F
:1001700040E050E00E949503A80197010E94B4035B
:1001800059018A85882321F4C90160E00E94F200A8
:100190008A858130A1F6C50161E00E94F200CFCFCF
:1001A0001F920F920FB60F9211248F939F9380ECA2
:1001B00093E6909385008093840085B18F7885B90C
:1001C0009F918F910F900FBE0F901F9018951F92C7
:1001D0000F920FB60F9211242C9A0F900FBE0F9012
:1001E0001F90189523E0893E920738F5613081F021
:1001F000613018F0623009F516C0880F991F2FE2A0
:1002000038EF281B390B309389002093880008951C
:10021000880F991F2FE238EF281B390B30938B0082
:1002200020938A000895880F991F2FE238EF281B2A
:10023000390B30938D0020938C0008951092850027
:1002400010928400EFE6F0E080818F6080837894E4
:1002500084B1806784B984EF91E060E00E94F2008D
:1002600084EF91E061E00E94F20084EF91E062E0AF
:100270000E94F200E1E8F0E08081826080830895CE
:100280001F920F920FB60F9211242D9A0F900FBE4E
:100290000F901F9018951F920F920FB60F92112476
:1002A0002E9A0F900FBE0F901F901895809100010D
:1002B000882379F080E0982F9295907F9093ED00BD
:1002C0009091EF00907C31F08F5F8F30A1F78FEF2E
:1002D00008958FEF0895883070F49091DE0021E04A
:1002E00030E002C0220F331F8A95E2F720952923C0
:1002F0002093DE0008954091DF0090E0089721E010
:1003000030E002C0220F331F8A95E2F720952423A4
:100310002093DF000895883068F49091DE0021E09A
:1003200030E002C0220F331F8A95E2F7922B9093A0
:10033000DE0008954091DF0090E0089721E030E072
:1003400002C0220F331F8A95E2F7422B4093DF0051
:100350000895883058F59091D80091609093D80016
:1003600093E0899FC0011124FC01EC56FF4FE491FA
:10037000E093E200FC01EB56FF4FE491E093E300D1
:100380008A569F4FFC0184918093E4001092DA001A
:1003900080EB8093DB0087EC8093E5008FEF0E9479
:1003A000530282E08093D80081E0089580E00895B0
:1003B0001F920F920FB60F9211242F933F934F93DA
:1003C0005F938F939F938091EC00807F803F09F42F
:1003D00043C04091ED008091EC00807F8093ED0060
:1003E0002091EC0022952F708091EE0086FF0CC0CA
:1003F0008091EE001092EE001092EF0080910001CB
:100400008F5F8093000105C0809101018F5F809311
:100410000101283070F43091DE0081E090E002C0EC
:10042000880F991F2A95E2F7809583238093DE0039
:1004300010C05091DF0030E02850304081E090E063
:1004400002C0880F991F2A95E2F780958523809333
:10045000DF004093ED0004C08091DA008093DA0061
:100460009F918F915F914F913F912F910F900FBE70
:100470000F901F9018951F920F920FB60F92112494
:100480000F900FBE0F901F9018959091010181E081
:10049000992309F480E008959091000181E0992367
:1004A00009F480E008958F30E8F08F3F09F04EC0E6
:1004B0001092DF001092DE0080E0982F9295907FDE
:1004C0009093ED009091EF001092EF009091EE006C
:1004D0001092EE008F5F8F3081F7109201018093B0
:1004E000000132C090E89093D8009091D90093FD1C
:1004F000FCCF1092D8009091D90092FDFCCF982F9C
:100500009295907F9093ED009091EE001092EE0006
:100510001092EF000E946B019091ED0080E0282F77
:100520002295207F2093ED002091EF002093EF0093
:100530008F5F8F30A1F79093ED0082E08093D80019
:100540008091D90082FFFCCF81E0089580E008957A
:10055000FB018F3008F070C090E89093D800909124
:10056000D90093FDFCCF1092D8009091D90092FD54
:10057000FCCF982F9295907F9093ED001092EE0013
:100580001092EF001092F0001092F100908192957D
:10059000990F907E9093F2002081318143E036954F
:1005A00027954A95E1F72093F30091E09093F400AA
:1005B0001092F50092819295990F907E9093F6009B
:1005C0002281338193E0369527959A95E1F7209320
:1005D000F7009481937091FF0EC09091F4009460A5
:1005E0009093F4009481937090FF05C09091F00077
:1005F00094609093F0009091EF0090689093EF00DA
:100600000E948B019091ED0080E0282F2295207FA1
:100610002093ED002091EF002093EF008F5F8F304B
:10062000A1F79093ED0082E08093D8008091D900EB
:1006300082FFFCCF81E0089580E00895FC01809165
:10064000EF00982F9F70938384FF0CC09FB7F8949E
:10065000809101018150809301019FBF80E88093C8
:10066000EF0008952091F20022952695277030E042
:10067000318320838091F30090E043E0880F991F3D
:100680004A95E1F7822B932B918380839091F00020
:10069000828192FF03C08160828308958E7F82836E
:1006A000CF010496DC0103C02091FA002D933A2F6C
:1006B000381B23813217C0F308950F931F93CF93F4
:1006C000DF93EC010E944502882349F110E0812F5D
:1006D0008295807F8093ED008091EE00012F0F5F67
:1006E00085FF1AC08091EE001092EE00CE010E94AC
:1006F0001E039FB7F89480910101815080930101FE
:100700009FBF812F0E948B018091EF0080718068D4
:100710008093EF00802F04C0102F0F30C1F680E0CF
:10072000DF91CF911F910F910895629FD001739F28
:10073000F001829FE00DF11D649FE00DF11D929F7D
:10074000F00D839FF00D749FF00D659FF00D9927BC
:10075000729FB00DE11DF91F639FB00DE11DF91FE0
:10076000BD01CF011124089597FB092E05260ED057
:1007700057FD04D014D00AD0001C38F45095409591
:10078000309521953F4F4F4F5F4F0895F6F7909565
:100790008095709561957F4F8F4F9F4F0895A1E28F
:1007A0001A2EAA1BBB1BFD010DC0AA1FBB1FEE1FEB
:1007B000FF1FA217B307E407F50720F0A21BB30B36
:1007C000E40BF50B661F771F881F991F1A9469F7B2
:1007D00060957095809590959B01AC01BD01CF010E
:0607E0000895F894FFCF1C
:00000001FF
