:1000000012C019C018C017C016C015C014C013C044
:1000100012C011C010C00FC00EC00DC00CC00BC06C
:100020000AC009C008C011241FBECFE5D4E0DEBF5E
:10003000CDBF2BD05AC0E4CFBB9ABA9ABD9A8DB12E
:1000400081658DB9C29A81E0089587FD0AC0C29882
:100050008FB9779BFECF6FB9779BFECFC29A81E0B5
:10006000089580E0089587FD0EC0C29880688FB91A
:10007000779BFECF1FB8779BFECF8FB1FB018083AC
:10008000C29A81E0089580E00895DF93CF930F92A4
:10009000CDB7DEB7D1DF8FEF90E7A2E0815090407F
:1000A000A040E1F700C0000082E4BE016F5F7F4F17
:1000B000DADFFFCFDF93CF9300D0CDB7DEB781E497
:1000C000BE016E5F7F4FCFDF82E4BE016F5F7F4F67
:1000D000CADF9A8180E0298130E0282B392BC901C1
:0E00E0000F900F90CF91DF910895F894FFCF0D
:00000001FF
