:100000000C947C000C949B000C949B000C949B0023
:100010000C949B000C949B000C949B000C949B00F4
:100020000C949B000C949B000C949B000C949B00E4
:100030000C949B000C949B000C949B000C949B00D4
:100040000C949B000C949B000C94FB140C945E1578
:100050000C949B000C948C060C9444060C949B000E
:100060000C949B000C949B000C949B000C949B00A4
:100070000C949B000C949B000C949B000C949B0094
:100080000C949B000C949B000C949B000C949B0084
:100090000C949B00084AD73B3BCE016E84BCBFFD4D
:1000A000C12F3D6C74319ABD56833DDA3D00C77F48
:1000B00011BED9E4BB4C3E916BAAAABE00000080E1
:1000C0003F05A84CCDB2D44EB93836A9020C50B970
:1000D000918688083CA6AAAA2ABE000000803F7E1E
:1000E0006E7F620C37260C37120C370E0C37060C5D
:1000F00037020C37000C360011241FBECFEFD0E1C1
:10010000DEBFCDBF11E0A0E0B1E0EEE3F7E400E038
:100110000BBF02C007900D92A435B107D9F712E0CA
:10012000A4E5B1E001C01D92AE38B107E1F70E942D
:10013000DF010C949D230C9400008FEF81B98DB1E9
:100140008F708DB98EB1806F8EB908950895643027
:1001500031F49CB181E0903FB8F080E008956430C4
:1001600090F48CB190E08095909570E06C5F7F4F3B
:100170009C0102C0359527956A95E2F781E020FD44
:1001800003C080E0089580E008956830E0F44423DF
:1001900069F022B181E090E0AC0102C0440F551F2C
:1001A0006A95E2F7BA01622B62B9089522B181E043
:1001B00090E0AC0102C0440F551F6A95E2F7BA0106
:1001C0006095622362B9089522B181E090E0AC01AC
:1001D00002C0440F551F6A95E2F7BA01622762B95F
:1001E0000895DF93CF9300D000D00F92CDB7DEB744
:1001F000FC0110821182128213828D818C7F8D838B
:1002000080EE97E09C838B8381E890E09A838983DA
:1002100080E0BE016F5F7F4F0E94CB150F900F9063
:100220000F900F900F90CF91DF9108950895CF9286
:10023000DF92FF920F931F93DF93CF93CDB7DEB77B
:100240002D970FB6F894DEBF0FBECDBF8C01F62EF2
:100250006B3008F048C0663010F086E0F80E0E945F
:100260006815882391F16E010894C11CD11CC60148
:100270000E949D00C60162E00E94E400CE01029649
:100280000E94D9162F8130E040E050E0542F432FD8
:10029000322F2227888590E0A0E0B0E0DC0199278A
:1002A0008827822B932BA42BB52B2E8130E040E0A6
:1002B00050E0822B932BA42BB52BF80180839183E4
:1002C000A283B383C6010E94A600F80180819181B8
:1002D000A281B38104C0B695A79597958795FA94A6
:1002E000D2F7817001C080E02D960FB6F894DEBF82
:1002F0000FBECDBFCF91DF911F910F91FF90DF9087
:10030000CF9008956F927F928F929F92AF92BF92FB
:10031000DF92EF92FF920F931F93CF93DF937C01B5
:10032000C0E0D0E088249924AA24BB2401E010E096
:10033000DC2EC7016C2F0E941701882311F1C330F6
:10034000D105D1F4350101E010E002C00F5F1F4F6D
:10035000E8012197C7016D2D0E9417018823B1F78D
:100360006016710690F40F2EF3E08F2E9924F02D75
:100370008C0E9D1E580109C0A114B10411F44E0148
:1003800058012196C430D10599F6C40101968A1905
:100390009B09B694A7948A0D9B1D65E070E00E94AE
:1003A000111DDF91CF911F910F91FF90EF90DF9082
:1003B000BF90AF909F908F907F906F900895EF9235
:1003C000FF920F931F93DF93CF93CDB7DEB72D9797
:1003D0000FB6F894DEBF0FBECDBF60E076E980E0D7
:1003E00090E00E94E10680E091E00E94910780E0A9
:1003F00090E00E94CC1478948E010F5F1F4FC801CB
:100400000E949D00C80160E041E00E94C50081E0BB
:1004100090E09B838A838C818E7F8C8383E08D83A5
:100420008CE48E8383E38F8381E388878EE48987DE
:1004300084E38A8782E38B8780E58C8789E48D87D4
:100440008E010F5F1F4FEE24FF246894E1F8EC0E3D
:10045000FD1EC80164E00E94A7008823D1F3C701F4
:100460000E946E16C80163E00E94E400C80164E0C7
:100470000E94E4008FEF99E6A8E181509040A040EF
:10048000E1F700C00000E5CFCF93DF93EC010E94BD
:10049000A00484E090E00E94911FE82FF92FFD83D3
:1004A000EC8311821082EC81FD8113821282EC8137
:1004B000FD8115821482EC81FD8117821682DF9105
:1004C000CF910895CF93DF93EC018C819D810E94A1
:1004D0002B20CE010E94C204DF91CF910895AF92EC
:1004E000BF92CF92DF92EF92FF920F931F93CF9321
:1004F000DF937C01EA014F3F510579F070F000D0A5
:1005000080E191E0ADB7BEB712969C938E931197A0
:100510000E9423080F900F90BAC16430710509F44E
:10052000C8C065307105A4F46130710509F44DC08F
:100530006230710524F46115710519F1A8C16230AA
:10054000710509F466C06330710509F0A0C189C066
:100550006730710509F426C1683071054CF46530C7
:10056000710509F4CEC06630710509F090C1F1C083
:100570006830710509F43BC16930710509F087C124
:100580005FC1FA01642F7F2F5F2F2C2F3F2F0C2F7D
:100590001F2F0E946005D7011496ED91FC911597CD
:1005A000D183C0831496ED91FC911597D383C283B8
:1005B0001496ED91FC911597D583C4831496ED9113
:1005C000FC911597D783C68362C160E070E0FA01A1
:1005D0005F2F20E030E00C2F1F2F0E946005D70115
:1005E0001496ED91FC911597118210821496ED915D
:1005F000FC911597D383C2831496ED91FC911597C6
:10060000158214821496ED91FC911597D783C683B9
:100610003EC1CC24DD24C41AD50A6C2D7D2DFA01EF
:100620005F2F2C2D3D2D0C2F1F2F0E946005D70111
:100630001496ED91FC911597D182C0821496ED919C
:10064000FC911597D383C2831496ED91FC91159775
:10065000D582C4821496ED91FC911597D783C683F9
:1006600016C1D095C195DF4FFE016C2F7F2F40E062
:1006700050E02C2F3F2F00E010E00E946005D701D2
:100680001496ED91FC911597D183C0831496ED914A
:10069000FC911597138212821496ED91FC91159797
:1006A000D583C4831496ED91FC9115971782168219
:1006B000EEC0D095C195DF4FFE016C2F7F2F4C2FE0
:1006C0005F2F2C2F3F2F0C2F1F2F0E946005D7016B
:1006D0001496ED91FC911597D183C0831496ED91FA
:1006E000FC911597D383C2831496ED91FC911597D5
:1006F000D583C4831496ED91FC911597D783C68357
:10070000C6C0D095C195DF4F60E070E0FE014C2F70
:100710005F2F20E030E00C2F1F2F0E946005D701D3
:100720001496ED91FC911597118210821496ED911B
:10073000FC911597D383C2831496ED91FC91159784
:10074000158214821496ED91FC911597D783C68378
:100750009EC0CC24DD24C41AD50AFA01642F7F2F51
:100760004C2D5D2D2C2F3F2F0C2D1D2D0E94600533
:10077000D7011496ED91FC911597D183C0831496FF
:10078000ED91FC911597D382C2821496ED91FC9164
:100790001597D583C4831496ED91FC911597D78254
:1007A000C68275C0FA01642F7F2F40E050E02C2FE5
:1007B0003F2F00E010E00E946005D7011496ED91F4
:1007C000FC911597D183C0831496ED91FC911597F8
:1007D000138212821496ED91FC911597D583C483F0
:1007E0001496ED91FC9115971782168250C0CC2477
:1007F000DD24C41AD50A6C2D7D2D4C2D5D2DFE01F6
:100800002C2F3F2F0C2F1F2F0E946005D70114960D
:10081000ED91FC911597D182C0821496ED91FC91D7
:100820001597D382C2821496ED91FC911597D583CA
:10083000C4831496ED91FC911597D783C68327C086
:10084000CC24DD24C41AD50AFA01642F7F2F5F2F30
:100850002C2D3D2D0C2D1D2D0E946005D7011496C9
:10086000ED91FC911597D183C0831496ED91FC9185
:100870001597D383C2831496ED91FC911597D58279
:10088000C4821496ED91FC911597D782C682DF91B0
:10089000CF911F910F91FF90EF90DF90CF90BF907D
:1008A000AF900895EF92FF920F931F93CF93DF9332
:1008B000EC01EC81FD8160817181709561957F4FC4
:1008C00042815381509541955F4F24813581309508
:1008D00021953F4F06811781109501951F4F7E018D
:1008E0009F2D0E9460058FEF9DEEA2E08150904009
:1008F000A040E1F700C00000DE018C2F9B2F60E0DC
:1009000070E040E050E020E030E000E010E00E94C5
:100910006005EC81FD8111821082EC81FD811382E2
:100920001282EC81FD8115821482EC81FD81178297
:100930001682DF91CF911F910F91FF90EF90089554
:10094000CF93DF93EC0188E090E00E94911F8883B1
:10095000998381E090E00E94911F8A839B83E881C4
:10096000F98111821082E881F98113821282E88173
:10097000F98115821482E881F98117821682DF914C
:10098000CF910895CF93DF93EC01888199810E94E4
:100990002B208A819B810E942B20DF91CF9108958B
:1009A000CF92DF92FF920F931F93DF93CF93CDB738
:1009B000DEB72C970FB6F894DEBF0FBECDBF6C012B
:1009C000F62E8A0160E076E980E090E00E94E10680
:1009D0008F2D843008F066C00F3F110511F00CF028
:1009E00061C09FEF013019070CF45CC0EF2DF0E0FF
:1009F000EE0FFF1FD6018D919C911197E80FF91F03
:100A0000118300838B818E7F8B8381E090E09A83BA
:100A1000898388E08C830D90BC91A02DFE013596D2
:100A20009E01235F3F4F41E08D919C911197992347
:100A30002CF440838C918195818303C010828C912A
:100A4000818312963296E217F30771F7CE01019671
:100A50000E946E16882331F500D080E291E0EDB758
:100A6000FEB7928381830E9423080F900F90D601D6
:100A700012968D919C91139764E041E00E94C5000D
:100A80008FEF91EEA4E081509040A040E1F700C0CC
:100A90000000D60112968D919C91139764E040E07E
:100AA0000E94C5002C960FB6F894DEBF0FBECDBFD6
:100AB000CF91DF911F910F91FF90DF90CF9008951C
:100AC000EF92FF920F931F93DF93CF93CDB7DEB7D3
:100AD0002C970FB6F894DEBF0FBECDBF7C01CB01C3
:100AE00081509F4FA1E08F3F9A0708F07DC0CA0157
:100AF00081509F4FB1E08F3F9B0708F075C0C9013F
:100B000081509F4FE1E08F3F9E0708F06DC0C80104
:100B100081509F4FF1E08F3F9F0708F065C0D701DC
:100B2000ED91FC91119771836083ED91FC91119788
:100B300053834283ED91FC91119735832483ED918A
:100B4000FC911197178306838B818E7F8B8381E0C5
:100B500090E09A83898388E08C830D90BC91A02DCE
:100B6000FE0135969E01235F3F4F41E08D919C91A0
:100B7000119799232CF440838C918195818303C034
:100B800010828C91818312963296E217F30771F7E7
:100B9000CE0101960E946E16882331F500D080E2C6
:100BA00091E0EDB7FEB7928381830E9423080F90F6
:100BB0000F90D70112968D919C91139764E041E0BC
:100BC0000E94C5008FEF91EEA4E081509040A040BC
:100BD000E1F700C00000D70112968D919C91139708
:100BE00064E040E00E94C5002C960FB6F894DEBF8A
:100BF0000FBECDBFCF91DF911F910F91FF90EF906E
:100C000008951F93CF93DF93EC01162F46E450E035
:100C10000E94D0048FEF93EDA0E381509040A0405C
:100C2000E1F700C00000CE01612F40E050E00E94DB
:100C3000D0048FEF93EDA0E381509040A040E1F706
:100C400000C00000CE01612F4AEB5FEF0E94D0048C
:100C50008FEF93EDA0E381509040A040E1F700C0FA
:100C60000000CE01612F40E050E00E94D0048FEFE1
:100C700093EDA0E381509040A040E1F700C0000058
:100C8000DF91CF911F9108951F920F920FB60F928F
:100C90000BB60F9211242F933F938F939F93EF9353
:100CA000FF932091BA013091BB018091B8019091DE
:100CB000B9012817390731F4E1ECF0E080818F7D2C
:100CC00080831DC0E091BA01F091BB01EC5AFE4F48
:100CD00080818093C6008091BA019091BB010196FA
:100CE0009093BB018093BA018091BA019091BB01AE
:100CF0008436910524F01092BB011092BA01FF9145
:100D0000EF919F918F913F912F910F900BBE0F907C
:100D10000FBE0F901F9018951F920F920FB60F9253
:100D20000BB60F9211242F933F938F939F93EF93C2
:100D3000FF93209120023091210280912202909114
:100D400023022F5F3F4F2817390769F08091220255
:100D500090912302009779F48091200290912102D2
:100D60008336910541F48091C6001EC01092210285
:100D70001092200219C0E0912002F091210280918E
:100D8000C600E454FE4F808380912002909121029E
:100D900001969093210280932002809120029091ED
:100DA00021028436910514F7FF91EF919F918F9165
:100DB0003F912F910F900BBE0F900FBE0F901F9081
:100DC0001895CF93DF93C1ECD0E028812860288369
:100DD0002881206128839B01AC01220F331F441F0F
:100DE000551F220F331F441F551F220F331F441F4F
:100DF000551F220F331F441F551F60E074E284EF1C
:100E000090E00E94251D21503040832F992787FDB7
:100E10009A958093C5002093C40078948881806857
:100E200088831092BB011092BA011092B9011092FE
:100E3000B801109223021092220210922102109205
:100E40002002DF91CF9108954091B8015091B901EE
:100E50002091BA013091BB014F5F5F4F421753079A
:100E6000D1F02091BA013091BB0121153105B9F4BF
:100E70002091B8013091B9012336310581F40DC0BC
:100E80001092B9011092B801E1ECF0E0808180622B
:100E9000808380E0089581E0089581E00895E091E5
:100EA000B801F091B901EC5AFE4F80838091B801EE
:100EB0009091B90101969093B9018093B801809106
:100EC000B8019091B90184369105D4F6DDCF209117
:100ED0002202309123028091200290912102281752
:100EE0003907E9F0E0912202F0912302E454FE4F29
:100EF000808120912202309123022F5F3F4F309357
:100F000023022093220220912202309123022436D0
:100F1000310534F01092230210922202089580E0ED
:100F20000895CF93DF93EC018881882349F02196BF
:100F30000E942407882331F489918823C9F703C0CC
:100F400080E001C081E0DF91CF91089540912202BD
:100F500050912302209120023091210281E042171A
:100F6000530709F480E00895161617060CF040C0E8
:100F700040912202509123022091200230912102BF
:100F800042175307B9F1E82FF92F80E090E04CEBBE
:100F900051E00BC0A0912202B091230220912002C7
:100FA00030912102A217B30739F1A0912202B0912A
:100FB0002302A40FB51FAC9120912202309123028D
:100FC0002F5F3F4F30932302209322022091220271
:100FD000309123022436310524F01092230210921E
:100FE0002202A193019686179707A4F280E0089544
:100FF00080E0089581E0089581E008952091220223
:101000003091230280912002909121028217930750
:101010005CF0209120023091210280912202909177
:101020002302281B390B0CC08091220290912302CD
:1010300020912002309121022C593F4F281B390B5F
:10104000822F932F08950F931F93DF93CF93CDB7E4
:10105000DEB7FE0137966191719104E212E0C8019A
:101060004E2F5F2F0E94C420C8010E949107CF918C
:10107000DF911F910F910895FC0120E030E0A9015C
:10108000208331834283538324833583468357836C
:1010900008950F931F93FC014083518362837383F0
:1010A00004831583268337831F910F910895FC01D4
:1010B0005081418132812381652F742F832F922F9C
:1010C0000895FC015481458136812781652F742F55
:1010D000832F922F0895FC01408351836283738391
:1010E0000895FC01448355836683778308950F93A5
:1010F0001F93FC01408351836283738304831583B0
:10110000268337831F910F910895EF92FF920F93DB
:101110001F93DF93CF93CDB7DEB760970FB6F894E8
:10112000DEBF0FBECDBF7C0109871A872B873C87A6
:101130004D875E876F87788B8E01075F1F4FC801D1
:101140000E9457089B01AC01F70160817181828187
:1011500093810E945B18F70160837183828393837C
:10116000C8010E9461089B01AC01F701648175818F
:10117000868197810E945B18F7016483758386835B
:101180009783DE01119688E001900D928150E1F77E
:1011900029813A814B815C816D817E818F81988527
:1011A00060960FB6F894DEBF0FBECDBFCF91DF9132
:1011B0001F910F91FF90EF900895EF92FF920F9380
:1011C0001F93DF93CF93CDB7DEB760970FB6F89438
:1011D000DEBF0FBECDBF7C0109871A872B873C87F6
:1011E0004D875E876F87788B8E01075F1F4FC80121
:1011F0000E9457089B01AC01F701608171818281D7
:1012000093810E945B18F7016083718382839383CB
:10121000C8010E9461089B01AC01F70164817581DE
:10122000868197810E945B18F701648375838683AA
:101230009783DE01119688E001900D928150E1F7CD
:1012400029813A814B815C816D817E818F81988576
:1012500060960FB6F894DEBF0FBECDBFCF91DF9181
:101260001F910F91FF90EF900895EF92FF920F93CF
:101270001F93DF93CF93CDB7DEB760970FB6F89487
:10128000DEBF0FBECDBF7C0109871A872B873C8745
:101290004D875E876F87788B8E01075F1F4FC80170
:1012A0000E9457089B01AC01F70160817181828126
:1012B00093810E948818F7016083718382839383EE
:1012C000C8010E9461089B01AC01F701648175812E
:1012D000868197810E948818F701648375838683CD
:1012E0009783DE01119688E001900D928150E1F71D
:1012F00029813A814B815C816D817E818F819885C6
:1013000060960FB6F894DEBF0FBECDBFCF91DF91D0
:101310001F910F91FF90EF900895EF92FF920F931E
:101320001F93DF93CF93CDB7DEB760970FB6F894D6
:10133000DEBF0FBECDBF7C0109871A872B873C8794
:101340004D875E876F87788B8E01075F1F4FC801BF
:101350000E9457089B01AC01F70160817181828175
:1013600093810E948818F70160837183828393833D
:10137000C8010E9461089B01AC01F701648175817D
:10138000868197810E948818F7016483758386831C
:101390009783DE01119688E001900D928150E1F76C
:1013A00029813A814B815C816D817E818F81988515
:1013B00060960FB6F894DEBF0FBECDBFCF91DF9120
:1013C0001F910F91FF90EF900895EF92FF920F936E
:1013D0001F93DF93CF93CDB7DEB760970FB6F89426
:1013E000DEBF0FBECDBF7C0109871A872B873C87E4
:1013F0004D875E876F87788B8E01075F1F4FC8010F
:101400000E945708F7016083718382839383C80128
:101410000E946108F7016483758386839783DE01E8
:10142000119688E001900D928150E1F729813A816F
:101430004B815C816D817E818F81988560960FB62E
:10144000F894DEBF0FBECDBFCF91DF911F910F91FA
:10145000FF90EF900895CF92DF92EF92FF920F935B
:101460001F93DF93CF93CDB7DEB728970FB6F894CD
:10147000DEBF0FBECDBF8C016A017B01FC01608124
:10148000718182819381A70196010E94B918F801A8
:101490006083718382839383648175818681978160
:1014A000A70196010E94B918F801648375838683A9
:1014B0009783DE01119688E001900D928150E1F74B
:1014C00029813A814B815C816D817E818F819885F4
:1014D00028960FB6F894DEBF0FBECDBFCF91DF9137
:1014E0001F910F91FF90EF90DF90CF900895CF92D2
:1014F000DF92EF92FF920F931F93DF93CF93CDB7BD
:10150000DEB728970FB6F894DEBF0FBECDBF8C01B3
:101510006A017B01FC016081718182819381A70155
:1015200096010E94B918F8016083718382839383C6
:101530006481758186819781A70196010E94B918FF
:10154000F8016483758386839783DE01119688E0B2
:1015500001900D928150E1F729813A814B815C81A4
:101560006D817E818F81988528960FB6F894DEBFB5
:101570000FBECDBFCF91DF911F910F91FF90EF90E4
:10158000DF90CF900895CF92DF92EF92FF920F936A
:101590001F93DF93CF93CDB7DEB728970FB6F8949C
:1015A000DEBF0FBECDBF8C016A017B01FC016081F3
:1015B000718182819381A70196010E94B319F8017C
:1015C000608371838283938364817581868197812F
:1015D000A70196010E94B319F8016483758386837D
:1015E0009783DE01119688E001900D928150E1F71A
:1015F00029813A814B815C816D817E818F819885C3
:1016000028960FB6F894DEBF0FBECDBFCF91DF9105
:101610001F910F91FF90EF90DF90CF900895CF92A0
:10162000DF92EF92FF920F931F93DF93CF93CDB78B
:10163000DEB728970FB6F894DEBF0FBECDBF8C0182
:101640006A017B01FC016081718182819381A70124
:1016500096010E94B319F80160837183828393839A
:101660006481758186819781A70196010E94B319D3
:10167000F8016483758386839783DE01119688E081
:1016800001900D928150E1F729813A814B815C8173
:101690006D817E818F81988528960FB6F894DEBF84
:1016A0000FBECDBFCF91DF911F910F91FF90EF90B3
:1016B000DF90CF900895EF92FF920F931F93DF93E7
:1016C000CF93CDB7DEB728970FB6F894DEBF0FBE25
:1016D000CDBF7C0109831A832B833C834D835E83BA
:1016E0006F837887CE0101960E9457089B01AC0159
:1016F000F70160817181828193810E94611A882340
:1017000091F4CE0101960E9461089B01AC0111E0A9
:10171000F70164817581868197810E94611A88230F
:1017200019F010E001C010E0812F28960FB6F89450
:10173000DEBF0FBECDBFCF91DF911F910F91FF9004
:10174000EF900895EF92FF920F931F93DF93CF9343
:10175000CDB7DEB728970FB6F894DEBF0FBECDBF6A
:101760007C0109831A832B833C834D835E836F83C3
:101770007887CE0101960E9457089B01AC01F701C2
:1017800060817181828193810E94911A882391F4F2
:10179000CE0101960E9461089B01AC0111E0F701A6
:1017A00064817581868197810E94911A882319F43A
:1017B00010E001C011E0812F28960FB6F894DEBF2B
:1017C0000FBECDBFCF91DF911F910F91FF90EF9092
:1017D00008956F927F928F929F92AF92BF92CF9215
:1017E000DF92EF92FF920F931F93DF93CF93CDB7CA
:1017F000DEB728970FB6F894DEBF0FBECDBF7C01D1
:1018000009831A832B833C834D835E836F837887A0
:101810008E010F5F1F4FC8010E9457083B014C010A
:10182000C8010E9461085B016C01C401B301F701AA
:1018300020813181428153810E94B9183B014C01C2
:10184000C601B501F70124813581468157810E9487
:10185000B9189B01AC01C401B3010E945B18289622
:101860000FB6F894DEBF0FBECDBFCF91DF911F91B1
:101870000F91FF90EF90DF90CF90BF90AF909F902F
:101880008F907F906F900895DF93CF93CDB7DEB7A1
:10189000A0970FB6F894DEBF0FBECDBFFE017196C4
:1018A000282F392FD90188E00D9001928150E1F75E
:1018B000CE01419640E050E060E87FEB0E94770A5D
:1018C000298F3A8F4B8F5C8F6D8F7E8F8F8F98A370
:1018D000DE011996FE01799688E001900D92815003
:1018E000E1F7DE011196FE01719688E001900D92FC
:1018F0008150E1F729813A814B815C816D817E8144
:101900008F819885A0960FB6F894DEBF0FBECDBF2D
:10191000CF91DF910895AF92BF92CF92DF92EF9275
:10192000FF920F931F93FC012081318142815381EB
:10193000E480F58006811781CA01B9010E94B918B7
:101940005B016C01C801B701A80197010E94B91899
:101950009B01AC01C601B5010E945B180E94AC1E40
:101960001F910F91FF90EF90DF90CF90BF90AF90BD
:101970000895DF92EF92FF920F931F93DF93CF931F
:10198000CDB7DEB728970FB6F894DEBF0FBECDBF38
:1019900009831A832B833C834D835E836F8378870F
:1019A0000E948B0C7B018C01CE0101960E948B0C56
:1019B0009B01AC01DD24D394C801B7010E94F11A48
:1019C00088230CF4DD248D2D28960FB6F894DEBF05
:1019D0000FBECDBFCF91DF911F910F91FF90EF9080
:1019E000DF900895DF92EF92FF920F931F93DF93A2
:1019F000CF93CDB7DEB728970FB6F894DEBF0FBEF2
:101A0000CDBF09831A832B833C834D835E836F8311
:101A100078870E948B0C7B018C01CE0101960E947D
:101A20008B0C9B01AC01DD24D394C801B7010E944B
:101A3000C11A18160CF0DD248D2D28960FB6F894D7
:101A4000DEBF0FBECDBFCF91DF911F910F91FF90F1
:101A5000EF90DF900895CF92DF92EF92FF920F9375
:101A60001F93DF93CF93CDB7DEB728970FB6F894C7
:101A7000DEBF0FBECDBF09831A832B833C834D830A
:101A80005E836F8378870E948B0C6B017C01CE0193
:101A900001960E948B0C9B01AC0111E0C701B601BD
:101AA0000E94511B18160CF410E0812F28960FB6D7
:101AB000F894DEBF0FBECDBFCF91DF911F910F9184
:101AC000FF90EF90DF90CF900895EF92FF920F93E9
:101AD0001F93DF93CF93CDB7DEB728970FB6F89457
:101AE000DEBF0FBECDBF09831A832B833C834D839A
:101AF0005E836F8378870E948B0C7B018C01CE0103
:101B000001960E948B0C9B01AC01C801B7010E9499
:101B1000211B881F8827881F28960FB6F894DEBFE0
:101B20000FBECDBFCF91DF911F910F91FF90EF902E
:101B300008950F931F93DF93CF93CDB7DEB7A09790
:101B40000FB6F894DEBF0FBECDBFFE017196282FF1
:101B5000392FD90188E00D9001928150E1F78E0173
:101B60000F5E1F4FC8010E948B0CAB01BC01C80166
:101B70000E940F0B298F3A8F4B8F5C8F6D8F7E8F5A
:101B80008F8F98A3DE011996FE01799688E0019067
:101B90000D928150E1F7DE011196FE01719688E009
:101BA00001900D928150E1F729813A814B815C814E
:101BB0006D817E818F819885A0960FB6F894DEBFE7
:101BC0000FBECDBFCF91DF911F910F9108950F935D
:101BD0001F93DF93CF93CDB7DEB7A8970FB6F894D6
:101BE000DEBF0FBECDBF082F192FDE015996202F63
:101BF000312FF90188E001900D928150E1F7802F9B
:101C0000912F0E94990D29A33AA34BA35CA36DA326
:101C10007EA38FA398A7DE011996FE01B19688E0F6
:101C200001900D928150E1F7802F912F09851A853F
:101C30002B853C854D855E856F8578890E948D0951
:101C400029A33AA34BA35CA36DA37EA38FA398A75C
:101C5000DE015196FE01B19688E001900D9281500F
:101C6000E1F7DE011196FE01799688E001900D9270
:101C70008150E1F729813A814B815C816D817E81C0
:101C80008F819885A8960FB6F894DEBF0FBECDBFA2
:101C9000CF91DF911F910F910895EF92FF920F93D3
:101CA0001F93DF93CF93CDB7DEB7A0970FB6F8940D
:101CB000DEBF0FBECDBFF82EE92E0E94990D298FF1
:101CC0003A8F4B8F5C8F6D8F7E8F8F8F98A3DE0145
:101CD0001996FE01799688E001900D928150E1F706
:101CE0008F2D9E2D09851A852B853C854D855E851A
:101CF0006F8578890E948D09298F3A8F4B8F5C8F71
:101D00006D8F7E8F8F8F98A3DE015196FE0179969D
:101D100088E001900D928150E1F7DE0111968F2D40
:101D20009E2DFC0188E001900D928150E1F7298100
:101D30003A814B815C816D817E818F819885A096EF
:101D40000FB6F894DEBF0FBECDBFCF91DF911F91CC
:101D50000F91FF90EF9008950F931F93DF93CF9310
:101D6000CDB7DEB7A8970FB6F894DEBF0FBECDBFD4
:101D7000082F192FDE015996202F312FF90188E005
:101D800001900D928150E1F7802F912F0E94990DC3
:101D900029A33AA34BA35CA36DA37EA38FA398A70B
:101DA000DE011996FE01B19688E001900D928150F6
:101DB000E1F7802F912F09851A852B853C854D856C
:101DC0005E856F8578890E94DD0829A33AA34BA31D
:101DD0005CA36DA37EA38FA398A7DE015196FE019D
:101DE000B19688E001900D928150E1F7DE011196E5
:101DF000FE01799688E001900D928150E1F72981EA
:101E00003A814B815C816D817E818F819885A89616
:101E10000FB6F894DEBF0FBECDBFCF91DF911F91FB
:101E20000F910895EF92FF920F931F93DF93CF933B
:101E3000CDB7DEB7A0970FB6F894DEBF0FBECDBF0B
:101E4000F82EE92E0E94990D298F3A8F4B8F5C8FC7
:101E50006D8F7E8F8F8F98A3DE011996FE01799684
:101E600088E001900D928150E1F78F2D9E2D09851C
:101E70001A852B853C854D855E856F8578890E9406
:101E8000DD08298F3A8F4B8F5C8F6D8F7E8F8F8F00
:101E900098A3DE015196FE01799688E001900D929B
:101EA0008150E1F7DE0111968F2D9E2DFC0188E017
:101EB00001900D928150E1F729813A814B815C813B
:101EC0006D817E818F819885A0960FB6F894DEBFD4
:101ED0000FBECDBFCF91DF911F910F91FF90EF907B
:101EE0000895AF92BF92CF92DF92EF92FF920F933D
:101EF0001F93DF93CF93CDB7DEB7A8970FB6F894B3
:101F0000DEBF0FBECDBFF82EE92E5A016B010E9435
:101F1000990D29A33AA34BA35CA36DA37EA38FA322
:101F200098A7DE015196FE01B19688E001900D92CE
:101F30008150E1F7CE014196B601A5010E942B0A1E
:101F400029A33AA34BA35CA36DA37EA38FA398A759
:101F5000DE015996FE01B19688E001900D92815004
:101F6000E1F78F2D9E2D098D1A8D2B8D3C8D4D8D7A
:101F70005E8D6F8D78A10E948D0929A33AA34BA392
:101F80005CA36DA37EA38FA398A7DE011996FE0123
:101F9000B19688E001900D928150E1F7DE01119633
:101FA0008F2D9E2DFC0188E001900D928150E1F76C
:101FB00029813A814B815C816D817E818F819885F9
:101FC000A8960FB6F894DEBF0FBECDBFCF91DF91BC
:101FD0001F910F91FF90EF90DF90CF90BF90AF9047
:101FE0000895AF92BF92CF92DF92EF92FF920F933C
:101FF0001F93DF93CF93CDB7DEB7A8970FB6F894B2
:10200000DEBF0FBECDBFF82EE92E5A016B010E9434
:10201000990D29A33AA34BA35CA36DA37EA38FA321
:1020200098A7DE015196FE01B19688E001900D92CD
:102030008150E1F7CE014196B601A5010E942B0A1D
:1020400029A33AA34BA35CA36DA37EA38FA398A758
:10205000DE015996FE01B19688E001900D92815003
:10206000E1F78F2D9E2D098D1A8D2B8D3C8D4D8D79
:102070005E8D6F8D78A10E948D0929A33AA34BA391
:102080005CA36DA37EA38FA398A7DE011996FE0122
:10209000B19688E001900D928150E1F7DE01119632
:1020A0008F2D9E2DFC0188E001900D928150E1F76B
:1020B00029813A814B815C816D817E818F819885F8
:1020C000A8960FB6F894DEBF0FBECDBFCF91DF91BB
:1020D0001F910F91FF90EF90DF90CF90BF90AF9046
:1020E0000895AF92BF92CF92DF92EF92FF920F933B
:1020F0001F93DF93CF93CDB7DEB7A8970FB6F894B1
:10210000DEBF0FBECDBFF82EE92E5A016B010E9433
:10211000990D29A33AA34BA35CA36DA37EA38FA320
:1021200098A7DE015196FE01B19688E001900D92CC
:102130008150E1F7CE014196B601A5010E942B0A1C
:1021400029A33AA34BA35CA36DA37EA38FA398A757
:10215000DE015996FE01B19688E001900D92815002
:10216000E1F78F2D9E2D098D1A8D2B8D3C8D4D8D78
:102170005E8D6F8D78A10E94DD0829A33AA34BA341
:102180005CA36DA37EA38FA398A7DE011996FE0121
:10219000B19688E001900D928150E1F7DE01119631
:1021A0008F2D9E2DFC0188E001900D928150E1F76A
:1021B00029813A814B815C816D817E818F819885F7
:1021C000A8960FB6F894DEBF0FBECDBFCF91DF91BA
:1021D0001F910F91FF90EF90DF90CF90BF90AF9045
:1021E0000895AF92BF92CF92DF92EF92FF920F933A
:1021F0001F93DF93CF93CDB7DEB7A8970FB6F894B0
:10220000DEBF0FBECDBFF82EE92E5A016B010E9432
:10221000990D29A33AA34BA35CA36DA37EA38FA31F
:1022200098A7DE015196FE01B19688E001900D92CB
:102230008150E1F7CE014196B601A5010E942B0A1B
:1022400029A33AA34BA35CA36DA37EA38FA398A756
:10225000DE015996FE01B19688E001900D92815001
:10226000E1F78F2D9E2D098D1A8D2B8D3C8D4D8D77
:102270005E8D6F8D78A10E94DD0829A33AA34BA340
:102280005CA36DA37EA38FA398A7DE011996FE0120
:10229000B19688E001900D928150E1F7DE01119630
:1022A0008F2D9E2DFC0188E001900D928150E1F769
:1022B00029813A814B815C816D817E818F819885F6
:1022C000A8960FB6F894DEBF0FBECDBFCF91DF91B9
:1022D0001F910F91FF90EF90DF90CF90BF90AF9044
:1022E0000895CF92DF92EF92FF920F931F93DF93A7
:1022F000CF93CDB7DEB7A0970FB6F894DEBF0FBE71
:10230000CDBF8C016A017B010E94990D298F3A8F04
:102310004B8F5C8F6D8F7E8F8F8F98A3DE01199608
:10232000FE01799688E001900D928150E1F7CE018F
:102330000996B701A6010E942B0A298F3A8F4B8F6D
:102340005C8F6D8F7E8F8F8F98A3DE015196FE017B
:10235000799688E001900D928150E1F7C8010989D2
:102360001A892B893C894D895E896F89788D0E94F5
:10237000E509298F3A8F4B8F5C8F6D8F7E8F8F8F02
:1023800098A3DE011196FE01799688E001900D92E6
:102390008150E1F7A0960FB6F894DEBF0FBECDBF17
:1023A000CF91DF911F910F91FF90EF90DF90CF9031
:1023B00008954F925F926F927F928F929F92AF9209
:1023C000BF92CF92DF92EF92FF920F931F93CF9322
:1023D000DF93EC01962E842EE880F9800A811B8120
:1023E000C801B70120E030E0A9010E94C11A181607
:1023F0005CF46C817D818E819F81A80197010E9490
:10240000B3190E947E1D72C0C801B70120E030E000
:10241000A9010E94211BD82EDD1CDD24DD1CB1F199
:102420004C805D806E807F80C301B20120E030E08F
:10243000A9010E94F11A88237CF0C301B201A8010E
:1024400097010E94B3190E947E1D2BED3FE049E4E5
:1024500050E40E945B184AC0DD20C1F0C301B20104
:1024600020E030E0A9010E94211B88237CF4C301F5
:10247000B201A80197010E94B3190E947E1D2BEDA5
:102480003FE049E450E40E94881830C0C801B70119
:1024900020E030E0A9010E94611A882369F46C8170
:1024A0007D818E819F8120E030E0A9010E94C11AC8
:1024B00018160CF486C00AC0C801B70120E030E04D
:1024C000A9010E94611A882309F080C06C817D8176
:1024D0008E819F8120E030E0A9010E94211B88238A
:1024E0000CF478C060E070E0CB0178C090582BED20
:1024F0003FE049EC5FE30E945B18D62EC72EB82E52
:10250000A92EF62E072F182FE92E2BED3FE049E4D8
:1025100050E40E94C11A181674F46D2D7C2D8B2D79
:102520009A2D2BED3FE049EC50E40E948818F62EDE
:10253000072F182FE92E6F2D702F812F9E2D20E051
:1025400030E0A9010E94211B882384F4882071F0C7
:102550006F2D702F812F9E2D2BED3FE049EC50E425
:102560000E945B18F62E072F182FE92E9920A1F054
:102570006F2D702F812F9E2D20E030E044E353E437
:102580000E94B9182BED3FE049E450E40E94B319D2
:10259000F62E072F182FE92E6F2D702F812F9E2DCD
:1025A000DF91CF911F910F91FF90EF90DF90CF902F
:1025B000BF90AF909F908F907F906F905F904F9063
:1025C00008956BED7FE089EC9FE308C060E070E068
:1025D000CB0104C06BED7FE089EC9FEB90582BEDB5
:1025E0003FE049EC5FE30E945B18F62E072F182F9F
:1025F000E92EA1CF8F929F92AF92BF92CF92DF929E
:10260000EF92FF920F931F93DF93CF93CDB7DEB777
:1026100028970FB6F894DEBF0FBECDBF09831A838B
:102620002B833C834D835E836F8378878C2C60E0A3
:1026300040E00E94D9115B016C01CE01019660E07F
:1026400040E00E94D911A60195010E948818C62E6B
:10265000B72EA82E992EF62E072F182FD92E20E050
:1026600030E0A9010E94211B882384F4882071F0A6
:102670006C2D7B2D8A2D992D2BED3FE049EC50E4FC
:102680000E945B18F62E072F182FD92EEE20A1F0EE
:102690006F2D702F812F9D2D20E030E044E353E417
:1026A0000E94B9182BED3FE049E450E40E94B319B1
:1026B000F62E072F182FD92E6F2D702F812F9D2DBD
:1026C00028960FB6F894DEBF0FBECDBFCF91DF9135
:1026D0001F910F91FF90EF90DF90CF90BF90AF9040
:1026E0009F908F9008958F929F92AF92BF92DF92AA
:1026F000EF92FF920F931F93CF93DF93EC01F42E91
:10270000152FE62ED72E2223A1F06F2D712F8E2D9F
:102710009D2D2BED3FE049E450E40E94B91820E0E4
:1027200030E044E353E40E94B319F62E172FE82E4D
:10273000D92E0023D1F06F2D712F8E2D9D2D2BEDD5
:102740003FE049E450E40E94C11A181674F46F2D5A
:10275000712F8E2D9D2D2BED3FE049EC50E40E9412
:102760008818F62E172FE82ED92ECE010E948B0C3A
:102770004B015C016F2D712F8E2D9D2D0E94A21E8D
:10278000A50194010E94B918688379838A839B8389
:102790006F2D712F8E2D9D2D0E94A61DA5019401D8
:1027A0000E94B9186C837D838E839F83DF91CF91C4
:1027B0001F910F91FF90EF90DF90BF90AF909F908F
:1027C0008F9008956F927F928F92AF92BF92CF9227
:1027D000DF92EF92FF920F931F93DF93CF93CDB7CA
:1027E000DEB728970FB6F894DEBF0FBECDBF3C0111
:1027F00009831A832B833C834D835E836F837887A1
:10280000AA20A1F06C2D7D2D8E2D9F2D2BED3FE06C
:1028100049E450E40E94B91820E030E044E353E476
:102820000E94B319C62ED72EE82EF92E8820D1F09B
:102830006C2D7D2D8E2D9F2D2BED3FE049E450E436
:102840000E94C11A181674F46C2D7D2D8E2D9F2DAB
:102850002BED3FE049EC50E40E948818C62ED72E9D
:10286000E82EF92ECE01019660E041E00E94D911D8
:102870002C2D3D2D4E2D5F2D0E945B18C62ED72E80
:10288000E82EF92E862E172F082FB92E2BED3FE0BC
:1028900049E450E40E94C11A181674F46C2D7D2D81
:1028A0008E2D9F2D2BED3FE049EC50E40E948818BF
:1028B000862E172F082FB92EC301482D512F602FB8
:1028C0007B2D20E001E00E94731328960FB6F89448
:1028D000DEBF0FBECDBFCF91DF911F910F91FF9053
:1028E000EF90DF90CF90BF90AF908F907F906F90E0
:1028F000089580918802882379F080E0982F92953E
:10290000907F9093ED009091EF00907C31F08F5F7D
:102910008F30A1F78FEF08958FEF0895883070F40E
:102920009091DE0021E030E002C0220F331F8A9533
:10293000E2F7209529232093DE0008954091DF00DF
:1029400090E0089721E030E002C0220F331F8A9503
:10295000E2F7209524232093DF000895883068F45F
:102960009091DE0021E030E002C0220F331F8A95F3
:10297000E2F7922B9093DE0008954091DF0090E003
:10298000089721E030E002C0220F331F8A95E2F75A
:10299000422B4093DF000895883058F59091D8007D
:1029A00091609093D80093E0899FC0011124FC01AD
:1029B000E152FF4FE491E093E200FC01E052FF4F4F
:1029C000E491E093E3008F519F4FFC018491809349
:1029D000E4001092DA0080EB8093DB0087EC8093B8
:1029E000E5008FEF0E94761582E08093D80081E0A9
:1029F000089580E008951F920F920FB60F92112450
:102A00002F933F934F935F938F939F938091EC000D
:102A1000807F803F09F443C04091ED008091EC003D
:102A2000807F8093ED002091EC0022952F708091A3
:102A3000EE0086FF0CC08091EE001092EE00109226
:102A4000EF00809188028F5F8093880205C080919B
:102A500089028F5F80938902283070F43091DE0004
:102A600081E090E002C0880F991F2A95E2F78095D7
:102A700083238093DE0010C05091DF0030E02850A7
:102A8000304081E090E002C0880F991F2A95E2F75C
:102A9000809585238093DF004093ED0004C08091F2
:102AA000DA008093DA009F918F915F914F913F916F
:102AB0002F910F900FBE0F901F9018951F920F929D
:102AC0000FB60F9211240F900FBE0F901F90189504
:102AD0009091890281E0992309F480E00895909112
:102AE000880281E0992309F480E008958F30E8F0AE
:102AF0008F3F09F04EC01092DF001092DE0080E0A0
:102B0000982F9295907F9093ED009091EF00109206
:102B1000EF009091EE001092EE008F5F8F3081F702
:102B2000109289028093880232C090E89093D80076
:102B30009091D90093FDFCCF1092D8009091D900CC
:102B400092FDFCCF982F9295907F9093ED009091FD
:102B5000EE001092EE001092EF000E948E14909101
:102B6000ED0080E0282F2295207F2093ED0020911A
:102B7000EF002093EF008F5F8F30A1F79093ED006F
:102B800082E08093D8008091D90082FFFCCF81E061
:102B9000089580E00895FB018F3008F070C090E840
:102BA0009093D8009091D90093FDFCCF1092D8005B
:102BB0009091D90092FDFCCF982F9295907F9093A1
:102BC000ED001092EE001092EF001092F0001092C3
:102BD000F10090819295990F907E9093F200208160
:102BE000318143E0369527954A95E1F72093F3002C
:102BF00091E09093F4001092F50092819295990FD4
:102C0000907E9093F6002281338193E0369527954C
:102C10009A95E1F72093F7009481937091FF0EC08D
:102C20009091F40094609093F4009481937090FFDD
:102C300005C09091F00094609093F0009091EF00A7
:102C400090689093EF000E94AE149091ED0080E0A8
:102C5000282F2295207F2093ED002091EF002093D4
:102C6000EF008F5F8F30A1F79093ED0082E08093AB
:102C7000D8008091D90082FFFCCF81E0089580E0E8
:102C80000895FC0183818093EF001092F000109270
:102C9000F10080818295880F807E8093F200808190
:102CA000918123E0969587952A95E1F78093F3002B
:102CB000828180FF06C08091F00084608093F000E4
:102CC0000895CF010496DC0103C02D912093FA00F2
:102CD0003A2F381B23813217C0F308951F93CF93E7
:102CE000DF93EC010E947914182F8F30F0F4829555
:102CF000807F8093ED008091EE001092EE00CE0177
:102D00000E944116812F0E94AE149FB7F8948091C3
:102D100088028150809388029FBF8091EF00806479
:102D20008093EF00812F8F5F01C080E0DF91CF9112
:102D30001F910895FC018091EF00982F9F7093835D
:102D400084FF0CC09FB7F8948091890281508093D2
:102D500089029FBF80E88093EF0008952091F200E0
:102D600022952695277030E0318320838091F300EF
:102D700090E043E0880F991F4A95E1F7822B932B4F
:102D8000918380839091F000828192FF03C08160E3
:102D9000828308958E7F8283CF010496DC0103C075
:102DA0002091FA002D933A2F381B23813217C0F35C
:102DB00008950F931F93CF93DF93EC010E94681542
:102DC000882349F110E0812F8295807F8093ED0068
:102DD0008091EE00012F0F5F85FF1AC08091EE00F9
:102DE0001092EE00CE010E949A169FB7F89480913F
:102DF00089028150809389029FBF812F0E94AE1467
:102E00008091EF00807180688093EF00802F04C074
:102E1000102F0F30C1F680E0DF91CF911F910F91FD
:102E20000895A0E0B0E0E7E1F7E10C944B1DFC0150
:102E3000EA018081823008F438C1DB019C91923034
:102E400008F430C1843059F4943009F02EC19181D6
:102E500011968C911197981709F021C126C19430D1
:102E600009F420C19230B1F4823009F01EC1CA01C8
:102E7000AF0128E0DA010D90AD01DC010D92CD012A
:102E80002150C1F7DB0111968C9111979181892313
:102E900089830AC1823009F405C1C280D380DB0175
:102EA00012966D907C9013972481358146815781CD
:102EB0001496ED90FD900D911C911797C6018619FF
:102EC00097095C0197FF04C0AA24BB24A81AB90A79
:102ED000B0E2AB16B1040CF061C0181619066CF51F
:102EE000370148010A2C04C096948794779467941C
:102EF0000A94D2F781E090E0A0E0B0E00A2C04C090
:102F0000880F991FAA1FBB1F0A94D2F70197A10926
:102F1000B1098E219F21A023B123EE24FF24870134
:102F2000E3940097A105B10519F4EE24FF2487016D
:102F3000E628F728082919293CC00097D1F1CA0CC6
:102F4000DB1C39014A010A2C04C0969487947794BB
:102F500067940A94D2F781E090E0A0E0B0E00A2CF8
:102F600004C0880F991FAA1FBB1F0A94D2F70197AC
:102F7000A109B10982239323A423B52321E030E0E2
:102F800040E050E00097A105B10519F420E030E0E1
:102F9000A90126293729482959290BC06C147D0419
:102FA00024F4EE24FF24870104C0630120E030E014
:102FB000A9018181FB019181891709F445C088230A
:102FC00049F0D801C701821B930BA40BB50B9C01E0
:102FD000AD0104C02E193F09400B510B57FD04C031
:102FE0001982DB82CA820BC081E08983DB82CA82BC
:102FF00050954095309521953F4F4F4F5F4F2C8313
:103000003D834E835F830DC0880F991FAA1FBB1F8E
:103010008C839D83AE83BF838A819B8101979B8331
:103020008A838C819D81AE81BF819C01AD0121503D
:103030003040404050402F3FEFEF3E07EFEF4E074C
:10304000EFE35E0708F30BC08983DB82CA822E0D93
:103050003F1D401F511F2C833D834E835F8383E0C0
:1030600088832C813D814E815F8157FF1DC0DA012D
:10307000C90181709070A070B070569547953795D2
:103080002795822B932BA42BB52B8C839D83AE830A
:10309000BF838A819B8101969B838A8305C0E5E477
:1030A000F1E003C0FB0101C0FE01CF01CDB7DEB7E7
:1030B000EEE00C94671DA0E2B0E0E1E6F8E10C94CC
:1030C000531D69837A838B839C832D833E834F8337
:1030D000588789E0E82EF12CEC0EFD1ECE010196FA
:1030E000B7010E944F1C8E010F5E1F4FCE01059647
:1030F000B8010E944F1CC701B801AE01475E5F4F87
:103100000E9411170E94811BA096E6E00C946F1D8F
:10311000A0E2B0E0EEE8F8E10C94531D69837A83F5
:103120008B839C832D833E834F8358878E01075F5B
:103130001F4FCE010196B8010E944F1C91E1E92E6C
:10314000F12CEC0EFD1ECE010596B7010E944F1C1E
:103150008A8991E089278A8BC801B701AE01475E51
:103160005F4F0E9411170E94811BA096E6E00C940D
:103170006F1DA0E2B0E0EFEBF8E10C94471D69830E
:103180007A838B839C832D833E834F835887CE0124
:103190000196BE01675F7F4F0E944F1CCE010596CE
:1031A000BE016F5E7F4F0E944F1C9985923078F070
:1031B00089898230C0F0943019F4823041F4CBC058
:1031C000843019F4923079F4C6C0923051F481E021
:1031D0002A859A89291709F480E08A87CE01099601
:1031E000BCC0823051F481E02A859A89291709F4FC
:1031F00080E08A8BCE014196B0C06D847E848F843E
:103200009888ED88FE880F89188DE0E2F0E080E074
:1032100090E0DC01AA24BB24650120E030E0A90194
:10322000B3016170707061157105D1F02E0D3F1DF5
:10323000401F511F15012601280E391E4A1E5B1E14
:1032400081E090E0A0E0B0E02E153F054007510777
:1032500018F080E090E0DC01820D931DA41DB51DE7
:10326000AA0CBB1CCC1CDD1C17FF09C061E0262E7C
:10327000312C412C512CA228B328C428D5283197B1
:1032800049F0EE0CFF1C001F111F96948794779451
:103290006794C6CF6B897C89EB85FC856E0F7F1F99
:1032A0006E5F7F4F7C8F6B8F61E0EA857A89E717CD
:1032B00009F460E06A8F6B8D7C8D10C0FC01E170B9
:1032C000F070309729F056954795379527955068B7
:1032D000B695A795979587956F5F7F4FB7FDEECF12
:1032E0000CC0880F991FAA1FBB1F57FD8160220FBA
:1032F000331F441F551F615070408030E0E09E072F
:10330000E0E0AE07E0E4BE0760F36B8F7C8F6FE711
:10331000E62EF12C012D112DE822F9220A231B2380
:1033200060E4E616F1040105110561F487FD0AC0A9
:10333000211531054105510529F0805C9F4FAF4FA4
:10334000BF4F80788D8F9E8FAF8FB8A383E0898F1A
:10335000CE01499602C085E491E00E94811BA096AF
:10336000E2E10C94631DA8E1B0E0E9EBF9E10C9413
:103370004F1D69837A838B839C832D833E834F8388
:1033800058878E01075F1F4FCE010196B8010E943A
:103390004F1C81E1E82EF12CEC0EFD1ECE010596AE
:1033A000B7010E944F1C9985923008F483C0898927
:1033B000823008F47BC02A853A8923272A879430F3
:1033C00011F0923021F4981709F06CC071C084306C
:1033D00039F41D861E861F86188A1C861B866AC0C5
:1033E000823019F484E0898765C08B859C852B89A0
:1033F0003C89821B930B9C878B872D853E854F854F
:103400005889ED88FE880F89188D2E153F054007D5
:10341000510738F4220F331F441F551F01979C8713
:103420008B876FE170E0A12CB12CC12CA0E4DA2EC7
:1034300080E090E0DC012E153F054007510740F089
:103440008A299B29AC29BD292E193F09400B510B14
:10345000D694C794B794A794220F331F441F551FC7
:103460006150704041F76FE7E62EF12C012D112DD0
:10347000E822F9220A231B2360E4E616F104010581
:10348000110561F487FD0AC021153105410551057B
:1034900029F0805C9F4FAF4FBF4F80788D879E870C
:1034A000AF87B88B8E01075F1F4F04C0870102C032
:1034B00005E411E0C8010E94811B6896EAE00C94C3
:1034C0006B1DA8E1B0E0E7E6FAE10C94531D6983B7
:1034D0007A838B839C832D833E834F8358878E0111
:1034E000075F1F4FCE010196B8010E944F1C81E17A
:1034F000E82EF12CEC0EFD1ECE010596B7010E94C0
:103500004F1C8985823040F08989823028F0C801BB
:10351000B7010E94B81C01C081E06896E6E00C94F7
:103520006F1DA8E1B0E0E7E9FAE10C94531D69834F
:103530007A838B839C832D833E834F8358878E01B0
:10354000075F1F4FCE010196B8010E944F1C81E119
:10355000E82EF12CEC0EFD1ECE010596B7010E945F
:103560004F1C8985823040F08989823028F0C8015B
:10357000B7010E94B81C01C081E06896E6E00C9497
:103580006F1DA8E1B0E0E7ECFAE10C94531D6983EC
:103590007A838B839C832D833E834F8358878E0150
:1035A000075F1F4FCE010196B8010E944F1C81E1B9
:1035B000E82EF12CEC0EFD1ECE010596B7010E94FF
:1035C0004F1C8985823040F08989823028F0C801FB
:1035D000B7010E94B81C01C08FEF6896E6E00C941A
:1035E0006F1DA8E1B0E0E7EFFAE10C94531D698389
:1035F0007A838B839C832D833E834F8358878E01F0
:10360000075F1F4FCE010196B8010E944F1C81E158
:10361000E82EF12CEC0EFD1ECE010596B7010E949E
:103620004F1C8985823040F08989823028F0C8019A
:10363000B7010E94B81C01C08FEF6896E6E00C94B9
:103640006F1DA8E1B0E0E7E2FBE10C94531D698334
:103650007A838B839C832D833E834F8358878E018F
:10366000075F1F4FCE010196B8010E944F1C81E1F8
:10367000E82EF12CEC0EFD1ECE010596B7010E943E
:103680004F1C8985823040F08989823028F0C8013A
:10369000B7010E94B81C01C081E06896E6E00C9476
:1036A0006F1DA8E1B0E0E7E5FBE10C94531D6983D1
:1036B0007A838B839C832D833E834F8358878E012F
:1036C000075F1F4FCE010196B8010E944F1C81E198
:1036D000E82EF12CEC0EFD1ECE010596B7010E94DE
:1036E0004F1C8985823040F08989823028F0C801DA
:1036F000B7010E94B81C01C081E06896E6E00C9416
:103700006F1DEF92FF920F931F93CF93DF93FC01F6
:10371000248135814681578161818081823020F406
:103720004061EFEFF0E0A3C0843009F49BC0823029
:1037300009F492C0211531054105510509F48FC0E6
:103740000280F381E02D8FEFE238F8070CF05AC0C9
:10375000C2E8DFEFCE1BDF0BCA31D1056CF5790172
:103760008A010C2E04C016950795F794E7940A94E5
:10377000D2F781E090E0A0E0B0E00C2E04C0880F0A
:10378000991FAA1FBB1F0A94D2F70197A109B1097B
:1037900082239323A423B52321E030E040E050E0CE
:1037A0000097A105B10519F420E030E0A9012E2908
:1037B0003F29402B512B03C020E030E0A901DA0162
:1037C000C9018F779070A070B07080349105A10509
:1037D000B10539F427FF09C0205C3F4F4F4F5F4FC1
:1037E00004C0215C3F4F4F4F5F4FE1E0F0E02030DD
:1037F00080E0380780E0480780E4580728F5E0E0DB
:10380000F0E022C0E038F1056CF5E158FF4FDA0135
:10381000C9018F779070A070B07080349105A105B8
:10382000B10539F427FF09C0205C3F4F4F4F5F4F70
:1038300004C0215C3F4F4F4F5F4F57FF05C0569567
:10384000479537952795319687E056954795379553
:1038500027958A95D1F70BC0E0E0F0E005C0E0E0E5
:10386000F0E005C0EFEFF0E020E030E0A9018E2F9E
:10387000879588278795942F9F7767956627679503
:10388000E695E22EA92FA82BFE2FF62B622F732F81
:103890008A2F9F2FCDB7DEB7E6E00C946F1DDC01B9
:1038A000FB012C9111963C91119712968C911297D5
:1038B000482F4F7750E0982F991F9927991F1396FB
:1038C0006C911397862F880F892B90E0661F6627CF
:1038D000661F6183009739F52115310541055105B2
:1038E00011F482E029C082E89FEF9383828367E02E
:1038F000220F331F441F551F6A95D1F783E0808341
:1039000009C0220F331F441F551F828193810197E5
:1039100093838283203080E0380780E0480780E48A
:10392000580778F320C08F3F910579F421153105B0
:103930004105510519F484E08083089544FF03C0D4
:1039400081E0808310C010820EC08F579040938317
:10395000828383E0808387E0220F331F441F551F3B
:103960008A95D1F75064248335834683578308951D
:10397000FC01DB019081923008F449C08C918230C7
:1039800008F445C0943051F461818430B1F511964A
:103990002C91119730E0261B310941C0843021F071
:1039A000923041F48230B1F111968C9111978823B5
:1039B000A1F12DC06181823001F111968C91119796
:1039C0006817D9F42281338112968D919C911397B7
:1039D0008217930794F028173907BCF024813581AA
:1039E0004681578114968D919D910D90BC91A02D8B
:1039F00082179307A407B50718F4662341F00DC09A
:103A0000281739074A075B0728F4662331F021E0BD
:103A100030E005C020E030E002C02FEF3FEFC901E9
:103A20000895AA1BBB1B51E107C0AA1FBB1FA61705
:103A3000B70710F0A61BB70B881F991F5A95A9F757
:103A400080959095BC01CD010895A1E21A2EAA1B84
:103A5000BB1BFD010DC0AA1FBB1FEE1FFF1FA2173E
:103A6000B307E407F50720F0A21BB30BE40BF50B3B
:103A7000661F771F881F991F1A9469F760957095C4
:103A8000809590959B01AC01BD01CF0108952F92C7
:103A90003F924F925F926F927F928F929F92AF92DE
:103AA000BF92CF92DF92EF92FF920F931F93CF932B
:103AB000DF93CDB7DEB7CA1BDB0B0FB6F894DEBFC2
:103AC0000FBECDBF09942A88398848885F846E84E8
:103AD0007D848C849B84AA84B984C884DF80EE8032
:103AE000FD800C811B81AA81B981CE0FD11D0FB63B
:103AF000F894DEBF0FBECDBFED010895DF93DD2743
:103B0000B92FBF7740E85FE31616170648075B0733
:103B100010F4D92FAFD09F938F937F936F935AD187
:103B2000E4E9F0E016D062D02F913F914F915F9180
:103B3000B2D0DD2349F09058A2EA2AED3FE049ECEB
:103B40005FE3D0785D2756D1DF9150C028D0E39550
:103B50005EC0DF93CF931F930F93FF92EF92DF929C
:103B60007B018C01689405C0DA2EEF0194D0FE0130
:103B7000E894A5912591359145915591AEF3EF01CA
:103B800039D1FE019701A801DA9479F7DF90EF901F
:103B9000FF900F911F91CF91DF91089592C150D066
:103BA000E8F3E894E0E0BB279F57F0F02AED3FE010
:103BB00049EC06C0EE0FBB0F661F771F881F28F069
:103BC000B23A62077307840728F0B25A620B730B8C
:103BD000840BE3959A9572F7803830F49A95BB0F71
:103BE000661F771F881FD2F790485FC1092E039484
:103BF000000C11F4882352F0BB0F40F4BF2B11F4DA
:103C000060FF04C06F5F7F4F8F4F9F4F0895EF930A
:103C1000E0FF06C0A2EA2AED3FE049EC5FEBEAD004
:103C2000E5DF0F90039401FC9058E1ECF0E053C104
:103C300057FD9058440F551F59F05F3F71F047955D
:103C4000880F97FB991F61F09F3F79F08795089542
:103C5000121613061406551FF2CF4695F1DF08C061
:103C6000161617061806991FF1CF8695710561057E
:103C7000089408959B01AC0160E070E080E89FE348
:103C800072CB3AD128F03FD118F0952309F005C145
:103C900018C1112440C1CCDFA0F3959FD1F3950F3B
:103CA00050E0551F629FF001729FBB27F00DB11DC0
:103CB000639FAA27F00DB11DAA1F649F6627B00D50
:103CC000A11D661F829F2227B00DA11D621F739F39
:103CD000B00DA11D621F839FA00D611D221F749F47
:103CE0003327A00D611D231F849F600D211D822F8E
:103CF000762F6A2F11249F5750408AF0E1F08823D5
:103D00004AF0EE0FFF1FBB1F661F771F881F9150E1
:103D10005040A9F79E3F510570F0BFC0FCC05F3F07
:103D2000ECF3983EDCF3869577956795B795F79514
:103D3000E7959F5FC1F7FE2B880F911D969587959C
:103D400097F908959F932BDF0F9007FCEE5F5FCFED
:103D500011F40EF4B6C0A7C073DFD0F39923D9F3E2
:103D6000CEF39F57550B87FFAFD00024A0E640EA63
:103D7000900180585695979528F4805C660F771FC0
:103D8000881F20F026173707480730F4621B730B93
:103D9000840B202931294A2BA695179407942025B6
:103DA00031254A2758F7660F771F881F20F02617FE
:103DB0003707480730F4620B730B840B200D311D5D
:103DC000411DA09581F7B901842F9158880F9695D0
:103DD000879508959B01AC01CCC98ED030F093D06B
:103DE00020F031F49F3F11F41EF46BC00EF4E09507
:103DF000E7FB53C0E92F1CDF80F3BA176207730794
:103E00008407950718F071F49EF584C00EF4E095D0
:103E10000B2EBA2FA02D0B01B90190010C01CA0184
:103E2000A0011124FF27591B99F0593F50F4503E2F
:103E300068F11A16F040A22F232F342F4427585F21
:103E4000F3CF469537952795A795F0405395C9F739
:103E50007EF41F16BA0B620B730B840BBAF09150F1
:103E6000A1F0FF0FBB1F661F771F881FC2F70EC090
:103E7000BA0F621F731F841F48F487957795679563
:103E8000B795F7959E3F08F0B3CF9395880F08F04C
:103E90009927EE0F97958795089597F99F6780E882
:103EA00070E060E008959F3F31F0915020F48795D5
:103EB00077956795B795880F911D9695879597F992
:103EC00008959FEF80EC089591505040660F771F42
:103ED000881FD2F708959F938F937F936F93FF93DB
:103EE000EF939B01AC0145D9EF91FF9132DE2F9109
:103EF0003F914F915F913DC900240A941616170611
:103F000018060906089500240A94121613061406CA
:103F100005060895E894BB2766277727CB0197F914
:103F20000895CF93DF938230910510F482E090E002
:103F3000E0918C02F0918D0240E050E020E030E012
:103F400026C06081718168177907E0F068177907EA
:103F500081F4828193812115310531F0D9011396C5
:103F60009C938E9312972BC090938D0280938C021A
:103F700026C04115510519F06417750718F4AB01F7
:103F8000E901DF019F0172816381E72FF62F3097EE
:103F9000C1F64115510501F1481B590B443051053B
:103FA00080F412968D919C911397209719F09B8322
:103FB0008A8304C090938D0280938C02FD01329617
:103FC00046C0FD01E40FF51F81939193425050408C
:103FD00011965C934E933BC020918A0230918B02E4
:103FE0002115310541F420914F013091500130935A
:103FF0008B0220938A0220915101309152012115A8
:10400000310541F42DB73EB740914D0150914E011D
:10401000241B350BE0918A02F0918B02E217F30723
:10402000A0F42E1B3F0B2817390778F0AC014E5F28
:104030005F4F2417350748F04E0F5F1F50938B02D8
:1040400040938A028193919302C0E0E0F0E0CF01B7
:10405000DF91CF910895CF93DF93009709F491C03A
:10406000FC0132971382128260918C0270918D0252
:104070006115710581F420813181280F391F8091EC
:104080008A0290918B028217930799F5F0938B0225
:10409000E0938A0276C0DB0180E090E002C0CD01AF
:1040A000D901AE17BF0748F412962D913C91139792
:1040B00021153105A1F7CD0121C0B383A283EF0102
:1040C000499159919E01240F351FA217B30779F426
:1040D0002D913C911197240F351F2E5F3F4F318357
:1040E000208312962D913C9113973383228300975E
:1040F00029F4F0938D02E0938C0243C0DC01139607
:10410000FC93EE9312974D915D91A40FB51FEA17A2
:10411000FB0769F420813181240F351F2E5F3F4F4B
:10412000EC0139832883228133813B832A83E0E0B9
:10413000F0E002C0FB01BC01DB0112968D919C9165
:1041400013970097B9F79B012E5F3F4F8D919C917C
:104150001197820F931F40918A0250918B0248174A
:10416000590779F4309729F410928D0210928C023D
:1041700002C0138212822250304030938B0220936F
:104180008A02DF91CF9108950F931F93DF93CF930E
:10419000CDB7DEB72E970FB6F894DEBF0FBECDBFFA
:1041A0008C0186E08C831A8309838FEF9FE79E83BF
:1041B0008D83CE0101960E94ED20EF81F885E00FFE
:1041C000F11F10822E960FB6F894DEBF0FBECDBF42
:1041D000CF91DF911F910F9108952F923F924F92AF
:1041E0005F926F927F928F929F92AF92BF92CF9287
:1041F000DF92EF92FF920F931F93DF93CF93CDB790
:10420000DEB72C970FB6F894DEBF0FBECDBF6C01A2
:104210001B018A01FC0117821682838181FFD1C1B3
:104220002E010894411C511CF6019381F10193FD6C
:10423000859193FF81911F01882309F4BEC18532C6
:1042400039F493FD859193FF81911F01853229F403
:1042500090E0B6010E941323E7CFEE24FF2420E074
:104260002032B0F48B3269F08C3228F4803251F075
:10427000833271F40BC08D3239F0803349F4216000
:104280002CC02260246029C0286027C0206125C07E
:1042900027FD2CC0382F30533A3098F426FF08C041
:1042A0008E2D880FE82EEE0CEE0CE80EE30E15C0F6
:1042B0008F2D880FF82EFF0CFF0CF80EF30E2062E6
:1042C0000CC08E3221F426FD78C1206406C08C36E5
:1042D00011F4206802C0883649F4F10193FD8591FC
:1042E00093FF81911F01882309F0BACF982F95542D
:1042F000933018F09052933028F40C5F1F4FFFE377
:10430000F9830DC0833631F0833771F0833509F0BE
:1043100060C022C0F801808189830E5F1F4F420177
:1043200071E0A72EB12C16C062E0662E712C600ED3
:10433000711EF8018080918026FF03C06E2D70E011
:1043400002C06FEF7FEFC4012C870E9408235C013D
:1043500083012C852F7717C052E0652E712C600EDB
:10436000711EF8018080918026FF03C06E2D70E0E1
:1043700002C06FEF7FEFC4012C870E94FD225C0119
:104380002C852068830123FD20C008C080E290E0D6
:10439000B6012C870E941323FA942C858F2D90E070
:1043A000A816B90698F311C0F40127FD859127FFDF
:1043B00081914F0190E0B6012C870E9413232C8538
:1043C000F110FA940894A108B108A114B10461F79E
:1043D000F1C0843611F0893649F527FF08C0F8018D
:1043E00060817181828193810C5F1F4F09C0F80148
:1043F00060817181882777FD8095982F0E5F1F4F10
:104400004FE6B42EB22297FF09C090958095709523
:1044100061957F4F8F4F9F4FF0E8BF2AA2012AE09E
:1044200030E00E943F23782E741845C0853731F460
:104430003FEEB32EB2222AE030E025C099EFB92E2C
:10444000B2228F36C1F0803720F4883509F0B5C02C
:104450000DC0803721F0883709F0AFC002C020E1DD
:10446000B22AB4FE0BC084E0B82A08C0B4FE09C06A
:10447000E6E0BE2A06C028E030E005C020E130E0DA
:1044800002C020E132E0B7FE08C0F801608171810E
:10449000828193810C5F1F4F07C0F8016081718199
:1044A00080E090E00E5F1F4FA2010E943F23782E14
:1044B0007418FFE7BF22B6FE0BC02EEFB2227E14A7
:1044C00038F4B4FE07C0B2FC05C08FEEB82202C0BB
:1044D000A72C01C0AE2C8B2D90E0B4FE0DC0FE01C8
:1044E000E70DF11D2081203319F4E9EEBE2209C049
:1044F000A394B2FE06C004C086789070009709F0BD
:10450000A3948B2C9924B3FC14C0B0FE0FC0AF143D
:1045100028F4E72CEF0CEA18AF2C08C0E72C06C0F3
:1045200080E290E0B6010E941323A394AF14C0F37D
:1045300004C0AF1410F4FA1801C0FF2484FE0FC0A9
:1045400080E390E0B6010E94132382FE1FC081FE2B
:1045500003C088E590E010C088E790E00DC0C4017A
:1045600086789070009791F081FC02C080E201C0D3
:104570008BE2B7FC8DE290E0B6010E94132306C0E7
:1045800080E390E0B6010E941323EA947E14C0F306
:104590007A94F201E70DF11D808190E0B6010E944E
:1045A00013237720A9F706C080E290E0B6010E94AD
:1045B0001323FA94FF20C1F737CEF6012681378105
:1045C00002C02FEF3FEFC9012C960FB6F894DEBF63
:1045D0000FBECDBFCF91DF911F910F91FF90EF9054
:1045E000DF90CF90BF90AF909F908F907F906F9013
:1045F0005F904F903F902F900895FC01059061507F
:1046000070400110D8F7809590958E0F9F1F0895E8
:10461000FC016150704001900110D8F78095909591
:104620008E0F9F1F08950F931F93CF93DF938C01DD
:10463000EB018B8181FF1BC082FF0DC02E813F816A
:104640008C819D812817390764F4E881F9810193F1
:10465000F983E88306C0E885F985802F09950097DE
:1046600031F48E819F8101969F838E8302C00FEF6C
:104670001FEFC801DF91CF911F910F910895FA01AB
:10468000AA27283051F1203181F1E8946F936E7F91
:104690006E5F7F4F8F4F9F4FAF4FB1E03ED0B4E082
:1046A0003CD0670F781F891F9A1FA11D680F791FC3
:1046B0008A1F911DA11D6A0F711D811D911DA11DD4
:1046C00020D009F468943F912AE0269F11243019E4
:1046D000305D3193DEF6CF010895462F4770405D7F
:1046E0004193B3E00FD0C9F7F6CF462F4F70405D2E
:1046F0004A3318F0495D31FD4052419302D0A9F789
:10470000EACFB4E0A6959795879577956795BA9582
:10471000C9F700976105710508959B01AC010A2E48
:1047200006945795479537952795BA95C9F7620F1F
:0E473000731F841F951FA01D0895F894FFCFDE
:10473E007561727420696E6974202E2E2E0A0D001A
:10474E00426164206D6F746F7220737065656400D2
:10475E004552524F52205748494C452053454E44DE
:10476E00204441544120544F204D4F544F5220422B
:10477E004F41524400000000000000000020008E57
:04478E000200000025
:00000001FF
