:100000000C9456000C9475000C9475000C947500BB
:100010000C9475000C9475000C9475000C9475008C
:100020000C9475000C9475000C9475000C9475007C
:100030000C9475000C9475000C9475000C9475006C
:100040000C9475000C9475000C9499030C94FC03AB
:100050000C9475000C9475000C9475000C9475004C
:100060000C9475000C9475000C9475000C9475003C
:100070000C9475000C9475000C9475000C9475002C
:100080000C9475000C9475000C9475000C9475001C
:100090000C9475007E6E7F620C37260C37120C377D
:1000A0000E0C37060C37020C37000C3611241FBE1D
:1000B000CFEFD0E1DEBFCDBF11E0A6E0B1E001C0DF
:1000C0001D92AC30B107E1F711E0A0E0B1E0E0E251
:1000D000FBE000E00BBF02C007900D92A630B10715
:1000E000D9F70E94B6000C948E050C9400008FEF97
:1000F00081B98DB18F708DB98EB1806F8EB9089531
:100100000895643031F49CB181E0903F98F080E034
:100110000895643070F48CB190E08095909570E013
:100120006C5F7F4F02C0959587956A95E2F7817065
:10013000089580E008956830C0F4442359F022B156
:1001400081E090E002C0880F991F6A95E2F7282BA2
:1001500022B9089522B181E090E002C0880F991F72
:100160006A95E2F78095822382B90895EF92FF9213
:100170000F931F93DF93CF930F92CDB7DEB78E010E
:100180000F5F1F4FC8010E947700FF24E02E012F50
:100190008E2D902F6F2D0E948100482F8E2D902F35
:1001A0006F2D0E949B00F3948F2D843088F3FF24E1
:1001B000EFCF8FEF81B98DB18F708DB98EB1806F18
:1001C0008EB90895853031F49CB181E0903F68F09C
:1001D00080E008952CB130E090E0049602C035959F
:1001E00027958A95E2F7822F81700895DF93CF9348
:1001F00000D000D00F92CDB7DEB78D818C7F8D837C
:1002000081E090E09A8389831C821B8280E0BE019A
:100210006F5F7F4F0E94D1010F900F900F900F9052
:100220000F90CF91DF910895DF93CF93CDB7DEB7D5
:100230002C970FB6F894DEBF0FBECDBF843091056A
:10024000C0F42B812E7F2B839C012F5F3F4F3A837D
:10025000298328E02C8381708D8377FF03C01E8261
:10026000619502C081E08E836F83CE0101960E946A
:1002700074022C960FB6F894DEBF0FBECDBFCF919F
:10028000DF910895CF92DF92EF92FF921F93DF9359
:10029000CF93CDB7DEB72C970FB6F894DEBF0FBE65
:1002A000CDBF182F0E94C301882301F1CE01019612
:1002B0000E94DF026D8170E080E090E02E8130E0EE
:1002C00040E050E0542F432F322F2227CF80DD24EF
:1002D000EE24FF247601DD24CC242C293D294E294F
:1002E0005F29262B372B482B592B03C020E030E009
:1002F000A901209530954095509581E090E002C08D
:10030000880F991F1A95E2F7AA2797FDA095BA2F93
:10031000282339234A235B2381E021153105410538
:10032000510509F480E02C960FB6F894DEBF0FBE9D
:10033000CDBFCF91DF911F91FF90EF90DF90CF90D5
:100340000895CF93DF93EC0184E090E00E945B047A
:10035000FC019983888381E08083E881F98182E0D0
:100360008183E881F98181E28283E881F98182E2F7
:100370008383DF91CF910895FC01808191810E9458
:10038000F504089508959091070181E0992309F4F7
:1003900080E008959091060181E0992309F480E0BE
:1003A0000895FB018F3008F070C090E89093D8005A
:1003B0009091D90093FDFCCF1092D8009091D90074
:1003C00092FDFCCF982F9295907F9093ED00109224
:1003D000EE001092EF001092F0001092F100908168
:1003E0009295990F907E9093F2002081318143E0A5
:1003F000369527954A95E1F72093F30091E0909385
:10040000F4001092F50092819295990F907E90934E
:10041000F6002281338193E0369527959A95E1F78E
:100420002093F7009481937091FF0EC09091F40097
:1004300094609093F4009481937090FF05C0909124
:10044000F00094609093F0009091EF00906890938A
:10045000EF000E944C039091ED0080E0282F229540
:10046000207F2093ED002091EF002093EF008F5F1D
:100470008F30A1F79093ED0082E08093D8008091B7
:10048000D90082FFFCCF81E0089580E00895FC014F
:1004900083818093EF001092F0001092F100808130
:1004A0008295880F807E8093F2008081918123E085
:1004B000969587952A95E1F78093F300828180FFD6
:1004C00006C08091F00084608093F0000895CF0111
:1004D0000496DC0103C02D912093FA003A2F381BBB
:1004E00023813217C0F308951F93CF93DF93EC015C
:1004F0000E941703182F8F30F0F48295807F80932D
:10050000ED008091EE001092EE00CE010E944702B5
:10051000812F0E944C039FB7F8948091060181506F
:10052000809306019FBF8091EF0080648093EF006D
:10053000812F8F5F01C080E0DF91CF911F910895DF
:10054000FC018091EF00982F9F70938384FF0CC073
:100550009FB7F894809107018150809307019FBF56
:1005600080E88093EF0008952091F200229526956F
:10057000277030E0318320838091F30090E043E0E6
:10058000880F991F4A95E1F7822B932B91838083E3
:100590009091F000828192FF03C081608283089570
:1005A0008E7F8283CF010496DC0103C02091FA0084
:1005B0002D933A2F381B23813217C0F308950F93E0
:1005C0001F93CF93DF93EC010E94C301882349F16D
:1005D00010E0812F8295807F8093ED008091EE0066
:1005E000012F0F5F85FF1AC08091EE001092EE0080
:1005F000CE010E94A0029FB7F8948091070181501C
:10060000809307019FBF812F0E944C038091EF00D0
:10061000807180688093EF00802F04C0102F0F300E
:10062000C1F680E0DF91CF911F910F9108958091E5
:100630000601882379F080E0982F9295907F90931F
:10064000ED009091EF00907C31F08F5F8F30A1F73B
:100650008FEF08958FEF0895883070F49091DE0049
:1006600021E030E002C0220F331F8A95E2F7209587
:1006700029232093DE0008954091DF0090E0089741
:1006800021E030E002C0220F331F8A95E2F7209567
:1006900024232093DF000895883068F49091DE00D1
:1006A00021E030E002C0220F331F8A95E2F7922B3F
:1006B0009093DE0008954091DF0090E0089721E0DC
:1006C00030E002C0220F331F8A95E2F7422B40939D
:1006D000DF000895883058F59091D800916090938C
:1006E000D80093E0899FC0011124FC01EC56FF4F14
:1006F000E491E093E200FC01EB56FF4FE491E093BC
:10070000E3008A569F4FFC0184918093E40010928D
:10071000DA0080EB8093DB0087EC8093E5008FEFBD
:100720000E94060482E08093D80081E0089580E072
:1007300008951F920F920FB60F9211242F933F939B
:100740004F935F938F939F938091EC00807F803FC6
:1007500009F443C04091ED008091EC00807F8093CC
:10076000ED002091EC0022952F708091EE0086FF25
:100770000CC08091EE001092EE001092EF0080917C
:1007800006018F5F8093060105C0809107018F5F8E
:1007900080930701283070F43091DE0081E090E012
:1007A00002C0880F991F2A95E2F7809583238093D2
:1007B000DE0010C05091DF0030E02850304081E072
:1007C00090E002C0880F991F2A95E2F78095852353
:1007D0008093DF004093ED0004C08091DA008093A5
:1007E000DA009F918F915F914F913F912F910F90E0
:1007F0000FBE0F901F9018951F920F920FB60F9279
:1008000011240F900FBE0F901F9018958F30E8F0B5
:100810008F3F09F04EC01092DF001092DE0080E0A2
:10082000982F9295907F9093ED009091EF00109209
:10083000EF009091EE001092EE008F5F8F3081F705
:10084000109207018093060132C090E89093D8007F
:100850009091D90093FDFCCF1092D8009091D900CF
:1008600092FDFCCF982F9295907F9093ED00909100
:10087000EE001092EE001092EF000E942C03909177
:10088000ED0080E0282F2295207F2093ED0020911D
:10089000EF002093EF008F5F8F30A1F79093ED0072
:1008A00082E08093D8008091D90082FFFCCF81E064
:1008B000089580E00895CF93DF938230910510F47E
:1008C00082E090E0E0910A01F0910B0140E050E0FD
:1008D00020E030E026C06081718168177907E0F080
:1008E0006817790781F4828193812115310531F0F0
:1008F000D90113969C938E9312972BC090930B0162
:1009000080930A0126C04115510519F06417750737
:1009100018F4AB01E901DF019F0172816381E72FC8
:10092000F62F3097C1F64115510501F1481B590BBF
:100930004430510580F412968D919C911397209725
:1009400019F09B838A8304C090930B0180930A0162
:10095000FD01329646C0FD01E40FF51F819391938E
:100960004250504011965C934E933BC02091080139
:10097000309109012115310541F420910201309196
:100980000301309309012093080120910401309163
:1009900005012115310541F42DB73EB74091000105
:1009A00050910101241B350BE0910801F0910901E0
:1009B000E217F307A0F42E1B3F0B2817390778F036
:1009C000AC014E5F5F4F2417350748F04E0F5F1F95
:1009D00050930901409308018193919302C0E0E094
:1009E000F0E0CF01DF91CF910895CF93DF9300978F
:1009F00009F491C0FC0132971382128260910A01BE
:100A000070910B016115710581F420813181280FEE
:100A1000391F80910801909109018217930799F578
:100A2000F0930901E093080176C0DB0180E090E0DB
:100A300002C0CD01D901AE17BF0748F412962D911F
:100A40003C91139721153105A1F7CD0121C0B38346
:100A5000A283EF01499159919E01240F351FA217DE
:100A6000B30779F42D913C911197240F351F2E5F18
:100A70003F4F3183208312962D913C9113973383FE
:100A80002283009729F4F0930B01E0930A0143C0FD
:100A9000DC011396FC93EE9312974D915D91A40F98
:100AA000B51FEA17FB0769F420813181240F351F38
:100AB0002E5F3F4FEC0139832883228133813B83B2
:100AC0002A83E0E0F0E002C0FB01BC01DB011296EA
:100AD0008D919C9113970097B9F79B012E5F3F4F23
:100AE0008D919C911197820F931F40910801509115
:100AF00009014817590779F4309729F410920B012E
:100B000010920A0102C013821282225030403093A8
:100B1000090120930801DF91CF910895F894FFCF48
:060B200020000C010000A2
:00000001FF
