:100000000C9456000C9468000C9468000C946800E2
:100010000C9468000C9468000C9468000C946800C0
:100020000C9468000C9468000C9468000C946800B0
:100030000C9468000C9468000C9468000C946A009E
:100040000C9468000C9468000C946F010C94D2011D
:100050000C9468000C9468000C9468000C94680080
:100060000C9468000C9468000C9468000C94680070
:100070000C9468000C9468000C9468000C94680060
:100080000C9468000C9468000C9468000C94680050
:100090000C9468007E6E7F620C37260C37120C378A
:1000A0000E0C37060C37020C37000C3611241FBE1D
:1000B000CFEFD0E1DEBFCDBF11E0A0E0B1E001C0E5
:1000C0001D92A330B107E1F70E9479000C94000360
:1000D0000C9400001F920F920FB60F9211248F9371
:1000E00081E0809300018F910F900FBE0F901F90C1
:1000F0001895AF92BF92CF92DF92EF92FF920F933B
:100100001F93DF93CF93CDB7DEB761970FB6F89407
:10011000DEBF0FBECDBF83E090E00E944001789427
:1001200081E890E09A83898380EE97E09C838B83BB
:100130008D818C7F8D8380E0BE016F5F7F4F0E9439
:10014000310217B811B81DB87894E12C23E8F22ECB
:10015000BB24BA9409E211E098E0A92E86E0C82EEB
:10016000D12CCC0EDD1E10920001F0928500E092A1
:10017000840080916F00816080936F008091810086
:100180008160809381008FEF9FEF2FEF06C036B123
:10019000232330B193233CB18323309100013323D7
:1001A000B1F330916F003E7F30936F00309181004A
:1001B0003E7F3093810038853E7F38871F830E83D2
:1001C000A9862A879B878C87BD86BE86BF86B88A0C
:1001D000B98AC6010E94D402C6CF8091010188234A
:1001E00079F080E0982F9295907F9093ED00909118
:1001F000EF00907C31F08F5F8F30A1F78FEF089583
:100200008FEF0895883070F49091DE0021E030E0A7
:1002100002C0220F331F8A95E2F7209529232093ED
:10022000DE0008954091DF0090E0089721E030E083
:1002300002C0220F331F8A95E2F7209524232093D2
:10024000DF000895883068F49091DE0021E030E00E
:1002500002C0220F331F8A95E2F7922B9093DE00A3
:1002600008954091DF0090E0089721E030E002C05F
:10027000220F331F8A95E2F7422B4093DF00089547
:10028000883058F59091D80091609093D80093E011
:10029000899FC0011124FC01EC56FF4FE491E093CB
:1002A000E200FC01EB56FF4FE491E093E3008A5635
:1002B0009F4FFC0184918093E4001092DA0080EB60
:1002C0008093DB0087EC8093E5008FEF0E94DC01D8
:1002D00082E08093D80081E0089580E008951F9225
:1002E0000F920FB60F9211242F933F934F935F936A
:1002F0008F939F938091EC00807F803F09F443C0EF
:100300004091ED008091EC00807F8093ED00209182
:10031000EC0022952F708091EE0086FF0CC080913A
:10032000EE001092EE001092EF00809101018F5FBD
:100330008093010105C0809102018F5F80930201CB
:10034000283070F43091DE0081E090E002C0880F28
:10035000991F2A95E2F7809583238093DE0010C0D1
:100360005091DF0030E02850304081E090E002C042
:10037000880F991F2A95E2F7809585238093DF00E7
:100380004093ED0004C08091DA008093DA009F91E1
:100390008F915F914F913F912F910F900FBE0F90D2
:1003A0001F9018951F920F920FB60F9211240F9065
:1003B0000FBE0F901F9018958F30E8F08F3F09F017
:1003C0004EC01092DF001092DE0080E0982F9295D0
:1003D000907F9093ED009091EF001092EF0090913C
:1003E000EE001092EE008F5F8F3081F710920201C5
:1003F0008093010132C090E89093D8009091D90089
:1004000093FDFCCF1092D8009091D90092FDFCCFC3
:10041000982F9295907F9093ED009091EE0010921E
:10042000EE001092EF000E9402019091ED0080E03A
:10043000282F2295207F2093ED002091EF0020931C
:10044000EF008F5F8F30A1F79093ED0082E08093F3
:10045000D8008091D90082FFFCCF81E0089580E030
:100460000895FB018F3008F070C090E89093D80099
:100470009091D90093FDFCCF1092D8009091D900B3
:1004800092FDFCCF982F9295907F9093ED00109263
:10049000EE001092EF001092F0001092F1009081A7
:1004A0009295990F907E9093F2002081318143E0E4
:1004B000369527954A95E1F72093F30091E09093C4
:1004C000F4001092F50092819295990F907E90938E
:1004D000F6002281338193E0369527959A95E1F7CE
:1004E0002093F7009481937091FF0EC09091F400D7
:1004F00094609093F4009481937090FF05C0909164
:10050000F00094609093F0009091EF0090689093C9
:10051000EF000E9422019091ED0080E0282F2295AB
:10052000207F2093ED002091EF002093EF008F5F5C
:100530008F30A1F79093ED0082E08093D8008091F6
:10054000D90082FFFCCF81E0089580E00895FC018E
:1005500083818093EF001092F0001092F10080816F
:100560008295880F807E8093F2008081918123E0C4
:10057000969587952A95E1F78093F300828180FF15
:1005800006C08091F00084608093F0000895CF0150
:100590000496DC0103C02D912093FA003A2F381BFA
:1005A00023813217C0F308951F93CF93DF93EC019B
:1005B0000E94ED00182F8F30F0F48295807F809399
:1005C000ED008091EE001092EE00CE010E94A70295
:1005D000812F0E9422019FB7F894809101018150E0
:1005E000809301019FBF8091EF0080648093EF00B2
:1005F000812F8F5F01C080E0DF91CF911F9108951F
:04060000F894FFCF9C
:00000001FF
